
Lab13.elf:     file format elf32-littlearm

Sections:
Idx Name          Size      VMA       LMA       File off  Algn
  0 .isr_vector   00000188  08000000  08000000  00010000  2**0
                  CONTENTS, ALLOC, LOAD, READONLY, DATA
  1 .text         00006db8  08000188  08000188  00010188  2**2
                  CONTENTS, ALLOC, LOAD, READONLY, CODE
  2 .rodata       00000048  08006f40  08006f40  00016f40  2**2
                  CONTENTS, ALLOC, LOAD, READONLY, DATA
  3 .ARM.extab    00000000  08006f88  08006f88  000201a4  2**0
                  CONTENTS
  4 .ARM          00000008  08006f88  08006f88  00016f88  2**2
                  CONTENTS, ALLOC, LOAD, READONLY, DATA
  5 .preinit_array 00000000  08006f90  08006f90  000201a4  2**0
                  CONTENTS, ALLOC, LOAD, DATA
  6 .init_array   00000004  08006f90  08006f90  00016f90  2**2
                  CONTENTS, ALLOC, LOAD, DATA
  7 .fini_array   00000004  08006f94  08006f94  00016f94  2**2
                  CONTENTS, ALLOC, LOAD, DATA
  8 .data         000001a4  20000000  08006f98  00020000  2**2
                  CONTENTS, ALLOC, LOAD, DATA
  9 .bss          000002e8  200001a4  0800713c  000201a4  2**2
                  ALLOC
 10 ._user_heap_stack 00000604  2000048c  0800713c  0002048c  2**0
                  ALLOC
 11 .ARM.attributes 00000030  00000000  00000000  000201a4  2**0
                  CONTENTS, READONLY
 12 .debug_info   00016bbd  00000000  00000000  000201d4  2**0
                  CONTENTS, READONLY, DEBUGGING, OCTETS
 13 .debug_abbrev 000029a8  00000000  00000000  00036d91  2**0
                  CONTENTS, READONLY, DEBUGGING, OCTETS
 14 .debug_aranges 00001448  00000000  00000000  00039740  2**3
                  CONTENTS, READONLY, DEBUGGING, OCTETS
 15 .debug_ranges 00001350  00000000  00000000  0003ab88  2**3
                  CONTENTS, READONLY, DEBUGGING, OCTETS
 16 .debug_macro  00028975  00000000  00000000  0003bed8  2**0
                  CONTENTS, READONLY, DEBUGGING, OCTETS
 17 .debug_line   000165ad  00000000  00000000  0006484d  2**0
                  CONTENTS, READONLY, DEBUGGING, OCTETS
 18 .debug_str    001056f6  00000000  00000000  0007adfa  2**0
                  CONTENTS, READONLY, DEBUGGING, OCTETS
 19 .comment      00000050  00000000  00000000  001804f0  2**0
                  CONTENTS, READONLY
 20 .debug_frame  00005774  00000000  00000000  00180540  2**2
                  CONTENTS, READONLY, DEBUGGING, OCTETS

Disassembly of section .text:

08000188 <__do_global_dtors_aux>:
 8000188:	b510      	push	{r4, lr}
 800018a:	4c05      	ldr	r4, [pc, #20]	; (80001a0 <__do_global_dtors_aux+0x18>)
 800018c:	7823      	ldrb	r3, [r4, #0]
 800018e:	b933      	cbnz	r3, 800019e <__do_global_dtors_aux+0x16>
 8000190:	4b04      	ldr	r3, [pc, #16]	; (80001a4 <__do_global_dtors_aux+0x1c>)
 8000192:	b113      	cbz	r3, 800019a <__do_global_dtors_aux+0x12>
 8000194:	4804      	ldr	r0, [pc, #16]	; (80001a8 <__do_global_dtors_aux+0x20>)
 8000196:	f3af 8000 	nop.w
 800019a:	2301      	movs	r3, #1
 800019c:	7023      	strb	r3, [r4, #0]
 800019e:	bd10      	pop	{r4, pc}
 80001a0:	200001a4 	.word	0x200001a4
 80001a4:	00000000 	.word	0x00000000
 80001a8:	08006f28 	.word	0x08006f28

080001ac <frame_dummy>:
 80001ac:	b508      	push	{r3, lr}
 80001ae:	4b03      	ldr	r3, [pc, #12]	; (80001bc <frame_dummy+0x10>)
 80001b0:	b11b      	cbz	r3, 80001ba <frame_dummy+0xe>
 80001b2:	4903      	ldr	r1, [pc, #12]	; (80001c0 <frame_dummy+0x14>)
 80001b4:	4803      	ldr	r0, [pc, #12]	; (80001c4 <frame_dummy+0x18>)
 80001b6:	f3af 8000 	nop.w
 80001ba:	bd08      	pop	{r3, pc}
 80001bc:	00000000 	.word	0x00000000
 80001c0:	200001a8 	.word	0x200001a8
 80001c4:	08006f28 	.word	0x08006f28

080001c8 <__aeabi_uldivmod>:
 80001c8:	b953      	cbnz	r3, 80001e0 <__aeabi_uldivmod+0x18>
 80001ca:	b94a      	cbnz	r2, 80001e0 <__aeabi_uldivmod+0x18>
 80001cc:	2900      	cmp	r1, #0
 80001ce:	bf08      	it	eq
 80001d0:	2800      	cmpeq	r0, #0
 80001d2:	bf1c      	itt	ne
 80001d4:	f04f 31ff 	movne.w	r1, #4294967295
 80001d8:	f04f 30ff 	movne.w	r0, #4294967295
 80001dc:	f000 b974 	b.w	80004c8 <__aeabi_idiv0>
 80001e0:	f1ad 0c08 	sub.w	ip, sp, #8
 80001e4:	e96d ce04 	strd	ip, lr, [sp, #-16]!
 80001e8:	f000 f806 	bl	80001f8 <__udivmoddi4>
 80001ec:	f8dd e004 	ldr.w	lr, [sp, #4]
 80001f0:	e9dd 2302 	ldrd	r2, r3, [sp, #8]
 80001f4:	b004      	add	sp, #16
 80001f6:	4770      	bx	lr

080001f8 <__udivmoddi4>:
 80001f8:	e92d 47f0 	stmdb	sp!, {r4, r5, r6, r7, r8, r9, sl, lr}
 80001fc:	9d08      	ldr	r5, [sp, #32]
 80001fe:	4604      	mov	r4, r0
 8000200:	468e      	mov	lr, r1
 8000202:	2b00      	cmp	r3, #0
 8000204:	d14d      	bne.n	80002a2 <__udivmoddi4+0xaa>
 8000206:	428a      	cmp	r2, r1
 8000208:	4694      	mov	ip, r2
 800020a:	d969      	bls.n	80002e0 <__udivmoddi4+0xe8>
 800020c:	fab2 f282 	clz	r2, r2
 8000210:	b152      	cbz	r2, 8000228 <__udivmoddi4+0x30>
 8000212:	fa01 f302 	lsl.w	r3, r1, r2
 8000216:	f1c2 0120 	rsb	r1, r2, #32
 800021a:	fa20 f101 	lsr.w	r1, r0, r1
 800021e:	fa0c fc02 	lsl.w	ip, ip, r2
 8000222:	ea41 0e03 	orr.w	lr, r1, r3
 8000226:	4094      	lsls	r4, r2
 8000228:	ea4f 481c 	mov.w	r8, ip, lsr #16
 800022c:	0c21      	lsrs	r1, r4, #16
 800022e:	fbbe f6f8 	udiv	r6, lr, r8
 8000232:	fa1f f78c 	uxth.w	r7, ip
 8000236:	fb08 e316 	mls	r3, r8, r6, lr
 800023a:	ea41 4303 	orr.w	r3, r1, r3, lsl #16
 800023e:	fb06 f107 	mul.w	r1, r6, r7
 8000242:	4299      	cmp	r1, r3
 8000244:	d90a      	bls.n	800025c <__udivmoddi4+0x64>
 8000246:	eb1c 0303 	adds.w	r3, ip, r3
 800024a:	f106 30ff 	add.w	r0, r6, #4294967295
 800024e:	f080 811f 	bcs.w	8000490 <__udivmoddi4+0x298>
 8000252:	4299      	cmp	r1, r3
 8000254:	f240 811c 	bls.w	8000490 <__udivmoddi4+0x298>
 8000258:	3e02      	subs	r6, #2
 800025a:	4463      	add	r3, ip
 800025c:	1a5b      	subs	r3, r3, r1
 800025e:	b2a4      	uxth	r4, r4
 8000260:	fbb3 f0f8 	udiv	r0, r3, r8
 8000264:	fb08 3310 	mls	r3, r8, r0, r3
 8000268:	ea44 4403 	orr.w	r4, r4, r3, lsl #16
 800026c:	fb00 f707 	mul.w	r7, r0, r7
 8000270:	42a7      	cmp	r7, r4
 8000272:	d90a      	bls.n	800028a <__udivmoddi4+0x92>
 8000274:	eb1c 0404 	adds.w	r4, ip, r4
 8000278:	f100 33ff 	add.w	r3, r0, #4294967295
 800027c:	f080 810a 	bcs.w	8000494 <__udivmoddi4+0x29c>
 8000280:	42a7      	cmp	r7, r4
 8000282:	f240 8107 	bls.w	8000494 <__udivmoddi4+0x29c>
 8000286:	4464      	add	r4, ip
 8000288:	3802      	subs	r0, #2
 800028a:	ea40 4006 	orr.w	r0, r0, r6, lsl #16
 800028e:	1be4      	subs	r4, r4, r7
 8000290:	2600      	movs	r6, #0
 8000292:	b11d      	cbz	r5, 800029c <__udivmoddi4+0xa4>
 8000294:	40d4      	lsrs	r4, r2
 8000296:	2300      	movs	r3, #0
 8000298:	e9c5 4300 	strd	r4, r3, [r5]
 800029c:	4631      	mov	r1, r6
 800029e:	e8bd 87f0 	ldmia.w	sp!, {r4, r5, r6, r7, r8, r9, sl, pc}
 80002a2:	428b      	cmp	r3, r1
 80002a4:	d909      	bls.n	80002ba <__udivmoddi4+0xc2>
 80002a6:	2d00      	cmp	r5, #0
 80002a8:	f000 80ef 	beq.w	800048a <__udivmoddi4+0x292>
 80002ac:	2600      	movs	r6, #0
 80002ae:	e9c5 0100 	strd	r0, r1, [r5]
 80002b2:	4630      	mov	r0, r6
 80002b4:	4631      	mov	r1, r6
 80002b6:	e8bd 87f0 	ldmia.w	sp!, {r4, r5, r6, r7, r8, r9, sl, pc}
 80002ba:	fab3 f683 	clz	r6, r3
 80002be:	2e00      	cmp	r6, #0
 80002c0:	d14a      	bne.n	8000358 <__udivmoddi4+0x160>
 80002c2:	428b      	cmp	r3, r1
 80002c4:	d302      	bcc.n	80002cc <__udivmoddi4+0xd4>
 80002c6:	4282      	cmp	r2, r0
 80002c8:	f200 80f9 	bhi.w	80004be <__udivmoddi4+0x2c6>
 80002cc:	1a84      	subs	r4, r0, r2
 80002ce:	eb61 0303 	sbc.w	r3, r1, r3
 80002d2:	2001      	movs	r0, #1
 80002d4:	469e      	mov	lr, r3
 80002d6:	2d00      	cmp	r5, #0
 80002d8:	d0e0      	beq.n	800029c <__udivmoddi4+0xa4>
 80002da:	e9c5 4e00 	strd	r4, lr, [r5]
 80002de:	e7dd      	b.n	800029c <__udivmoddi4+0xa4>
 80002e0:	b902      	cbnz	r2, 80002e4 <__udivmoddi4+0xec>
 80002e2:	deff      	udf	#255	; 0xff
 80002e4:	fab2 f282 	clz	r2, r2
 80002e8:	2a00      	cmp	r2, #0
 80002ea:	f040 8092 	bne.w	8000412 <__udivmoddi4+0x21a>
 80002ee:	eba1 010c 	sub.w	r1, r1, ip
 80002f2:	ea4f 471c 	mov.w	r7, ip, lsr #16
 80002f6:	fa1f fe8c 	uxth.w	lr, ip
 80002fa:	2601      	movs	r6, #1
 80002fc:	0c20      	lsrs	r0, r4, #16
 80002fe:	fbb1 f3f7 	udiv	r3, r1, r7
 8000302:	fb07 1113 	mls	r1, r7, r3, r1
 8000306:	ea40 4101 	orr.w	r1, r0, r1, lsl #16
 800030a:	fb0e f003 	mul.w	r0, lr, r3
 800030e:	4288      	cmp	r0, r1
 8000310:	d908      	bls.n	8000324 <__udivmoddi4+0x12c>
 8000312:	eb1c 0101 	adds.w	r1, ip, r1
 8000316:	f103 38ff 	add.w	r8, r3, #4294967295
 800031a:	d202      	bcs.n	8000322 <__udivmoddi4+0x12a>
 800031c:	4288      	cmp	r0, r1
 800031e:	f200 80cb 	bhi.w	80004b8 <__udivmoddi4+0x2c0>
 8000322:	4643      	mov	r3, r8
 8000324:	1a09      	subs	r1, r1, r0
 8000326:	b2a4      	uxth	r4, r4
 8000328:	fbb1 f0f7 	udiv	r0, r1, r7
 800032c:	fb07 1110 	mls	r1, r7, r0, r1
 8000330:	ea44 4401 	orr.w	r4, r4, r1, lsl #16
 8000334:	fb0e fe00 	mul.w	lr, lr, r0
 8000338:	45a6      	cmp	lr, r4
 800033a:	d908      	bls.n	800034e <__udivmoddi4+0x156>
 800033c:	eb1c 0404 	adds.w	r4, ip, r4
 8000340:	f100 31ff 	add.w	r1, r0, #4294967295
 8000344:	d202      	bcs.n	800034c <__udivmoddi4+0x154>
 8000346:	45a6      	cmp	lr, r4
 8000348:	f200 80bb 	bhi.w	80004c2 <__udivmoddi4+0x2ca>
 800034c:	4608      	mov	r0, r1
 800034e:	eba4 040e 	sub.w	r4, r4, lr
 8000352:	ea40 4003 	orr.w	r0, r0, r3, lsl #16
 8000356:	e79c      	b.n	8000292 <__udivmoddi4+0x9a>
 8000358:	f1c6 0720 	rsb	r7, r6, #32
 800035c:	40b3      	lsls	r3, r6
 800035e:	fa22 fc07 	lsr.w	ip, r2, r7
 8000362:	ea4c 0c03 	orr.w	ip, ip, r3
 8000366:	fa20 f407 	lsr.w	r4, r0, r7
 800036a:	fa01 f306 	lsl.w	r3, r1, r6
 800036e:	431c      	orrs	r4, r3
 8000370:	40f9      	lsrs	r1, r7
 8000372:	ea4f 491c 	mov.w	r9, ip, lsr #16
 8000376:	fa00 f306 	lsl.w	r3, r0, r6
 800037a:	fbb1 f8f9 	udiv	r8, r1, r9
 800037e:	0c20      	lsrs	r0, r4, #16
 8000380:	fa1f fe8c 	uxth.w	lr, ip
 8000384:	fb09 1118 	mls	r1, r9, r8, r1
 8000388:	ea40 4101 	orr.w	r1, r0, r1, lsl #16
 800038c:	fb08 f00e 	mul.w	r0, r8, lr
 8000390:	4288      	cmp	r0, r1
 8000392:	fa02 f206 	lsl.w	r2, r2, r6
 8000396:	d90b      	bls.n	80003b0 <__udivmoddi4+0x1b8>
 8000398:	eb1c 0101 	adds.w	r1, ip, r1
 800039c:	f108 3aff 	add.w	sl, r8, #4294967295
 80003a0:	f080 8088 	bcs.w	80004b4 <__udivmoddi4+0x2bc>
 80003a4:	4288      	cmp	r0, r1
 80003a6:	f240 8085 	bls.w	80004b4 <__udivmoddi4+0x2bc>
 80003aa:	f1a8 0802 	sub.w	r8, r8, #2
 80003ae:	4461      	add	r1, ip
 80003b0:	1a09      	subs	r1, r1, r0
 80003b2:	b2a4      	uxth	r4, r4
 80003b4:	fbb1 f0f9 	udiv	r0, r1, r9
 80003b8:	fb09 1110 	mls	r1, r9, r0, r1
 80003bc:	ea44 4101 	orr.w	r1, r4, r1, lsl #16
 80003c0:	fb00 fe0e 	mul.w	lr, r0, lr
 80003c4:	458e      	cmp	lr, r1
 80003c6:	d908      	bls.n	80003da <__udivmoddi4+0x1e2>
 80003c8:	eb1c 0101 	adds.w	r1, ip, r1
 80003cc:	f100 34ff 	add.w	r4, r0, #4294967295
 80003d0:	d26c      	bcs.n	80004ac <__udivmoddi4+0x2b4>
 80003d2:	458e      	cmp	lr, r1
 80003d4:	d96a      	bls.n	80004ac <__udivmoddi4+0x2b4>
 80003d6:	3802      	subs	r0, #2
 80003d8:	4461      	add	r1, ip
 80003da:	ea40 4008 	orr.w	r0, r0, r8, lsl #16
 80003de:	fba0 9402 	umull	r9, r4, r0, r2
 80003e2:	eba1 010e 	sub.w	r1, r1, lr
 80003e6:	42a1      	cmp	r1, r4
 80003e8:	46c8      	mov	r8, r9
 80003ea:	46a6      	mov	lr, r4
 80003ec:	d356      	bcc.n	800049c <__udivmoddi4+0x2a4>
 80003ee:	d053      	beq.n	8000498 <__udivmoddi4+0x2a0>
 80003f0:	b15d      	cbz	r5, 800040a <__udivmoddi4+0x212>
 80003f2:	ebb3 0208 	subs.w	r2, r3, r8
 80003f6:	eb61 010e 	sbc.w	r1, r1, lr
 80003fa:	fa01 f707 	lsl.w	r7, r1, r7
 80003fe:	fa22 f306 	lsr.w	r3, r2, r6
 8000402:	40f1      	lsrs	r1, r6
 8000404:	431f      	orrs	r7, r3
 8000406:	e9c5 7100 	strd	r7, r1, [r5]
 800040a:	2600      	movs	r6, #0
 800040c:	4631      	mov	r1, r6
 800040e:	e8bd 87f0 	ldmia.w	sp!, {r4, r5, r6, r7, r8, r9, sl, pc}
 8000412:	f1c2 0320 	rsb	r3, r2, #32
 8000416:	40d8      	lsrs	r0, r3
 8000418:	fa0c fc02 	lsl.w	ip, ip, r2
 800041c:	fa21 f303 	lsr.w	r3, r1, r3
 8000420:	4091      	lsls	r1, r2
 8000422:	4301      	orrs	r1, r0
 8000424:	ea4f 471c 	mov.w	r7, ip, lsr #16
 8000428:	fa1f fe8c 	uxth.w	lr, ip
 800042c:	fbb3 f0f7 	udiv	r0, r3, r7
 8000430:	fb07 3610 	mls	r6, r7, r0, r3
 8000434:	0c0b      	lsrs	r3, r1, #16
 8000436:	ea43 4306 	orr.w	r3, r3, r6, lsl #16
 800043a:	fb00 f60e 	mul.w	r6, r0, lr
 800043e:	429e      	cmp	r6, r3
 8000440:	fa04 f402 	lsl.w	r4, r4, r2
 8000444:	d908      	bls.n	8000458 <__udivmoddi4+0x260>
 8000446:	eb1c 0303 	adds.w	r3, ip, r3
 800044a:	f100 38ff 	add.w	r8, r0, #4294967295
 800044e:	d22f      	bcs.n	80004b0 <__udivmoddi4+0x2b8>
 8000450:	429e      	cmp	r6, r3
 8000452:	d92d      	bls.n	80004b0 <__udivmoddi4+0x2b8>
 8000454:	3802      	subs	r0, #2
 8000456:	4463      	add	r3, ip
 8000458:	1b9b      	subs	r3, r3, r6
 800045a:	b289      	uxth	r1, r1
 800045c:	fbb3 f6f7 	udiv	r6, r3, r7
 8000460:	fb07 3316 	mls	r3, r7, r6, r3
 8000464:	ea41 4103 	orr.w	r1, r1, r3, lsl #16
 8000468:	fb06 f30e 	mul.w	r3, r6, lr
 800046c:	428b      	cmp	r3, r1
 800046e:	d908      	bls.n	8000482 <__udivmoddi4+0x28a>
 8000470:	eb1c 0101 	adds.w	r1, ip, r1
 8000474:	f106 38ff 	add.w	r8, r6, #4294967295
 8000478:	d216      	bcs.n	80004a8 <__udivmoddi4+0x2b0>
 800047a:	428b      	cmp	r3, r1
 800047c:	d914      	bls.n	80004a8 <__udivmoddi4+0x2b0>
 800047e:	3e02      	subs	r6, #2
 8000480:	4461      	add	r1, ip
 8000482:	1ac9      	subs	r1, r1, r3
 8000484:	ea46 4600 	orr.w	r6, r6, r0, lsl #16
 8000488:	e738      	b.n	80002fc <__udivmoddi4+0x104>
 800048a:	462e      	mov	r6, r5
 800048c:	4628      	mov	r0, r5
 800048e:	e705      	b.n	800029c <__udivmoddi4+0xa4>
 8000490:	4606      	mov	r6, r0
 8000492:	e6e3      	b.n	800025c <__udivmoddi4+0x64>
 8000494:	4618      	mov	r0, r3
 8000496:	e6f8      	b.n	800028a <__udivmoddi4+0x92>
 8000498:	454b      	cmp	r3, r9
 800049a:	d2a9      	bcs.n	80003f0 <__udivmoddi4+0x1f8>
 800049c:	ebb9 0802 	subs.w	r8, r9, r2
 80004a0:	eb64 0e0c 	sbc.w	lr, r4, ip
 80004a4:	3801      	subs	r0, #1
 80004a6:	e7a3      	b.n	80003f0 <__udivmoddi4+0x1f8>
 80004a8:	4646      	mov	r6, r8
 80004aa:	e7ea      	b.n	8000482 <__udivmoddi4+0x28a>
 80004ac:	4620      	mov	r0, r4
 80004ae:	e794      	b.n	80003da <__udivmoddi4+0x1e2>
 80004b0:	4640      	mov	r0, r8
 80004b2:	e7d1      	b.n	8000458 <__udivmoddi4+0x260>
 80004b4:	46d0      	mov	r8, sl
 80004b6:	e77b      	b.n	80003b0 <__udivmoddi4+0x1b8>
 80004b8:	3b02      	subs	r3, #2
 80004ba:	4461      	add	r1, ip
 80004bc:	e732      	b.n	8000324 <__udivmoddi4+0x12c>
 80004be:	4630      	mov	r0, r6
 80004c0:	e709      	b.n	80002d6 <__udivmoddi4+0xde>
 80004c2:	4464      	add	r4, ip
 80004c4:	3802      	subs	r0, #2
 80004c6:	e742      	b.n	800034e <__udivmoddi4+0x156>

080004c8 <__aeabi_idiv0>:
 80004c8:	4770      	bx	lr
 80004ca:	bf00      	nop

080004cc <set_dutyCycle>:
/* USER CODE END PFP */

/* Private user code ---------------------------------------------------------*/
/* USER CODE BEGIN 0 */
void set_dutyCycle(float duty_cycle)
{
 80004cc:	b480      	push	{r7}
 80004ce:	b083      	sub	sp, #12
 80004d0:	af00      	add	r7, sp, #0
 80004d2:	ed87 0a01 	vstr	s0, [r7, #4]
	TIM2 -> CCR1 = (uint16_t) (duty_cycle * htim2.Init.Period); // modify duty cycle for TIM2 CH1
 80004d6:	4b0c      	ldr	r3, [pc, #48]	; (8000508 <set_dutyCycle+0x3c>)
 80004d8:	68db      	ldr	r3, [r3, #12]
 80004da:	ee07 3a90 	vmov	s15, r3
 80004de:	eeb8 7a67 	vcvt.f32.u32	s14, s15
 80004e2:	edd7 7a01 	vldr	s15, [r7, #4]
 80004e6:	ee67 7a27 	vmul.f32	s15, s14, s15
 80004ea:	eefc 7ae7 	vcvt.u32.f32	s15, s15
 80004ee:	ee17 3a90 	vmov	r3, s15
 80004f2:	b29a      	uxth	r2, r3
 80004f4:	f04f 4380 	mov.w	r3, #1073741824	; 0x40000000
 80004f8:	635a      	str	r2, [r3, #52]	; 0x34
}
 80004fa:	bf00      	nop
 80004fc:	370c      	adds	r7, #12
 80004fe:	46bd      	mov	sp, r7
 8000500:	f85d 7b04 	ldr.w	r7, [sp], #4
 8000504:	4770      	bx	lr
 8000506:	bf00      	nop
 8000508:	200002c8 	.word	0x200002c8

0800050c <main>:
/**
  * @brief  The application entry point.
  * @retval int
  */
int main(void)
{
 800050c:	b580      	push	{r7, lr}
 800050e:	b082      	sub	sp, #8
 8000510:	af02      	add	r7, sp, #8
  /* USER CODE END 1 */

  /* MCU Configuration--------------------------------------------------------*/

  /* Reset of all peripherals, Initializes the Flash interface and the Systick. */
  HAL_Init();
 8000512:	f000 ff65 	bl	80013e0 <HAL_Init>
  /* USER CODE BEGIN Init */

  /* USER CODE END Init */

  /* Configure the system clock */
  SystemClock_Config();
 8000516:	f000 f841 	bl	800059c <SystemClock_Config>
  /* USER CODE BEGIN SysInit */

  /* USER CODE END SysInit */

  /* Initialize all configured peripherals */
  MX_GPIO_Init();
 800051a:	f000 fb3b 	bl	8000b94 <MX_GPIO_Init>
  MX_DMA_Init();
 800051e:	f000 fb13 	bl	8000b48 <MX_DMA_Init>
  MX_USART2_UART_Init();
 8000522:	f000 fae1 	bl	8000ae8 <MX_USART2_UART_Init>
  MX_TIM2_Init();
 8000526:	f000 f921 	bl	800076c <MX_TIM2_Init>
  MX_TIM3_Init();
 800052a:	f000 f979 	bl	8000820 <MX_TIM3_Init>
  MX_DAC1_Init();
 800052e:	f000 f8eb 	bl	8000708 <MX_DAC1_Init>
  MX_TIM4_Init();
 8000532:	f000 f9ed 	bl	8000910 <MX_TIM4_Init>
  MX_TIM5_Init();
 8000536:	f000 fa61 	bl	80009fc <MX_TIM5_Init>
  MX_ADC2_Init();
 800053a:	f000 f881 	bl	8000640 <MX_ADC2_Init>
  /* USER CODE BEGIN 2 */
  // Start modules
  HAL_TIM_PWM_Start(&htim2, TIM_CHANNEL_1);
 800053e:	2100      	movs	r1, #0
 8000540:	480e      	ldr	r0, [pc, #56]	; (800057c <main+0x70>)
 8000542:	f004 fe93 	bl	800526c <HAL_TIM_PWM_Start>
  HAL_TIM_Base_Start_IT(&htim3);
 8000546:	480e      	ldr	r0, [pc, #56]	; (8000580 <main+0x74>)
 8000548:	f004 fd68 	bl	800501c <HAL_TIM_Base_Start_IT>
  HAL_TIM_Base_Start_IT(&htim5);
 800054c:	480d      	ldr	r0, [pc, #52]	; (8000584 <main+0x78>)
 800054e:	f004 fd65 	bl	800501c <HAL_TIM_Base_Start_IT>
  HAL_DAC_Start_DMA(&hdac1, DAC_CHANNEL_1, (uint32_t*) Wave_LUT, 100, DAC_ALIGN_12B_R);
 8000552:	2300      	movs	r3, #0
 8000554:	9300      	str	r3, [sp, #0]
 8000556:	2364      	movs	r3, #100	; 0x64
 8000558:	4a0b      	ldr	r2, [pc, #44]	; (8000588 <main+0x7c>)
 800055a:	2100      	movs	r1, #0
 800055c:	480b      	ldr	r0, [pc, #44]	; (800058c <main+0x80>)
 800055e:	f002 fb35 	bl	8002bcc <HAL_DAC_Start_DMA>
  HAL_ADC_Start_DMA(&hadc2, &adc_value, 1);
 8000562:	2201      	movs	r2, #1
 8000564:	490a      	ldr	r1, [pc, #40]	; (8000590 <main+0x84>)
 8000566:	480b      	ldr	r0, [pc, #44]	; (8000594 <main+0x88>)
 8000568:	f001 fb2c 	bl	8001bc4 <HAL_ADC_Start_DMA>
  HAL_TIM_Base_Start(&htim4);
 800056c:	480a      	ldr	r0, [pc, #40]	; (8000598 <main+0x8c>)
 800056e:	f004 fced 	bl	8004f4c <HAL_TIM_Base_Start>

  HAL_ADCEx_Calibration_Start(&hadc2, ADC_SINGLE_ENDED);
 8000572:	217f      	movs	r1, #127	; 0x7f
 8000574:	4807      	ldr	r0, [pc, #28]	; (8000594 <main+0x88>)
 8000576:	f002 f995 	bl	80028a4 <HAL_ADCEx_Calibration_Start>

  /* USER CODE END 2 */

  /* Infinite loop */
  /* USER CODE BEGIN WHILE */
  while (1)
 800057a:	e7fe      	b.n	800057a <main+0x6e>
 800057c:	200002c8 	.word	0x200002c8
 8000580:	20000314 	.word	0x20000314
 8000584:	200003ac 	.word	0x200003ac
 8000588:	20000008 	.word	0x20000008
 800058c:	2000026c 	.word	0x2000026c
 8000590:	20000484 	.word	0x20000484
 8000594:	200001c0 	.word	0x200001c0
 8000598:	20000360 	.word	0x20000360

0800059c <SystemClock_Config>:
/**
  * @brief System Clock Configuration
  * @retval None
  */
void SystemClock_Config(void)
{
 800059c:	b580      	push	{r7, lr}
 800059e:	b096      	sub	sp, #88	; 0x58
 80005a0:	af00      	add	r7, sp, #0
  RCC_OscInitTypeDef RCC_OscInitStruct = {0};
 80005a2:	f107 0314 	add.w	r3, r7, #20
 80005a6:	2244      	movs	r2, #68	; 0x44
 80005a8:	2100      	movs	r1, #0
 80005aa:	4618      	mov	r0, r3
 80005ac:	f006 fcb4 	bl	8006f18 <memset>
  RCC_ClkInitTypeDef RCC_ClkInitStruct = {0};
 80005b0:	463b      	mov	r3, r7
 80005b2:	2200      	movs	r2, #0
 80005b4:	601a      	str	r2, [r3, #0]
 80005b6:	605a      	str	r2, [r3, #4]
 80005b8:	609a      	str	r2, [r3, #8]
 80005ba:	60da      	str	r2, [r3, #12]
 80005bc:	611a      	str	r2, [r3, #16]

  /** Configure the main internal regulator output voltage
  */
  if (HAL_PWREx_ControlVoltageScaling(PWR_REGULATOR_VOLTAGE_SCALE1) != HAL_OK)
 80005be:	f44f 7000 	mov.w	r0, #512	; 0x200
 80005c2:	f003 f959 	bl	8003878 <HAL_PWREx_ControlVoltageScaling>
 80005c6:	4603      	mov	r3, r0
 80005c8:	2b00      	cmp	r3, #0
 80005ca:	d001      	beq.n	80005d0 <SystemClock_Config+0x34>
  {
    Error_Handler();
 80005cc:	f000 fbce 	bl	8000d6c <Error_Handler>
  }

  /** Initializes the RCC Oscillators according to the specified parameters
  * in the RCC_OscInitTypeDef structure.
  */
  RCC_OscInitStruct.OscillatorType = RCC_OSCILLATORTYPE_HSI;
 80005d0:	2302      	movs	r3, #2
 80005d2:	617b      	str	r3, [r7, #20]
  RCC_OscInitStruct.HSIState = RCC_HSI_ON;
 80005d4:	f44f 7380 	mov.w	r3, #256	; 0x100
 80005d8:	623b      	str	r3, [r7, #32]
  RCC_OscInitStruct.HSICalibrationValue = RCC_HSICALIBRATION_DEFAULT;
 80005da:	2310      	movs	r3, #16
 80005dc:	627b      	str	r3, [r7, #36]	; 0x24
  RCC_OscInitStruct.PLL.PLLState = RCC_PLL_ON;
 80005de:	2302      	movs	r3, #2
 80005e0:	63fb      	str	r3, [r7, #60]	; 0x3c
  RCC_OscInitStruct.PLL.PLLSource = RCC_PLLSOURCE_HSI;
 80005e2:	2302      	movs	r3, #2
 80005e4:	643b      	str	r3, [r7, #64]	; 0x40
  RCC_OscInitStruct.PLL.PLLM = 1;
 80005e6:	2301      	movs	r3, #1
 80005e8:	647b      	str	r3, [r7, #68]	; 0x44
  RCC_OscInitStruct.PLL.PLLN = 10;
 80005ea:	230a      	movs	r3, #10
 80005ec:	64bb      	str	r3, [r7, #72]	; 0x48
  RCC_OscInitStruct.PLL.PLLP = RCC_PLLP_DIV7;
 80005ee:	2307      	movs	r3, #7
 80005f0:	64fb      	str	r3, [r7, #76]	; 0x4c
  RCC_OscInitStruct.PLL.PLLQ = RCC_PLLQ_DIV2;
 80005f2:	2302      	movs	r3, #2
 80005f4:	653b      	str	r3, [r7, #80]	; 0x50
  RCC_OscInitStruct.PLL.PLLR = RCC_PLLR_DIV2;
 80005f6:	2302      	movs	r3, #2
 80005f8:	657b      	str	r3, [r7, #84]	; 0x54
  if (HAL_RCC_OscConfig(&RCC_OscInitStruct) != HAL_OK)
 80005fa:	f107 0314 	add.w	r3, r7, #20
 80005fe:	4618      	mov	r0, r3
 8000600:	f003 f990 	bl	8003924 <HAL_RCC_OscConfig>
 8000604:	4603      	mov	r3, r0
 8000606:	2b00      	cmp	r3, #0
 8000608:	d001      	beq.n	800060e <SystemClock_Config+0x72>
  {
    Error_Handler();
 800060a:	f000 fbaf 	bl	8000d6c <Error_Handler>
  }

  /** Initializes the CPU, AHB and APB buses clocks
  */
  RCC_ClkInitStruct.ClockType = RCC_CLOCKTYPE_HCLK|RCC_CLOCKTYPE_SYSCLK
 800060e:	230f      	movs	r3, #15
 8000610:	603b      	str	r3, [r7, #0]
                              |RCC_CLOCKTYPE_PCLK1|RCC_CLOCKTYPE_PCLK2;
  RCC_ClkInitStruct.SYSCLKSource = RCC_SYSCLKSOURCE_PLLCLK;
 8000612:	2303      	movs	r3, #3
 8000614:	607b      	str	r3, [r7, #4]
  RCC_ClkInitStruct.AHBCLKDivider = RCC_SYSCLK_DIV1;
 8000616:	2300      	movs	r3, #0
 8000618:	60bb      	str	r3, [r7, #8]
  RCC_ClkInitStruct.APB1CLKDivider = RCC_HCLK_DIV1;
 800061a:	2300      	movs	r3, #0
 800061c:	60fb      	str	r3, [r7, #12]
  RCC_ClkInitStruct.APB2CLKDivider = RCC_HCLK_DIV1;
 800061e:	2300      	movs	r3, #0
 8000620:	613b      	str	r3, [r7, #16]

  if (HAL_RCC_ClockConfig(&RCC_ClkInitStruct, FLASH_LATENCY_4) != HAL_OK)
 8000622:	463b      	mov	r3, r7
 8000624:	2104      	movs	r1, #4
 8000626:	4618      	mov	r0, r3
 8000628:	f003 fd58 	bl	80040dc <HAL_RCC_ClockConfig>
 800062c:	4603      	mov	r3, r0
 800062e:	2b00      	cmp	r3, #0
 8000630:	d001      	beq.n	8000636 <SystemClock_Config+0x9a>
  {
    Error_Handler();
 8000632:	f000 fb9b 	bl	8000d6c <Error_Handler>
  }
}
 8000636:	bf00      	nop
 8000638:	3758      	adds	r7, #88	; 0x58
 800063a:	46bd      	mov	sp, r7
 800063c:	bd80      	pop	{r7, pc}
	...

08000640 <MX_ADC2_Init>:
  * @brief ADC2 Initialization Function
  * @param None
  * @retval None
  */
static void MX_ADC2_Init(void)
{
 8000640:	b580      	push	{r7, lr}
 8000642:	b086      	sub	sp, #24
 8000644:	af00      	add	r7, sp, #0

  /* USER CODE BEGIN ADC2_Init 0 */

  /* USER CODE END ADC2_Init 0 */

  ADC_ChannelConfTypeDef sConfig = {0};
 8000646:	463b      	mov	r3, r7
 8000648:	2200      	movs	r2, #0
 800064a:	601a      	str	r2, [r3, #0]
 800064c:	605a      	str	r2, [r3, #4]
 800064e:	609a      	str	r2, [r3, #8]
 8000650:	60da      	str	r2, [r3, #12]
 8000652:	611a      	str	r2, [r3, #16]
 8000654:	615a      	str	r2, [r3, #20]

  /* USER CODE END ADC2_Init 1 */

  /** Common config
  */
  hadc2.Instance = ADC2;
 8000656:	4b29      	ldr	r3, [pc, #164]	; (80006fc <MX_ADC2_Init+0xbc>)
 8000658:	4a29      	ldr	r2, [pc, #164]	; (8000700 <MX_ADC2_Init+0xc0>)
 800065a:	601a      	str	r2, [r3, #0]
  hadc2.Init.ClockPrescaler = ADC_CLOCK_ASYNC_DIV1;
 800065c:	4b27      	ldr	r3, [pc, #156]	; (80006fc <MX_ADC2_Init+0xbc>)
 800065e:	2200      	movs	r2, #0
 8000660:	605a      	str	r2, [r3, #4]
  hadc2.Init.Resolution = ADC_RESOLUTION_12B;
 8000662:	4b26      	ldr	r3, [pc, #152]	; (80006fc <MX_ADC2_Init+0xbc>)
 8000664:	2200      	movs	r2, #0
 8000666:	609a      	str	r2, [r3, #8]
  hadc2.Init.DataAlign = ADC_DATAALIGN_RIGHT;
 8000668:	4b24      	ldr	r3, [pc, #144]	; (80006fc <MX_ADC2_Init+0xbc>)
 800066a:	2200      	movs	r2, #0
 800066c:	60da      	str	r2, [r3, #12]
  hadc2.Init.ScanConvMode = ADC_SCAN_DISABLE;
 800066e:	4b23      	ldr	r3, [pc, #140]	; (80006fc <MX_ADC2_Init+0xbc>)
 8000670:	2200      	movs	r2, #0
 8000672:	611a      	str	r2, [r3, #16]
  hadc2.Init.EOCSelection = ADC_EOC_SINGLE_CONV;
 8000674:	4b21      	ldr	r3, [pc, #132]	; (80006fc <MX_ADC2_Init+0xbc>)
 8000676:	2204      	movs	r2, #4
 8000678:	615a      	str	r2, [r3, #20]
  hadc2.Init.LowPowerAutoWait = DISABLE;
 800067a:	4b20      	ldr	r3, [pc, #128]	; (80006fc <MX_ADC2_Init+0xbc>)
 800067c:	2200      	movs	r2, #0
 800067e:	761a      	strb	r2, [r3, #24]
  hadc2.Init.ContinuousConvMode = DISABLE;
 8000680:	4b1e      	ldr	r3, [pc, #120]	; (80006fc <MX_ADC2_Init+0xbc>)
 8000682:	2200      	movs	r2, #0
 8000684:	765a      	strb	r2, [r3, #25]
  hadc2.Init.NbrOfConversion = 1;
 8000686:	4b1d      	ldr	r3, [pc, #116]	; (80006fc <MX_ADC2_Init+0xbc>)
 8000688:	2201      	movs	r2, #1
 800068a:	61da      	str	r2, [r3, #28]
  hadc2.Init.DiscontinuousConvMode = DISABLE;
 800068c:	4b1b      	ldr	r3, [pc, #108]	; (80006fc <MX_ADC2_Init+0xbc>)
 800068e:	2200      	movs	r2, #0
 8000690:	f883 2020 	strb.w	r2, [r3, #32]
  hadc2.Init.ExternalTrigConv = ADC_SOFTWARE_START;
 8000694:	4b19      	ldr	r3, [pc, #100]	; (80006fc <MX_ADC2_Init+0xbc>)
 8000696:	2200      	movs	r2, #0
 8000698:	629a      	str	r2, [r3, #40]	; 0x28
  hadc2.Init.ExternalTrigConvEdge = ADC_EXTERNALTRIGCONVEDGE_NONE;
 800069a:	4b18      	ldr	r3, [pc, #96]	; (80006fc <MX_ADC2_Init+0xbc>)
 800069c:	2200      	movs	r2, #0
 800069e:	62da      	str	r2, [r3, #44]	; 0x2c
  hadc2.Init.DMAContinuousRequests = DISABLE;
 80006a0:	4b16      	ldr	r3, [pc, #88]	; (80006fc <MX_ADC2_Init+0xbc>)
 80006a2:	2200      	movs	r2, #0
 80006a4:	f883 2030 	strb.w	r2, [r3, #48]	; 0x30
  hadc2.Init.Overrun = ADC_OVR_DATA_PRESERVED;
 80006a8:	4b14      	ldr	r3, [pc, #80]	; (80006fc <MX_ADC2_Init+0xbc>)
 80006aa:	2200      	movs	r2, #0
 80006ac:	635a      	str	r2, [r3, #52]	; 0x34
  hadc2.Init.OversamplingMode = DISABLE;
 80006ae:	4b13      	ldr	r3, [pc, #76]	; (80006fc <MX_ADC2_Init+0xbc>)
 80006b0:	2200      	movs	r2, #0
 80006b2:	f883 2038 	strb.w	r2, [r3, #56]	; 0x38
  if (HAL_ADC_Init(&hadc2) != HAL_OK)
 80006b6:	4811      	ldr	r0, [pc, #68]	; (80006fc <MX_ADC2_Init+0xbc>)
 80006b8:	f001 f92e 	bl	8001918 <HAL_ADC_Init>
 80006bc:	4603      	mov	r3, r0
 80006be:	2b00      	cmp	r3, #0
 80006c0:	d001      	beq.n	80006c6 <MX_ADC2_Init+0x86>
  {
    Error_Handler();
 80006c2:	f000 fb53 	bl	8000d6c <Error_Handler>
  }

  /** Configure Regular Channel
  */
  sConfig.Channel = ADC_CHANNEL_3;
 80006c6:	4b0f      	ldr	r3, [pc, #60]	; (8000704 <MX_ADC2_Init+0xc4>)
 80006c8:	603b      	str	r3, [r7, #0]
  sConfig.Rank = ADC_REGULAR_RANK_1;
 80006ca:	2306      	movs	r3, #6
 80006cc:	607b      	str	r3, [r7, #4]
  sConfig.SamplingTime = ADC_SAMPLETIME_2CYCLES_5;
 80006ce:	2300      	movs	r3, #0
 80006d0:	60bb      	str	r3, [r7, #8]
  sConfig.SingleDiff = ADC_SINGLE_ENDED;
 80006d2:	237f      	movs	r3, #127	; 0x7f
 80006d4:	60fb      	str	r3, [r7, #12]
  sConfig.OffsetNumber = ADC_OFFSET_NONE;
 80006d6:	2304      	movs	r3, #4
 80006d8:	613b      	str	r3, [r7, #16]
  sConfig.Offset = 0;
 80006da:	2300      	movs	r3, #0
 80006dc:	617b      	str	r3, [r7, #20]
  if (HAL_ADC_ConfigChannel(&hadc2, &sConfig) != HAL_OK)
 80006de:	463b      	mov	r3, r7
 80006e0:	4619      	mov	r1, r3
 80006e2:	4806      	ldr	r0, [pc, #24]	; (80006fc <MX_ADC2_Init+0xbc>)
 80006e4:	f001 fb48 	bl	8001d78 <HAL_ADC_ConfigChannel>
 80006e8:	4603      	mov	r3, r0
 80006ea:	2b00      	cmp	r3, #0
 80006ec:	d001      	beq.n	80006f2 <MX_ADC2_Init+0xb2>
  {
    Error_Handler();
 80006ee:	f000 fb3d 	bl	8000d6c <Error_Handler>
  }
  /* USER CODE BEGIN ADC2_Init 2 */

  /* USER CODE END ADC2_Init 2 */

}
 80006f2:	bf00      	nop
 80006f4:	3718      	adds	r7, #24
 80006f6:	46bd      	mov	sp, r7
 80006f8:	bd80      	pop	{r7, pc}
 80006fa:	bf00      	nop
 80006fc:	200001c0 	.word	0x200001c0
 8000700:	50040100 	.word	0x50040100
 8000704:	0c900008 	.word	0x0c900008

08000708 <MX_DAC1_Init>:
  * @brief DAC1 Initialization Function
  * @param None
  * @retval None
  */
static void MX_DAC1_Init(void)
{
 8000708:	b580      	push	{r7, lr}
 800070a:	b08a      	sub	sp, #40	; 0x28
 800070c:	af00      	add	r7, sp, #0

  /* USER CODE BEGIN DAC1_Init 0 */

  /* USER CODE END DAC1_Init 0 */

  DAC_ChannelConfTypeDef sConfig = {0};
 800070e:	1d3b      	adds	r3, r7, #4
 8000710:	2224      	movs	r2, #36	; 0x24
 8000712:	2100      	movs	r1, #0
 8000714:	4618      	mov	r0, r3
 8000716:	f006 fbff 	bl	8006f18 <memset>

  /* USER CODE END DAC1_Init 1 */

  /** DAC Initialization
  */
  hdac1.Instance = DAC1;
 800071a:	4b12      	ldr	r3, [pc, #72]	; (8000764 <MX_DAC1_Init+0x5c>)
 800071c:	4a12      	ldr	r2, [pc, #72]	; (8000768 <MX_DAC1_Init+0x60>)
 800071e:	601a      	str	r2, [r3, #0]
  if (HAL_DAC_Init(&hdac1) != HAL_OK)
 8000720:	4810      	ldr	r0, [pc, #64]	; (8000764 <MX_DAC1_Init+0x5c>)
 8000722:	f002 fa30 	bl	8002b86 <HAL_DAC_Init>
 8000726:	4603      	mov	r3, r0
 8000728:	2b00      	cmp	r3, #0
 800072a:	d001      	beq.n	8000730 <MX_DAC1_Init+0x28>
  {
    Error_Handler();
 800072c:	f000 fb1e 	bl	8000d6c <Error_Handler>
  }

  /** DAC channel OUT1 config
  */
  sConfig.DAC_SampleAndHold = DAC_SAMPLEANDHOLD_DISABLE;
 8000730:	2300      	movs	r3, #0
 8000732:	607b      	str	r3, [r7, #4]
  sConfig.DAC_Trigger = DAC_TRIGGER_T4_TRGO;
 8000734:	232c      	movs	r3, #44	; 0x2c
 8000736:	60bb      	str	r3, [r7, #8]
  sConfig.DAC_OutputBuffer = DAC_OUTPUTBUFFER_ENABLE;
 8000738:	2300      	movs	r3, #0
 800073a:	60fb      	str	r3, [r7, #12]
  sConfig.DAC_ConnectOnChipPeripheral = DAC_CHIPCONNECT_DISABLE;
 800073c:	2300      	movs	r3, #0
 800073e:	613b      	str	r3, [r7, #16]
  sConfig.DAC_UserTrimming = DAC_TRIMMING_FACTORY;
 8000740:	2300      	movs	r3, #0
 8000742:	617b      	str	r3, [r7, #20]
  if (HAL_DAC_ConfigChannel(&hdac1, &sConfig, DAC_CHANNEL_1) != HAL_OK)
 8000744:	1d3b      	adds	r3, r7, #4
 8000746:	2200      	movs	r2, #0
 8000748:	4619      	mov	r1, r3
 800074a:	4806      	ldr	r0, [pc, #24]	; (8000764 <MX_DAC1_Init+0x5c>)
 800074c:	f002 fb28 	bl	8002da0 <HAL_DAC_ConfigChannel>
 8000750:	4603      	mov	r3, r0
 8000752:	2b00      	cmp	r3, #0
 8000754:	d001      	beq.n	800075a <MX_DAC1_Init+0x52>
  {
    Error_Handler();
 8000756:	f000 fb09 	bl	8000d6c <Error_Handler>
  }
  /* USER CODE BEGIN DAC1_Init 2 */

  /* USER CODE END DAC1_Init 2 */

}
 800075a:	bf00      	nop
 800075c:	3728      	adds	r7, #40	; 0x28
 800075e:	46bd      	mov	sp, r7
 8000760:	bd80      	pop	{r7, pc}
 8000762:	bf00      	nop
 8000764:	2000026c 	.word	0x2000026c
 8000768:	40007400 	.word	0x40007400

0800076c <MX_TIM2_Init>:
  * @brief TIM2 Initialization Function
  * @param None
  * @retval None
  */
static void MX_TIM2_Init(void)
{
 800076c:	b580      	push	{r7, lr}
 800076e:	b08a      	sub	sp, #40	; 0x28
 8000770:	af00      	add	r7, sp, #0

  /* USER CODE BEGIN TIM2_Init 0 */

  /* USER CODE END TIM2_Init 0 */

  TIM_MasterConfigTypeDef sMasterConfig = {0};
 8000772:	f107 031c 	add.w	r3, r7, #28
 8000776:	2200      	movs	r2, #0
 8000778:	601a      	str	r2, [r3, #0]
 800077a:	605a      	str	r2, [r3, #4]
 800077c:	609a      	str	r2, [r3, #8]
  TIM_OC_InitTypeDef sConfigOC = {0};
 800077e:	463b      	mov	r3, r7
 8000780:	2200      	movs	r2, #0
 8000782:	601a      	str	r2, [r3, #0]
 8000784:	605a      	str	r2, [r3, #4]
 8000786:	609a      	str	r2, [r3, #8]
 8000788:	60da      	str	r2, [r3, #12]
 800078a:	611a      	str	r2, [r3, #16]
 800078c:	615a      	str	r2, [r3, #20]
 800078e:	619a      	str	r2, [r3, #24]

  /* USER CODE BEGIN TIM2_Init 1 */

  /* USER CODE END TIM2_Init 1 */
  htim2.Instance = TIM2;
 8000790:	4b22      	ldr	r3, [pc, #136]	; (800081c <MX_TIM2_Init+0xb0>)
 8000792:	f04f 4280 	mov.w	r2, #1073741824	; 0x40000000
 8000796:	601a      	str	r2, [r3, #0]
  htim2.Init.Prescaler = 199;
 8000798:	4b20      	ldr	r3, [pc, #128]	; (800081c <MX_TIM2_Init+0xb0>)
 800079a:	22c7      	movs	r2, #199	; 0xc7
 800079c:	605a      	str	r2, [r3, #4]
  htim2.Init.CounterMode = TIM_COUNTERMODE_UP;
 800079e:	4b1f      	ldr	r3, [pc, #124]	; (800081c <MX_TIM2_Init+0xb0>)
 80007a0:	2200      	movs	r2, #0
 80007a2:	609a      	str	r2, [r3, #8]
  htim2.Init.Period = 1999;
 80007a4:	4b1d      	ldr	r3, [pc, #116]	; (800081c <MX_TIM2_Init+0xb0>)
 80007a6:	f240 72cf 	movw	r2, #1999	; 0x7cf
 80007aa:	60da      	str	r2, [r3, #12]
  htim2.Init.ClockDivision = TIM_CLOCKDIVISION_DIV1;
 80007ac:	4b1b      	ldr	r3, [pc, #108]	; (800081c <MX_TIM2_Init+0xb0>)
 80007ae:	2200      	movs	r2, #0
 80007b0:	611a      	str	r2, [r3, #16]
  htim2.Init.AutoReloadPreload = TIM_AUTORELOAD_PRELOAD_DISABLE;
 80007b2:	4b1a      	ldr	r3, [pc, #104]	; (800081c <MX_TIM2_Init+0xb0>)
 80007b4:	2200      	movs	r2, #0
 80007b6:	619a      	str	r2, [r3, #24]
  if (HAL_TIM_PWM_Init(&htim2) != HAL_OK)
 80007b8:	4818      	ldr	r0, [pc, #96]	; (800081c <MX_TIM2_Init+0xb0>)
 80007ba:	f004 fd00 	bl	80051be <HAL_TIM_PWM_Init>
 80007be:	4603      	mov	r3, r0
 80007c0:	2b00      	cmp	r3, #0
 80007c2:	d001      	beq.n	80007c8 <MX_TIM2_Init+0x5c>
  {
    Error_Handler();
 80007c4:	f000 fad2 	bl	8000d6c <Error_Handler>
  }
  sMasterConfig.MasterOutputTrigger = TIM_TRGO_RESET;
 80007c8:	2300      	movs	r3, #0
 80007ca:	61fb      	str	r3, [r7, #28]
  sMasterConfig.MasterSlaveMode = TIM_MASTERSLAVEMODE_DISABLE;
 80007cc:	2300      	movs	r3, #0
 80007ce:	627b      	str	r3, [r7, #36]	; 0x24
  if (HAL_TIMEx_MasterConfigSynchronization(&htim2, &sMasterConfig) != HAL_OK)
 80007d0:	f107 031c 	add.w	r3, r7, #28
 80007d4:	4619      	mov	r1, r3
 80007d6:	4811      	ldr	r0, [pc, #68]	; (800081c <MX_TIM2_Init+0xb0>)
 80007d8:	f005 fe1e 	bl	8006418 <HAL_TIMEx_MasterConfigSynchronization>
 80007dc:	4603      	mov	r3, r0
 80007de:	2b00      	cmp	r3, #0
 80007e0:	d001      	beq.n	80007e6 <MX_TIM2_Init+0x7a>
  {
    Error_Handler();
 80007e2:	f000 fac3 	bl	8000d6c <Error_Handler>
  }
  sConfigOC.OCMode = TIM_OCMODE_PWM1;
 80007e6:	2360      	movs	r3, #96	; 0x60
 80007e8:	603b      	str	r3, [r7, #0]
  sConfigOC.Pulse = 0;
 80007ea:	2300      	movs	r3, #0
 80007ec:	607b      	str	r3, [r7, #4]
  sConfigOC.OCPolarity = TIM_OCPOLARITY_HIGH;
 80007ee:	2300      	movs	r3, #0
 80007f0:	60bb      	str	r3, [r7, #8]
  sConfigOC.OCFastMode = TIM_OCFAST_DISABLE;
 80007f2:	2300      	movs	r3, #0
 80007f4:	613b      	str	r3, [r7, #16]
  if (HAL_TIM_PWM_ConfigChannel(&htim2, &sConfigOC, TIM_CHANNEL_1) != HAL_OK)
 80007f6:	463b      	mov	r3, r7
 80007f8:	2200      	movs	r2, #0
 80007fa:	4619      	mov	r1, r3
 80007fc:	4807      	ldr	r0, [pc, #28]	; (800081c <MX_TIM2_Init+0xb0>)
 80007fe:	f004 ffd5 	bl	80057ac <HAL_TIM_PWM_ConfigChannel>
 8000802:	4603      	mov	r3, r0
 8000804:	2b00      	cmp	r3, #0
 8000806:	d001      	beq.n	800080c <MX_TIM2_Init+0xa0>
  {
    Error_Handler();
 8000808:	f000 fab0 	bl	8000d6c <Error_Handler>
  }
  /* USER CODE BEGIN TIM2_Init 2 */

  /* USER CODE END TIM2_Init 2 */
  HAL_TIM_MspPostInit(&htim2);
 800080c:	4803      	ldr	r0, [pc, #12]	; (800081c <MX_TIM2_Init+0xb0>)
 800080e:	f000 fc51 	bl	80010b4 <HAL_TIM_MspPostInit>

}
 8000812:	bf00      	nop
 8000814:	3728      	adds	r7, #40	; 0x28
 8000816:	46bd      	mov	sp, r7
 8000818:	bd80      	pop	{r7, pc}
 800081a:	bf00      	nop
 800081c:	200002c8 	.word	0x200002c8

08000820 <MX_TIM3_Init>:
  * @brief TIM3 Initialization Function
  * @param None
  * @retval None
  */
static void MX_TIM3_Init(void)
{
 8000820:	b580      	push	{r7, lr}
 8000822:	b08e      	sub	sp, #56	; 0x38
 8000824:	af00      	add	r7, sp, #0

  /* USER CODE BEGIN TIM3_Init 0 */

  /* USER CODE END TIM3_Init 0 */

  TIM_ClockConfigTypeDef sClockSourceConfig = {0};
 8000826:	f107 0328 	add.w	r3, r7, #40	; 0x28
 800082a:	2200      	movs	r2, #0
 800082c:	601a      	str	r2, [r3, #0]
 800082e:	605a      	str	r2, [r3, #4]
 8000830:	609a      	str	r2, [r3, #8]
 8000832:	60da      	str	r2, [r3, #12]
  TIM_MasterConfigTypeDef sMasterConfig = {0};
 8000834:	f107 031c 	add.w	r3, r7, #28
 8000838:	2200      	movs	r2, #0
 800083a:	601a      	str	r2, [r3, #0]
 800083c:	605a      	str	r2, [r3, #4]
 800083e:	609a      	str	r2, [r3, #8]
  TIM_OC_InitTypeDef sConfigOC = {0};
 8000840:	463b      	mov	r3, r7
 8000842:	2200      	movs	r2, #0
 8000844:	601a      	str	r2, [r3, #0]
 8000846:	605a      	str	r2, [r3, #4]
 8000848:	609a      	str	r2, [r3, #8]
 800084a:	60da      	str	r2, [r3, #12]
 800084c:	611a      	str	r2, [r3, #16]
 800084e:	615a      	str	r2, [r3, #20]
 8000850:	619a      	str	r2, [r3, #24]

  /* USER CODE BEGIN TIM3_Init 1 */

  /* USER CODE END TIM3_Init 1 */
  htim3.Instance = TIM3;
 8000852:	4b2d      	ldr	r3, [pc, #180]	; (8000908 <MX_TIM3_Init+0xe8>)
 8000854:	4a2d      	ldr	r2, [pc, #180]	; (800090c <MX_TIM3_Init+0xec>)
 8000856:	601a      	str	r2, [r3, #0]
  htim3.Init.Prescaler = 39999;
 8000858:	4b2b      	ldr	r3, [pc, #172]	; (8000908 <MX_TIM3_Init+0xe8>)
 800085a:	f649 423f 	movw	r2, #39999	; 0x9c3f
 800085e:	605a      	str	r2, [r3, #4]
  htim3.Init.CounterMode = TIM_COUNTERMODE_UP;
 8000860:	4b29      	ldr	r3, [pc, #164]	; (8000908 <MX_TIM3_Init+0xe8>)
 8000862:	2200      	movs	r2, #0
 8000864:	609a      	str	r2, [r3, #8]
  htim3.Init.Period = 199;
 8000866:	4b28      	ldr	r3, [pc, #160]	; (8000908 <MX_TIM3_Init+0xe8>)
 8000868:	22c7      	movs	r2, #199	; 0xc7
 800086a:	60da      	str	r2, [r3, #12]
  htim3.Init.ClockDivision = TIM_CLOCKDIVISION_DIV1;
 800086c:	4b26      	ldr	r3, [pc, #152]	; (8000908 <MX_TIM3_Init+0xe8>)
 800086e:	2200      	movs	r2, #0
 8000870:	611a      	str	r2, [r3, #16]
  htim3.Init.AutoReloadPreload = TIM_AUTORELOAD_PRELOAD_DISABLE;
 8000872:	4b25      	ldr	r3, [pc, #148]	; (8000908 <MX_TIM3_Init+0xe8>)
 8000874:	2200      	movs	r2, #0
 8000876:	619a      	str	r2, [r3, #24]
  if (HAL_TIM_Base_Init(&htim3) != HAL_OK)
 8000878:	4823      	ldr	r0, [pc, #140]	; (8000908 <MX_TIM3_Init+0xe8>)
 800087a:	f004 fb0f 	bl	8004e9c <HAL_TIM_Base_Init>
 800087e:	4603      	mov	r3, r0
 8000880:	2b00      	cmp	r3, #0
 8000882:	d001      	beq.n	8000888 <MX_TIM3_Init+0x68>
  {
    Error_Handler();
 8000884:	f000 fa72 	bl	8000d6c <Error_Handler>
  }
  sClockSourceConfig.ClockSource = TIM_CLOCKSOURCE_INTERNAL;
 8000888:	f44f 5380 	mov.w	r3, #4096	; 0x1000
 800088c:	62bb      	str	r3, [r7, #40]	; 0x28
  if (HAL_TIM_ConfigClockSource(&htim3, &sClockSourceConfig) != HAL_OK)
 800088e:	f107 0328 	add.w	r3, r7, #40	; 0x28
 8000892:	4619      	mov	r1, r3
 8000894:	481c      	ldr	r0, [pc, #112]	; (8000908 <MX_TIM3_Init+0xe8>)
 8000896:	f005 f89d 	bl	80059d4 <HAL_TIM_ConfigClockSource>
 800089a:	4603      	mov	r3, r0
 800089c:	2b00      	cmp	r3, #0
 800089e:	d001      	beq.n	80008a4 <MX_TIM3_Init+0x84>
  {
    Error_Handler();
 80008a0:	f000 fa64 	bl	8000d6c <Error_Handler>
  }
  if (HAL_TIM_OC_Init(&htim3) != HAL_OK)
 80008a4:	4818      	ldr	r0, [pc, #96]	; (8000908 <MX_TIM3_Init+0xe8>)
 80008a6:	f004 fc29 	bl	80050fc <HAL_TIM_OC_Init>
 80008aa:	4603      	mov	r3, r0
 80008ac:	2b00      	cmp	r3, #0
 80008ae:	d001      	beq.n	80008b4 <MX_TIM3_Init+0x94>
  {
    Error_Handler();
 80008b0:	f000 fa5c 	bl	8000d6c <Error_Handler>
  }
  sMasterConfig.MasterOutputTrigger = TIM_TRGO_RESET;
 80008b4:	2300      	movs	r3, #0
 80008b6:	61fb      	str	r3, [r7, #28]
  sMasterConfig.MasterSlaveMode = TIM_MASTERSLAVEMODE_DISABLE;
 80008b8:	2300      	movs	r3, #0
 80008ba:	627b      	str	r3, [r7, #36]	; 0x24
  if (HAL_TIMEx_MasterConfigSynchronization(&htim3, &sMasterConfig) != HAL_OK)
 80008bc:	f107 031c 	add.w	r3, r7, #28
 80008c0:	4619      	mov	r1, r3
 80008c2:	4811      	ldr	r0, [pc, #68]	; (8000908 <MX_TIM3_Init+0xe8>)
 80008c4:	f005 fda8 	bl	8006418 <HAL_TIMEx_MasterConfigSynchronization>
 80008c8:	4603      	mov	r3, r0
 80008ca:	2b00      	cmp	r3, #0
 80008cc:	d001      	beq.n	80008d2 <MX_TIM3_Init+0xb2>
  {
    Error_Handler();
 80008ce:	f000 fa4d 	bl	8000d6c <Error_Handler>
  }
  sConfigOC.OCMode = TIM_OCMODE_TIMING;
 80008d2:	2300      	movs	r3, #0
 80008d4:	603b      	str	r3, [r7, #0]
  sConfigOC.Pulse = 0;
 80008d6:	2300      	movs	r3, #0
 80008d8:	607b      	str	r3, [r7, #4]
  sConfigOC.OCPolarity = TIM_OCPOLARITY_HIGH;
 80008da:	2300      	movs	r3, #0
 80008dc:	60bb      	str	r3, [r7, #8]
  sConfigOC.OCFastMode = TIM_OCFAST_DISABLE;
 80008de:	2300      	movs	r3, #0
 80008e0:	613b      	str	r3, [r7, #16]
  if (HAL_TIM_OC_ConfigChannel(&htim3, &sConfigOC, TIM_CHANNEL_1) != HAL_OK)
 80008e2:	463b      	mov	r3, r7
 80008e4:	2200      	movs	r2, #0
 80008e6:	4619      	mov	r1, r3
 80008e8:	4807      	ldr	r0, [pc, #28]	; (8000908 <MX_TIM3_Init+0xe8>)
 80008ea:	f004 fee5 	bl	80056b8 <HAL_TIM_OC_ConfigChannel>
 80008ee:	4603      	mov	r3, r0
 80008f0:	2b00      	cmp	r3, #0
 80008f2:	d001      	beq.n	80008f8 <MX_TIM3_Init+0xd8>
  {
    Error_Handler();
 80008f4:	f000 fa3a 	bl	8000d6c <Error_Handler>
  }
  /* USER CODE BEGIN TIM3_Init 2 */

  /* USER CODE END TIM3_Init 2 */
  HAL_TIM_MspPostInit(&htim3);
 80008f8:	4803      	ldr	r0, [pc, #12]	; (8000908 <MX_TIM3_Init+0xe8>)
 80008fa:	f000 fbdb 	bl	80010b4 <HAL_TIM_MspPostInit>

}
 80008fe:	bf00      	nop
 8000900:	3738      	adds	r7, #56	; 0x38
 8000902:	46bd      	mov	sp, r7
 8000904:	bd80      	pop	{r7, pc}
 8000906:	bf00      	nop
 8000908:	20000314 	.word	0x20000314
 800090c:	40000400 	.word	0x40000400

08000910 <MX_TIM4_Init>:
  * @brief TIM4 Initialization Function
  * @param None
  * @retval None
  */
static void MX_TIM4_Init(void)
{
 8000910:	b580      	push	{r7, lr}
 8000912:	b08e      	sub	sp, #56	; 0x38
 8000914:	af00      	add	r7, sp, #0

  /* USER CODE BEGIN TIM4_Init 0 */

  /* USER CODE END TIM4_Init 0 */

  TIM_ClockConfigTypeDef sClockSourceConfig = {0};
 8000916:	f107 0328 	add.w	r3, r7, #40	; 0x28
 800091a:	2200      	movs	r2, #0
 800091c:	601a      	str	r2, [r3, #0]
 800091e:	605a      	str	r2, [r3, #4]
 8000920:	609a      	str	r2, [r3, #8]
 8000922:	60da      	str	r2, [r3, #12]
  TIM_MasterConfigTypeDef sMasterConfig = {0};
 8000924:	f107 031c 	add.w	r3, r7, #28
 8000928:	2200      	movs	r2, #0
 800092a:	601a      	str	r2, [r3, #0]
 800092c:	605a      	str	r2, [r3, #4]
 800092e:	609a      	str	r2, [r3, #8]
  TIM_OC_InitTypeDef sConfigOC = {0};
 8000930:	463b      	mov	r3, r7
 8000932:	2200      	movs	r2, #0
 8000934:	601a      	str	r2, [r3, #0]
 8000936:	605a      	str	r2, [r3, #4]
 8000938:	609a      	str	r2, [r3, #8]
 800093a:	60da      	str	r2, [r3, #12]
 800093c:	611a      	str	r2, [r3, #16]
 800093e:	615a      	str	r2, [r3, #20]
 8000940:	619a      	str	r2, [r3, #24]

  /* USER CODE BEGIN TIM4_Init 1 */

  /* USER CODE END TIM4_Init 1 */
  htim4.Instance = TIM4;
 8000942:	4b2c      	ldr	r3, [pc, #176]	; (80009f4 <MX_TIM4_Init+0xe4>)
 8000944:	4a2c      	ldr	r2, [pc, #176]	; (80009f8 <MX_TIM4_Init+0xe8>)
 8000946:	601a      	str	r2, [r3, #0]
  htim4.Init.Prescaler = 79;
 8000948:	4b2a      	ldr	r3, [pc, #168]	; (80009f4 <MX_TIM4_Init+0xe4>)
 800094a:	224f      	movs	r2, #79	; 0x4f
 800094c:	605a      	str	r2, [r3, #4]
  htim4.Init.CounterMode = TIM_COUNTERMODE_UP;
 800094e:	4b29      	ldr	r3, [pc, #164]	; (80009f4 <MX_TIM4_Init+0xe4>)
 8000950:	2200      	movs	r2, #0
 8000952:	609a      	str	r2, [r3, #8]
  htim4.Init.Period = 9;
 8000954:	4b27      	ldr	r3, [pc, #156]	; (80009f4 <MX_TIM4_Init+0xe4>)
 8000956:	2209      	movs	r2, #9
 8000958:	60da      	str	r2, [r3, #12]
  htim4.Init.ClockDivision = TIM_CLOCKDIVISION_DIV1;
 800095a:	4b26      	ldr	r3, [pc, #152]	; (80009f4 <MX_TIM4_Init+0xe4>)
 800095c:	2200      	movs	r2, #0
 800095e:	611a      	str	r2, [r3, #16]
  htim4.Init.AutoReloadPreload = TIM_AUTORELOAD_PRELOAD_DISABLE;
 8000960:	4b24      	ldr	r3, [pc, #144]	; (80009f4 <MX_TIM4_Init+0xe4>)
 8000962:	2200      	movs	r2, #0
 8000964:	619a      	str	r2, [r3, #24]
  if (HAL_TIM_Base_Init(&htim4) != HAL_OK)
 8000966:	4823      	ldr	r0, [pc, #140]	; (80009f4 <MX_TIM4_Init+0xe4>)
 8000968:	f004 fa98 	bl	8004e9c <HAL_TIM_Base_Init>
 800096c:	4603      	mov	r3, r0
 800096e:	2b00      	cmp	r3, #0
 8000970:	d001      	beq.n	8000976 <MX_TIM4_Init+0x66>
  {
    Error_Handler();
 8000972:	f000 f9fb 	bl	8000d6c <Error_Handler>
  }
  sClockSourceConfig.ClockSource = TIM_CLOCKSOURCE_INTERNAL;
 8000976:	f44f 5380 	mov.w	r3, #4096	; 0x1000
 800097a:	62bb      	str	r3, [r7, #40]	; 0x28
  if (HAL_TIM_ConfigClockSource(&htim4, &sClockSourceConfig) != HAL_OK)
 800097c:	f107 0328 	add.w	r3, r7, #40	; 0x28
 8000980:	4619      	mov	r1, r3
 8000982:	481c      	ldr	r0, [pc, #112]	; (80009f4 <MX_TIM4_Init+0xe4>)
 8000984:	f005 f826 	bl	80059d4 <HAL_TIM_ConfigClockSource>
 8000988:	4603      	mov	r3, r0
 800098a:	2b00      	cmp	r3, #0
 800098c:	d001      	beq.n	8000992 <MX_TIM4_Init+0x82>
  {
    Error_Handler();
 800098e:	f000 f9ed 	bl	8000d6c <Error_Handler>
  }
  if (HAL_TIM_OC_Init(&htim4) != HAL_OK)
 8000992:	4818      	ldr	r0, [pc, #96]	; (80009f4 <MX_TIM4_Init+0xe4>)
 8000994:	f004 fbb2 	bl	80050fc <HAL_TIM_OC_Init>
 8000998:	4603      	mov	r3, r0
 800099a:	2b00      	cmp	r3, #0
 800099c:	d001      	beq.n	80009a2 <MX_TIM4_Init+0x92>
  {
    Error_Handler();
 800099e:	f000 f9e5 	bl	8000d6c <Error_Handler>
  }
  sMasterConfig.MasterOutputTrigger = TIM_TRGO_UPDATE;
 80009a2:	2320      	movs	r3, #32
 80009a4:	61fb      	str	r3, [r7, #28]
  sMasterConfig.MasterSlaveMode = TIM_MASTERSLAVEMODE_DISABLE;
 80009a6:	2300      	movs	r3, #0
 80009a8:	627b      	str	r3, [r7, #36]	; 0x24
  if (HAL_TIMEx_MasterConfigSynchronization(&htim4, &sMasterConfig) != HAL_OK)
 80009aa:	f107 031c 	add.w	r3, r7, #28
 80009ae:	4619      	mov	r1, r3
 80009b0:	4810      	ldr	r0, [pc, #64]	; (80009f4 <MX_TIM4_Init+0xe4>)
 80009b2:	f005 fd31 	bl	8006418 <HAL_TIMEx_MasterConfigSynchronization>
 80009b6:	4603      	mov	r3, r0
 80009b8:	2b00      	cmp	r3, #0
 80009ba:	d001      	beq.n	80009c0 <MX_TIM4_Init+0xb0>
  {
    Error_Handler();
 80009bc:	f000 f9d6 	bl	8000d6c <Error_Handler>
  }
  sConfigOC.OCMode = TIM_OCMODE_TIMING;
 80009c0:	2300      	movs	r3, #0
 80009c2:	603b      	str	r3, [r7, #0]
  sConfigOC.Pulse = 0;
 80009c4:	2300      	movs	r3, #0
 80009c6:	607b      	str	r3, [r7, #4]
  sConfigOC.OCPolarity = TIM_OCPOLARITY_HIGH;
 80009c8:	2300      	movs	r3, #0
 80009ca:	60bb      	str	r3, [r7, #8]
  sConfigOC.OCFastMode = TIM_OCFAST_DISABLE;
 80009cc:	2300      	movs	r3, #0
 80009ce:	613b      	str	r3, [r7, #16]
  if (HAL_TIM_OC_ConfigChannel(&htim4, &sConfigOC, TIM_CHANNEL_1) != HAL_OK)
 80009d0:	463b      	mov	r3, r7
 80009d2:	2200      	movs	r2, #0
 80009d4:	4619      	mov	r1, r3
 80009d6:	4807      	ldr	r0, [pc, #28]	; (80009f4 <MX_TIM4_Init+0xe4>)
 80009d8:	f004 fe6e 	bl	80056b8 <HAL_TIM_OC_ConfigChannel>
 80009dc:	4603      	mov	r3, r0
 80009de:	2b00      	cmp	r3, #0
 80009e0:	d001      	beq.n	80009e6 <MX_TIM4_Init+0xd6>
  {
    Error_Handler();
 80009e2:	f000 f9c3 	bl	8000d6c <Error_Handler>
  }
  /* USER CODE BEGIN TIM4_Init 2 */

  /* USER CODE END TIM4_Init 2 */
  HAL_TIM_MspPostInit(&htim4);
 80009e6:	4803      	ldr	r0, [pc, #12]	; (80009f4 <MX_TIM4_Init+0xe4>)
 80009e8:	f000 fb64 	bl	80010b4 <HAL_TIM_MspPostInit>

}
 80009ec:	bf00      	nop
 80009ee:	3738      	adds	r7, #56	; 0x38
 80009f0:	46bd      	mov	sp, r7
 80009f2:	bd80      	pop	{r7, pc}
 80009f4:	20000360 	.word	0x20000360
 80009f8:	40000800 	.word	0x40000800

080009fc <MX_TIM5_Init>:
  * @brief TIM5 Initialization Function
  * @param None
  * @retval None
  */
static void MX_TIM5_Init(void)
{
 80009fc:	b580      	push	{r7, lr}
 80009fe:	b08e      	sub	sp, #56	; 0x38
 8000a00:	af00      	add	r7, sp, #0

  /* USER CODE BEGIN TIM5_Init 0 */

  /* USER CODE END TIM5_Init 0 */

  TIM_ClockConfigTypeDef sClockSourceConfig = {0};
 8000a02:	f107 0328 	add.w	r3, r7, #40	; 0x28
 8000a06:	2200      	movs	r2, #0
 8000a08:	601a      	str	r2, [r3, #0]
 8000a0a:	605a      	str	r2, [r3, #4]
 8000a0c:	609a      	str	r2, [r3, #8]
 8000a0e:	60da      	str	r2, [r3, #12]
  TIM_MasterConfigTypeDef sMasterConfig = {0};
 8000a10:	f107 031c 	add.w	r3, r7, #28
 8000a14:	2200      	movs	r2, #0
 8000a16:	601a      	str	r2, [r3, #0]
 8000a18:	605a      	str	r2, [r3, #4]
 8000a1a:	609a      	str	r2, [r3, #8]
  TIM_OC_InitTypeDef sConfigOC = {0};
 8000a1c:	463b      	mov	r3, r7
 8000a1e:	2200      	movs	r2, #0
 8000a20:	601a      	str	r2, [r3, #0]
 8000a22:	605a      	str	r2, [r3, #4]
 8000a24:	609a      	str	r2, [r3, #8]
 8000a26:	60da      	str	r2, [r3, #12]
 8000a28:	611a      	str	r2, [r3, #16]
 8000a2a:	615a      	str	r2, [r3, #20]
 8000a2c:	619a      	str	r2, [r3, #24]

  /* USER CODE BEGIN TIM5_Init 1 */

  /* USER CODE END TIM5_Init 1 */
  htim5.Instance = TIM5;
 8000a2e:	4b2c      	ldr	r3, [pc, #176]	; (8000ae0 <MX_TIM5_Init+0xe4>)
 8000a30:	4a2c      	ldr	r2, [pc, #176]	; (8000ae4 <MX_TIM5_Init+0xe8>)
 8000a32:	601a      	str	r2, [r3, #0]
  htim5.Init.Prescaler = 79;
 8000a34:	4b2a      	ldr	r3, [pc, #168]	; (8000ae0 <MX_TIM5_Init+0xe4>)
 8000a36:	224f      	movs	r2, #79	; 0x4f
 8000a38:	605a      	str	r2, [r3, #4]
  htim5.Init.CounterMode = TIM_COUNTERMODE_UP;
 8000a3a:	4b29      	ldr	r3, [pc, #164]	; (8000ae0 <MX_TIM5_Init+0xe4>)
 8000a3c:	2200      	movs	r2, #0
 8000a3e:	609a      	str	r2, [r3, #8]
  htim5.Init.Period = 9;
 8000a40:	4b27      	ldr	r3, [pc, #156]	; (8000ae0 <MX_TIM5_Init+0xe4>)
 8000a42:	2209      	movs	r2, #9
 8000a44:	60da      	str	r2, [r3, #12]
  htim5.Init.ClockDivision = TIM_CLOCKDIVISION_DIV1;
 8000a46:	4b26      	ldr	r3, [pc, #152]	; (8000ae0 <MX_TIM5_Init+0xe4>)
 8000a48:	2200      	movs	r2, #0
 8000a4a:	611a      	str	r2, [r3, #16]
  htim5.Init.AutoReloadPreload = TIM_AUTORELOAD_PRELOAD_DISABLE;
 8000a4c:	4b24      	ldr	r3, [pc, #144]	; (8000ae0 <MX_TIM5_Init+0xe4>)
 8000a4e:	2200      	movs	r2, #0
 8000a50:	619a      	str	r2, [r3, #24]
  if (HAL_TIM_Base_Init(&htim5) != HAL_OK)
 8000a52:	4823      	ldr	r0, [pc, #140]	; (8000ae0 <MX_TIM5_Init+0xe4>)
 8000a54:	f004 fa22 	bl	8004e9c <HAL_TIM_Base_Init>
 8000a58:	4603      	mov	r3, r0
 8000a5a:	2b00      	cmp	r3, #0
 8000a5c:	d001      	beq.n	8000a62 <MX_TIM5_Init+0x66>
  {
    Error_Handler();
 8000a5e:	f000 f985 	bl	8000d6c <Error_Handler>
  }
  sClockSourceConfig.ClockSource = TIM_CLOCKSOURCE_INTERNAL;
 8000a62:	f44f 5380 	mov.w	r3, #4096	; 0x1000
 8000a66:	62bb      	str	r3, [r7, #40]	; 0x28
  if (HAL_TIM_ConfigClockSource(&htim5, &sClockSourceConfig) != HAL_OK)
 8000a68:	f107 0328 	add.w	r3, r7, #40	; 0x28
 8000a6c:	4619      	mov	r1, r3
 8000a6e:	481c      	ldr	r0, [pc, #112]	; (8000ae0 <MX_TIM5_Init+0xe4>)
 8000a70:	f004 ffb0 	bl	80059d4 <HAL_TIM_ConfigClockSource>
 8000a74:	4603      	mov	r3, r0
 8000a76:	2b00      	cmp	r3, #0
 8000a78:	d001      	beq.n	8000a7e <MX_TIM5_Init+0x82>
  {
    Error_Handler();
 8000a7a:	f000 f977 	bl	8000d6c <Error_Handler>
  }
  if (HAL_TIM_OC_Init(&htim5) != HAL_OK)
 8000a7e:	4818      	ldr	r0, [pc, #96]	; (8000ae0 <MX_TIM5_Init+0xe4>)
 8000a80:	f004 fb3c 	bl	80050fc <HAL_TIM_OC_Init>
 8000a84:	4603      	mov	r3, r0
 8000a86:	2b00      	cmp	r3, #0
 8000a88:	d001      	beq.n	8000a8e <MX_TIM5_Init+0x92>
  {
    Error_Handler();
 8000a8a:	f000 f96f 	bl	8000d6c <Error_Handler>
  }
  sMasterConfig.MasterOutputTrigger = TIM_TRGO_RESET;
 8000a8e:	2300      	movs	r3, #0
 8000a90:	61fb      	str	r3, [r7, #28]
  sMasterConfig.MasterSlaveMode = TIM_MASTERSLAVEMODE_DISABLE;
 8000a92:	2300      	movs	r3, #0
 8000a94:	627b      	str	r3, [r7, #36]	; 0x24
  if (HAL_TIMEx_MasterConfigSynchronization(&htim5, &sMasterConfig) != HAL_OK)
 8000a96:	f107 031c 	add.w	r3, r7, #28
 8000a9a:	4619      	mov	r1, r3
 8000a9c:	4810      	ldr	r0, [pc, #64]	; (8000ae0 <MX_TIM5_Init+0xe4>)
 8000a9e:	f005 fcbb 	bl	8006418 <HAL_TIMEx_MasterConfigSynchronization>
 8000aa2:	4603      	mov	r3, r0
 8000aa4:	2b00      	cmp	r3, #0
 8000aa6:	d001      	beq.n	8000aac <MX_TIM5_Init+0xb0>
  {
    Error_Handler();
 8000aa8:	f000 f960 	bl	8000d6c <Error_Handler>
  }
  sConfigOC.OCMode = TIM_OCMODE_TIMING;
 8000aac:	2300      	movs	r3, #0
 8000aae:	603b      	str	r3, [r7, #0]
  sConfigOC.Pulse = 0;
 8000ab0:	2300      	movs	r3, #0
 8000ab2:	607b      	str	r3, [r7, #4]
  sConfigOC.OCPolarity = TIM_OCPOLARITY_HIGH;
 8000ab4:	2300      	movs	r3, #0
 8000ab6:	60bb      	str	r3, [r7, #8]
  sConfigOC.OCFastMode = TIM_OCFAST_DISABLE;
 8000ab8:	2300      	movs	r3, #0
 8000aba:	613b      	str	r3, [r7, #16]
  if (HAL_TIM_OC_ConfigChannel(&htim5, &sConfigOC, TIM_CHANNEL_1) != HAL_OK)
 8000abc:	463b      	mov	r3, r7
 8000abe:	2200      	movs	r2, #0
 8000ac0:	4619      	mov	r1, r3
 8000ac2:	4807      	ldr	r0, [pc, #28]	; (8000ae0 <MX_TIM5_Init+0xe4>)
 8000ac4:	f004 fdf8 	bl	80056b8 <HAL_TIM_OC_ConfigChannel>
 8000ac8:	4603      	mov	r3, r0
 8000aca:	2b00      	cmp	r3, #0
 8000acc:	d001      	beq.n	8000ad2 <MX_TIM5_Init+0xd6>
  {
    Error_Handler();
 8000ace:	f000 f94d 	bl	8000d6c <Error_Handler>
  }
  /* USER CODE BEGIN TIM5_Init 2 */

  /* USER CODE END TIM5_Init 2 */
  HAL_TIM_MspPostInit(&htim5);
 8000ad2:	4803      	ldr	r0, [pc, #12]	; (8000ae0 <MX_TIM5_Init+0xe4>)
 8000ad4:	f000 faee 	bl	80010b4 <HAL_TIM_MspPostInit>

}
 8000ad8:	bf00      	nop
 8000ada:	3738      	adds	r7, #56	; 0x38
 8000adc:	46bd      	mov	sp, r7
 8000ade:	bd80      	pop	{r7, pc}
 8000ae0:	200003ac 	.word	0x200003ac
 8000ae4:	40000c00 	.word	0x40000c00

08000ae8 <MX_USART2_UART_Init>:
  * @brief USART2 Initialization Function
  * @param None
  * @retval None
  */
static void MX_USART2_UART_Init(void)
{
 8000ae8:	b580      	push	{r7, lr}
 8000aea:	af00      	add	r7, sp, #0
  /* USER CODE END USART2_Init 0 */

  /* USER CODE BEGIN USART2_Init 1 */

  /* USER CODE END USART2_Init 1 */
  huart2.Instance = USART2;
 8000aec:	4b14      	ldr	r3, [pc, #80]	; (8000b40 <MX_USART2_UART_Init+0x58>)
 8000aee:	4a15      	ldr	r2, [pc, #84]	; (8000b44 <MX_USART2_UART_Init+0x5c>)
 8000af0:	601a      	str	r2, [r3, #0]
  huart2.Init.BaudRate = 115200;
 8000af2:	4b13      	ldr	r3, [pc, #76]	; (8000b40 <MX_USART2_UART_Init+0x58>)
 8000af4:	f44f 32e1 	mov.w	r2, #115200	; 0x1c200
 8000af8:	605a      	str	r2, [r3, #4]
  huart2.Init.WordLength = UART_WORDLENGTH_8B;
 8000afa:	4b11      	ldr	r3, [pc, #68]	; (8000b40 <MX_USART2_UART_Init+0x58>)
 8000afc:	2200      	movs	r2, #0
 8000afe:	609a      	str	r2, [r3, #8]
  huart2.Init.StopBits = UART_STOPBITS_1;
 8000b00:	4b0f      	ldr	r3, [pc, #60]	; (8000b40 <MX_USART2_UART_Init+0x58>)
 8000b02:	2200      	movs	r2, #0
 8000b04:	60da      	str	r2, [r3, #12]
  huart2.Init.Parity = UART_PARITY_NONE;
 8000b06:	4b0e      	ldr	r3, [pc, #56]	; (8000b40 <MX_USART2_UART_Init+0x58>)
 8000b08:	2200      	movs	r2, #0
 8000b0a:	611a      	str	r2, [r3, #16]
  huart2.Init.Mode = UART_MODE_TX_RX;
 8000b0c:	4b0c      	ldr	r3, [pc, #48]	; (8000b40 <MX_USART2_UART_Init+0x58>)
 8000b0e:	220c      	movs	r2, #12
 8000b10:	615a      	str	r2, [r3, #20]
  huart2.Init.HwFlowCtl = UART_HWCONTROL_NONE;
 8000b12:	4b0b      	ldr	r3, [pc, #44]	; (8000b40 <MX_USART2_UART_Init+0x58>)
 8000b14:	2200      	movs	r2, #0
 8000b16:	619a      	str	r2, [r3, #24]
  huart2.Init.OverSampling = UART_OVERSAMPLING_16;
 8000b18:	4b09      	ldr	r3, [pc, #36]	; (8000b40 <MX_USART2_UART_Init+0x58>)
 8000b1a:	2200      	movs	r2, #0
 8000b1c:	61da      	str	r2, [r3, #28]
  huart2.Init.OneBitSampling = UART_ONE_BIT_SAMPLE_DISABLE;
 8000b1e:	4b08      	ldr	r3, [pc, #32]	; (8000b40 <MX_USART2_UART_Init+0x58>)
 8000b20:	2200      	movs	r2, #0
 8000b22:	621a      	str	r2, [r3, #32]
  huart2.AdvancedInit.AdvFeatureInit = UART_ADVFEATURE_NO_INIT;
 8000b24:	4b06      	ldr	r3, [pc, #24]	; (8000b40 <MX_USART2_UART_Init+0x58>)
 8000b26:	2200      	movs	r2, #0
 8000b28:	625a      	str	r2, [r3, #36]	; 0x24
  if (HAL_UART_Init(&huart2) != HAL_OK)
 8000b2a:	4805      	ldr	r0, [pc, #20]	; (8000b40 <MX_USART2_UART_Init+0x58>)
 8000b2c:	f005 fd1a 	bl	8006564 <HAL_UART_Init>
 8000b30:	4603      	mov	r3, r0
 8000b32:	2b00      	cmp	r3, #0
 8000b34:	d001      	beq.n	8000b3a <MX_USART2_UART_Init+0x52>
  {
    Error_Handler();
 8000b36:	f000 f919 	bl	8000d6c <Error_Handler>
  }
  /* USER CODE BEGIN USART2_Init 2 */

  /* USER CODE END USART2_Init 2 */

}
 8000b3a:	bf00      	nop
 8000b3c:	bd80      	pop	{r7, pc}
 8000b3e:	bf00      	nop
 8000b40:	200003f8 	.word	0x200003f8
 8000b44:	40004400 	.word	0x40004400

08000b48 <MX_DMA_Init>:

/**
  * Enable DMA controller clock
  */
static void MX_DMA_Init(void)
{
 8000b48:	b580      	push	{r7, lr}
 8000b4a:	b082      	sub	sp, #8
 8000b4c:	af00      	add	r7, sp, #0

  /* DMA controller clock enable */
  __HAL_RCC_DMA1_CLK_ENABLE();
 8000b4e:	4b10      	ldr	r3, [pc, #64]	; (8000b90 <MX_DMA_Init+0x48>)
 8000b50:	6c9b      	ldr	r3, [r3, #72]	; 0x48
 8000b52:	4a0f      	ldr	r2, [pc, #60]	; (8000b90 <MX_DMA_Init+0x48>)
 8000b54:	f043 0301 	orr.w	r3, r3, #1
 8000b58:	6493      	str	r3, [r2, #72]	; 0x48
 8000b5a:	4b0d      	ldr	r3, [pc, #52]	; (8000b90 <MX_DMA_Init+0x48>)
 8000b5c:	6c9b      	ldr	r3, [r3, #72]	; 0x48
 8000b5e:	f003 0301 	and.w	r3, r3, #1
 8000b62:	607b      	str	r3, [r7, #4]
 8000b64:	687b      	ldr	r3, [r7, #4]

  /* DMA interrupt init */
  /* DMA1_Channel2_IRQn interrupt configuration */
  HAL_NVIC_SetPriority(DMA1_Channel2_IRQn, 0, 0);
 8000b66:	2200      	movs	r2, #0
 8000b68:	2100      	movs	r1, #0
 8000b6a:	200c      	movs	r0, #12
 8000b6c:	f001 ffd5 	bl	8002b1a <HAL_NVIC_SetPriority>
  HAL_NVIC_EnableIRQ(DMA1_Channel2_IRQn);
 8000b70:	200c      	movs	r0, #12
 8000b72:	f001 ffee 	bl	8002b52 <HAL_NVIC_EnableIRQ>
  /* DMA1_Channel3_IRQn interrupt configuration */
  HAL_NVIC_SetPriority(DMA1_Channel3_IRQn, 0, 0);
 8000b76:	2200      	movs	r2, #0
 8000b78:	2100      	movs	r1, #0
 8000b7a:	200d      	movs	r0, #13
 8000b7c:	f001 ffcd 	bl	8002b1a <HAL_NVIC_SetPriority>
  HAL_NVIC_EnableIRQ(DMA1_Channel3_IRQn);
 8000b80:	200d      	movs	r0, #13
 8000b82:	f001 ffe6 	bl	8002b52 <HAL_NVIC_EnableIRQ>

}
 8000b86:	bf00      	nop
 8000b88:	3708      	adds	r7, #8
 8000b8a:	46bd      	mov	sp, r7
 8000b8c:	bd80      	pop	{r7, pc}
 8000b8e:	bf00      	nop
 8000b90:	40021000 	.word	0x40021000

08000b94 <MX_GPIO_Init>:
  * @brief GPIO Initialization Function
  * @param None
  * @retval None
  */
static void MX_GPIO_Init(void)
{
 8000b94:	b580      	push	{r7, lr}
 8000b96:	b08a      	sub	sp, #40	; 0x28
 8000b98:	af00      	add	r7, sp, #0
  GPIO_InitTypeDef GPIO_InitStruct = {0};
 8000b9a:	f107 0314 	add.w	r3, r7, #20
 8000b9e:	2200      	movs	r2, #0
 8000ba0:	601a      	str	r2, [r3, #0]
 8000ba2:	605a      	str	r2, [r3, #4]
 8000ba4:	609a      	str	r2, [r3, #8]
 8000ba6:	60da      	str	r2, [r3, #12]
 8000ba8:	611a      	str	r2, [r3, #16]

  /* GPIO Ports Clock Enable */
  __HAL_RCC_GPIOC_CLK_ENABLE();
 8000baa:	4b25      	ldr	r3, [pc, #148]	; (8000c40 <MX_GPIO_Init+0xac>)
 8000bac:	6cdb      	ldr	r3, [r3, #76]	; 0x4c
 8000bae:	4a24      	ldr	r2, [pc, #144]	; (8000c40 <MX_GPIO_Init+0xac>)
 8000bb0:	f043 0304 	orr.w	r3, r3, #4
 8000bb4:	64d3      	str	r3, [r2, #76]	; 0x4c
 8000bb6:	4b22      	ldr	r3, [pc, #136]	; (8000c40 <MX_GPIO_Init+0xac>)
 8000bb8:	6cdb      	ldr	r3, [r3, #76]	; 0x4c
 8000bba:	f003 0304 	and.w	r3, r3, #4
 8000bbe:	613b      	str	r3, [r7, #16]
 8000bc0:	693b      	ldr	r3, [r7, #16]
  __HAL_RCC_GPIOH_CLK_ENABLE();
 8000bc2:	4b1f      	ldr	r3, [pc, #124]	; (8000c40 <MX_GPIO_Init+0xac>)
 8000bc4:	6cdb      	ldr	r3, [r3, #76]	; 0x4c
 8000bc6:	4a1e      	ldr	r2, [pc, #120]	; (8000c40 <MX_GPIO_Init+0xac>)
 8000bc8:	f043 0380 	orr.w	r3, r3, #128	; 0x80
 8000bcc:	64d3      	str	r3, [r2, #76]	; 0x4c
 8000bce:	4b1c      	ldr	r3, [pc, #112]	; (8000c40 <MX_GPIO_Init+0xac>)
 8000bd0:	6cdb      	ldr	r3, [r3, #76]	; 0x4c
 8000bd2:	f003 0380 	and.w	r3, r3, #128	; 0x80
 8000bd6:	60fb      	str	r3, [r7, #12]
 8000bd8:	68fb      	ldr	r3, [r7, #12]
  __HAL_RCC_GPIOA_CLK_ENABLE();
 8000bda:	4b19      	ldr	r3, [pc, #100]	; (8000c40 <MX_GPIO_Init+0xac>)
 8000bdc:	6cdb      	ldr	r3, [r3, #76]	; 0x4c
 8000bde:	4a18      	ldr	r2, [pc, #96]	; (8000c40 <MX_GPIO_Init+0xac>)
 8000be0:	f043 0301 	orr.w	r3, r3, #1
 8000be4:	64d3      	str	r3, [r2, #76]	; 0x4c
 8000be6:	4b16      	ldr	r3, [pc, #88]	; (8000c40 <MX_GPIO_Init+0xac>)
 8000be8:	6cdb      	ldr	r3, [r3, #76]	; 0x4c
 8000bea:	f003 0301 	and.w	r3, r3, #1
 8000bee:	60bb      	str	r3, [r7, #8]
 8000bf0:	68bb      	ldr	r3, [r7, #8]
  __HAL_RCC_GPIOB_CLK_ENABLE();
 8000bf2:	4b13      	ldr	r3, [pc, #76]	; (8000c40 <MX_GPIO_Init+0xac>)
 8000bf4:	6cdb      	ldr	r3, [r3, #76]	; 0x4c
 8000bf6:	4a12      	ldr	r2, [pc, #72]	; (8000c40 <MX_GPIO_Init+0xac>)
 8000bf8:	f043 0302 	orr.w	r3, r3, #2
 8000bfc:	64d3      	str	r3, [r2, #76]	; 0x4c
 8000bfe:	4b10      	ldr	r3, [pc, #64]	; (8000c40 <MX_GPIO_Init+0xac>)
 8000c00:	6cdb      	ldr	r3, [r3, #76]	; 0x4c
 8000c02:	f003 0302 	and.w	r3, r3, #2
 8000c06:	607b      	str	r3, [r7, #4]
 8000c08:	687b      	ldr	r3, [r7, #4]

  /*Configure GPIO pin : B1_Pin */
  GPIO_InitStruct.Pin = B1_Pin;
 8000c0a:	f44f 5300 	mov.w	r3, #8192	; 0x2000
 8000c0e:	617b      	str	r3, [r7, #20]
  GPIO_InitStruct.Mode = GPIO_MODE_IT_RISING;
 8000c10:	f44f 1388 	mov.w	r3, #1114112	; 0x110000
 8000c14:	61bb      	str	r3, [r7, #24]
  GPIO_InitStruct.Pull = GPIO_PULLUP;
 8000c16:	2301      	movs	r3, #1
 8000c18:	61fb      	str	r3, [r7, #28]
  HAL_GPIO_Init(B1_GPIO_Port, &GPIO_InitStruct);
 8000c1a:	f107 0314 	add.w	r3, r7, #20
 8000c1e:	4619      	mov	r1, r3
 8000c20:	4808      	ldr	r0, [pc, #32]	; (8000c44 <MX_GPIO_Init+0xb0>)
 8000c22:	f002 fc59 	bl	80034d8 <HAL_GPIO_Init>

  /* EXTI interrupt init*/
  HAL_NVIC_SetPriority(EXTI15_10_IRQn, 0, 0);
 8000c26:	2200      	movs	r2, #0
 8000c28:	2100      	movs	r1, #0
 8000c2a:	2028      	movs	r0, #40	; 0x28
 8000c2c:	f001 ff75 	bl	8002b1a <HAL_NVIC_SetPriority>
  HAL_NVIC_EnableIRQ(EXTI15_10_IRQn);
 8000c30:	2028      	movs	r0, #40	; 0x28
 8000c32:	f001 ff8e 	bl	8002b52 <HAL_NVIC_EnableIRQ>

}
 8000c36:	bf00      	nop
 8000c38:	3728      	adds	r7, #40	; 0x28
 8000c3a:	46bd      	mov	sp, r7
 8000c3c:	bd80      	pop	{r7, pc}
 8000c3e:	bf00      	nop
 8000c40:	40021000 	.word	0x40021000
 8000c44:	48000800 	.word	0x48000800

08000c48 <HAL_TIM_PeriodElapsedCallback>:

/* USER CODE BEGIN 4 */
void HAL_TIM_PeriodElapsedCallback(TIM_HandleTypeDef* htim){
 8000c48:	b580      	push	{r7, lr}
 8000c4a:	b082      	sub	sp, #8
 8000c4c:	af00      	add	r7, sp, #0
 8000c4e:	6078      	str	r0, [r7, #4]
	// Timers interrupt routines
	// TIM3
	if (htim -> Instance == TIM3){
 8000c50:	687b      	ldr	r3, [r7, #4]
 8000c52:	681b      	ldr	r3, [r3, #0]
 8000c54:	4a2c      	ldr	r2, [pc, #176]	; (8000d08 <HAL_TIM_PeriodElapsedCallback+0xc0>)
 8000c56:	4293      	cmp	r3, r2
 8000c58:	d152      	bne.n	8000d00 <HAL_TIM_PeriodElapsedCallback+0xb8>
		if (pwm_mode == triangle){
 8000c5a:	4b2c      	ldr	r3, [pc, #176]	; (8000d0c <HAL_TIM_PeriodElapsedCallback+0xc4>)
 8000c5c:	781b      	ldrb	r3, [r3, #0]
 8000c5e:	2b00      	cmp	r3, #0
 8000c60:	d124      	bne.n	8000cac <HAL_TIM_PeriodElapsedCallback+0x64>
			if (duty_value >= 1)
 8000c62:	4b2b      	ldr	r3, [pc, #172]	; (8000d10 <HAL_TIM_PeriodElapsedCallback+0xc8>)
 8000c64:	edd3 7a00 	vldr	s15, [r3]
 8000c68:	eeb7 7a00 	vmov.f32	s14, #112	; 0x3f800000  1.0
 8000c6c:	eef4 7ac7 	vcmpe.f32	s15, s14
 8000c70:	eef1 fa10 	vmrs	APSR_nzcv, fpscr
 8000c74:	db03      	blt.n	8000c7e <HAL_TIM_PeriodElapsedCallback+0x36>
				duty_step = -0.05;
 8000c76:	4b27      	ldr	r3, [pc, #156]	; (8000d14 <HAL_TIM_PeriodElapsedCallback+0xcc>)
 8000c78:	4a27      	ldr	r2, [pc, #156]	; (8000d18 <HAL_TIM_PeriodElapsedCallback+0xd0>)
 8000c7a:	601a      	str	r2, [r3, #0]
 8000c7c:	e00a      	b.n	8000c94 <HAL_TIM_PeriodElapsedCallback+0x4c>
			else if (duty_value <= 0)
 8000c7e:	4b24      	ldr	r3, [pc, #144]	; (8000d10 <HAL_TIM_PeriodElapsedCallback+0xc8>)
 8000c80:	edd3 7a00 	vldr	s15, [r3]
 8000c84:	eef5 7ac0 	vcmpe.f32	s15, #0.0
 8000c88:	eef1 fa10 	vmrs	APSR_nzcv, fpscr
 8000c8c:	d802      	bhi.n	8000c94 <HAL_TIM_PeriodElapsedCallback+0x4c>
				duty_step = 0.05;
 8000c8e:	4b21      	ldr	r3, [pc, #132]	; (8000d14 <HAL_TIM_PeriodElapsedCallback+0xcc>)
 8000c90:	4a22      	ldr	r2, [pc, #136]	; (8000d1c <HAL_TIM_PeriodElapsedCallback+0xd4>)
 8000c92:	601a      	str	r2, [r3, #0]
			duty_value += duty_step;
 8000c94:	4b1e      	ldr	r3, [pc, #120]	; (8000d10 <HAL_TIM_PeriodElapsedCallback+0xc8>)
 8000c96:	ed93 7a00 	vldr	s14, [r3]
 8000c9a:	4b1e      	ldr	r3, [pc, #120]	; (8000d14 <HAL_TIM_PeriodElapsedCallback+0xcc>)
 8000c9c:	edd3 7a00 	vldr	s15, [r3]
 8000ca0:	ee77 7a27 	vadd.f32	s15, s14, s15
 8000ca4:	4b1a      	ldr	r3, [pc, #104]	; (8000d10 <HAL_TIM_PeriodElapsedCallback+0xc8>)
 8000ca6:	edc3 7a00 	vstr	s15, [r3]
 8000caa:	e014      	b.n	8000cd6 <HAL_TIM_PeriodElapsedCallback+0x8e>
		}
		else if (pwm_mode == adc_conv){
 8000cac:	4b17      	ldr	r3, [pc, #92]	; (8000d0c <HAL_TIM_PeriodElapsedCallback+0xc4>)
 8000cae:	781b      	ldrb	r3, [r3, #0]
 8000cb0:	2b01      	cmp	r3, #1
 8000cb2:	d110      	bne.n	8000cd6 <HAL_TIM_PeriodElapsedCallback+0x8e>
			duty_value = 1 - (((float)adc_value) / 4095);
 8000cb4:	4b1a      	ldr	r3, [pc, #104]	; (8000d20 <HAL_TIM_PeriodElapsedCallback+0xd8>)
 8000cb6:	681b      	ldr	r3, [r3, #0]
 8000cb8:	ee07 3a90 	vmov	s15, r3
 8000cbc:	eeb8 7a67 	vcvt.f32.u32	s14, s15
 8000cc0:	eddf 6a18 	vldr	s13, [pc, #96]	; 8000d24 <HAL_TIM_PeriodElapsedCallback+0xdc>
 8000cc4:	eec7 7a26 	vdiv.f32	s15, s14, s13
 8000cc8:	eeb7 7a00 	vmov.f32	s14, #112	; 0x3f800000  1.0
 8000ccc:	ee77 7a67 	vsub.f32	s15, s14, s15
 8000cd0:	4b0f      	ldr	r3, [pc, #60]	; (8000d10 <HAL_TIM_PeriodElapsedCallback+0xc8>)
 8000cd2:	edc3 7a00 	vstr	s15, [r3]
		}

		if (pwm_enable == 1)
 8000cd6:	4b14      	ldr	r3, [pc, #80]	; (8000d28 <HAL_TIM_PeriodElapsedCallback+0xe0>)
 8000cd8:	781b      	ldrb	r3, [r3, #0]
 8000cda:	2b01      	cmp	r3, #1
 8000cdc:	d107      	bne.n	8000cee <HAL_TIM_PeriodElapsedCallback+0xa6>
			set_dutyCycle(duty_value);
 8000cde:	4b0c      	ldr	r3, [pc, #48]	; (8000d10 <HAL_TIM_PeriodElapsedCallback+0xc8>)
 8000ce0:	edd3 7a00 	vldr	s15, [r3]
 8000ce4:	eeb0 0a67 	vmov.f32	s0, s15
 8000ce8:	f7ff fbf0 	bl	80004cc <set_dutyCycle>
 8000cec:	e003      	b.n	8000cf6 <HAL_TIM_PeriodElapsedCallback+0xae>
		else
			set_dutyCycle(0);
 8000cee:	ed9f 0a0f 	vldr	s0, [pc, #60]	; 8000d2c <HAL_TIM_PeriodElapsedCallback+0xe4>
 8000cf2:	f7ff fbeb 	bl	80004cc <set_dutyCycle>
		HAL_ADC_Start_DMA(&hadc2, &adc_value, 1);
 8000cf6:	2201      	movs	r2, #1
 8000cf8:	4909      	ldr	r1, [pc, #36]	; (8000d20 <HAL_TIM_PeriodElapsedCallback+0xd8>)
 8000cfa:	480d      	ldr	r0, [pc, #52]	; (8000d30 <HAL_TIM_PeriodElapsedCallback+0xe8>)
 8000cfc:	f000 ff62 	bl	8001bc4 <HAL_ADC_Start_DMA>
	}
	// TIM5
	if (htim -> Instance == TIM5)
		;//HAL_ADC_Start_DMA(&hadc2, &adc_value, 1);
}
 8000d00:	bf00      	nop
 8000d02:	3708      	adds	r7, #8
 8000d04:	46bd      	mov	sp, r7
 8000d06:	bd80      	pop	{r7, pc}
 8000d08:	40000400 	.word	0x40000400
 8000d0c:	2000047c 	.word	0x2000047c
 8000d10:	20000480 	.word	0x20000480
 8000d14:	20000000 	.word	0x20000000
 8000d18:	bd4ccccd 	.word	0xbd4ccccd
 8000d1c:	3d4ccccd 	.word	0x3d4ccccd
 8000d20:	20000484 	.word	0x20000484
 8000d24:	457ff000 	.word	0x457ff000
 8000d28:	20000004 	.word	0x20000004
 8000d2c:	00000000 	.word	0x00000000
 8000d30:	200001c0 	.word	0x200001c0

08000d34 <HAL_GPIO_EXTI_Callback>:

// GPIO External Interrupt Routine
void HAL_GPIO_EXTI_Callback(uint16_t GPIO_Pin)
{
 8000d34:	b480      	push	{r7}
 8000d36:	b083      	sub	sp, #12
 8000d38:	af00      	add	r7, sp, #0
 8000d3a:	4603      	mov	r3, r0
 8000d3c:	80fb      	strh	r3, [r7, #6]
	// Toggle pwm_enable when the button is pressed
	if(GPIO_Pin == GPIO_PIN_13) // If The INT Source Is EXTI Line9 (A9 Pin)
 8000d3e:	88fb      	ldrh	r3, [r7, #6]
 8000d40:	f5b3 5f00 	cmp.w	r3, #8192	; 0x2000
 8000d44:	d10a      	bne.n	8000d5c <HAL_GPIO_EXTI_Callback+0x28>
	{

		if (pwm_enable == 0)
 8000d46:	4b08      	ldr	r3, [pc, #32]	; (8000d68 <HAL_GPIO_EXTI_Callback+0x34>)
 8000d48:	781b      	ldrb	r3, [r3, #0]
 8000d4a:	2b00      	cmp	r3, #0
 8000d4c:	d103      	bne.n	8000d56 <HAL_GPIO_EXTI_Callback+0x22>
			pwm_enable = 1;
 8000d4e:	4b06      	ldr	r3, [pc, #24]	; (8000d68 <HAL_GPIO_EXTI_Callback+0x34>)
 8000d50:	2201      	movs	r2, #1
 8000d52:	701a      	strb	r2, [r3, #0]
		else {
			pwm_enable = 0;
		}
	}
}
 8000d54:	e002      	b.n	8000d5c <HAL_GPIO_EXTI_Callback+0x28>
			pwm_enable = 0;
 8000d56:	4b04      	ldr	r3, [pc, #16]	; (8000d68 <HAL_GPIO_EXTI_Callback+0x34>)
 8000d58:	2200      	movs	r2, #0
 8000d5a:	701a      	strb	r2, [r3, #0]
}
 8000d5c:	bf00      	nop
 8000d5e:	370c      	adds	r7, #12
 8000d60:	46bd      	mov	sp, r7
 8000d62:	f85d 7b04 	ldr.w	r7, [sp], #4
 8000d66:	4770      	bx	lr
 8000d68:	20000004 	.word	0x20000004

08000d6c <Error_Handler>:
/**
  * @brief  This function is executed in case of error occurrence.
  * @retval None
  */
void Error_Handler(void)
{
 8000d6c:	b480      	push	{r7}
 8000d6e:	af00      	add	r7, sp, #0
  \details Disables IRQ interrupts by setting the I-bit in the CPSR.
           Can only be executed in Privileged modes.
 */
__STATIC_FORCEINLINE void __disable_irq(void)
{
  __ASM volatile ("cpsid i" : : : "memory");
 8000d70:	b672      	cpsid	i
}
 8000d72:	bf00      	nop
  /* USER CODE BEGIN Error_Handler_Debug */
  /* User can add his own implementation to report the HAL error return state */
  __disable_irq();
  while (1)
 8000d74:	e7fe      	b.n	8000d74 <Error_Handler+0x8>
	...

08000d78 <HAL_MspInit>:
void HAL_TIM_MspPostInit(TIM_HandleTypeDef *htim);
                                                                                /**
  * Initializes the Global MSP.
  */
void HAL_MspInit(void)
{
 8000d78:	b480      	push	{r7}
 8000d7a:	b083      	sub	sp, #12
 8000d7c:	af00      	add	r7, sp, #0
  /* USER CODE BEGIN MspInit 0 */

  /* USER CODE END MspInit 0 */

  __HAL_RCC_SYSCFG_CLK_ENABLE();
 8000d7e:	4b0f      	ldr	r3, [pc, #60]	; (8000dbc <HAL_MspInit+0x44>)
 8000d80:	6e1b      	ldr	r3, [r3, #96]	; 0x60
 8000d82:	4a0e      	ldr	r2, [pc, #56]	; (8000dbc <HAL_MspInit+0x44>)
 8000d84:	f043 0301 	orr.w	r3, r3, #1
 8000d88:	6613      	str	r3, [r2, #96]	; 0x60
 8000d8a:	4b0c      	ldr	r3, [pc, #48]	; (8000dbc <HAL_MspInit+0x44>)
 8000d8c:	6e1b      	ldr	r3, [r3, #96]	; 0x60
 8000d8e:	f003 0301 	and.w	r3, r3, #1
 8000d92:	607b      	str	r3, [r7, #4]
 8000d94:	687b      	ldr	r3, [r7, #4]
  __HAL_RCC_PWR_CLK_ENABLE();
 8000d96:	4b09      	ldr	r3, [pc, #36]	; (8000dbc <HAL_MspInit+0x44>)
 8000d98:	6d9b      	ldr	r3, [r3, #88]	; 0x58
 8000d9a:	4a08      	ldr	r2, [pc, #32]	; (8000dbc <HAL_MspInit+0x44>)
 8000d9c:	f043 5380 	orr.w	r3, r3, #268435456	; 0x10000000
 8000da0:	6593      	str	r3, [r2, #88]	; 0x58
 8000da2:	4b06      	ldr	r3, [pc, #24]	; (8000dbc <HAL_MspInit+0x44>)
 8000da4:	6d9b      	ldr	r3, [r3, #88]	; 0x58
 8000da6:	f003 5380 	and.w	r3, r3, #268435456	; 0x10000000
 8000daa:	603b      	str	r3, [r7, #0]
 8000dac:	683b      	ldr	r3, [r7, #0]
  /* System interrupt init*/

  /* USER CODE BEGIN MspInit 1 */

  /* USER CODE END MspInit 1 */
}
 8000dae:	bf00      	nop
 8000db0:	370c      	adds	r7, #12
 8000db2:	46bd      	mov	sp, r7
 8000db4:	f85d 7b04 	ldr.w	r7, [sp], #4
 8000db8:	4770      	bx	lr
 8000dba:	bf00      	nop
 8000dbc:	40021000 	.word	0x40021000

08000dc0 <HAL_ADC_MspInit>:
* This function configures the hardware resources used in this example
* @param hadc: ADC handle pointer
* @retval None
*/
void HAL_ADC_MspInit(ADC_HandleTypeDef* hadc)
{
 8000dc0:	b580      	push	{r7, lr}
 8000dc2:	b0ac      	sub	sp, #176	; 0xb0
 8000dc4:	af00      	add	r7, sp, #0
 8000dc6:	6078      	str	r0, [r7, #4]
  GPIO_InitTypeDef GPIO_InitStruct = {0};
 8000dc8:	f107 039c 	add.w	r3, r7, #156	; 0x9c
 8000dcc:	2200      	movs	r2, #0
 8000dce:	601a      	str	r2, [r3, #0]
 8000dd0:	605a      	str	r2, [r3, #4]
 8000dd2:	609a      	str	r2, [r3, #8]
 8000dd4:	60da      	str	r2, [r3, #12]
 8000dd6:	611a      	str	r2, [r3, #16]
  RCC_PeriphCLKInitTypeDef PeriphClkInit = {0};
 8000dd8:	f107 0314 	add.w	r3, r7, #20
 8000ddc:	2288      	movs	r2, #136	; 0x88
 8000dde:	2100      	movs	r1, #0
 8000de0:	4618      	mov	r0, r3
 8000de2:	f006 f899 	bl	8006f18 <memset>
  if(hadc->Instance==ADC2)
 8000de6:	687b      	ldr	r3, [r7, #4]
 8000de8:	681b      	ldr	r3, [r3, #0]
 8000dea:	4a3c      	ldr	r2, [pc, #240]	; (8000edc <HAL_ADC_MspInit+0x11c>)
 8000dec:	4293      	cmp	r3, r2
 8000dee:	d171      	bne.n	8000ed4 <HAL_ADC_MspInit+0x114>

  /* USER CODE END ADC2_MspInit 0 */

  /** Initializes the peripherals clock
  */
    PeriphClkInit.PeriphClockSelection = RCC_PERIPHCLK_ADC;
 8000df0:	f44f 4380 	mov.w	r3, #16384	; 0x4000
 8000df4:	617b      	str	r3, [r7, #20]
    PeriphClkInit.AdcClockSelection = RCC_ADCCLKSOURCE_PLLSAI1;
 8000df6:	f04f 5380 	mov.w	r3, #268435456	; 0x10000000
 8000dfa:	f8c7 308c 	str.w	r3, [r7, #140]	; 0x8c
    PeriphClkInit.PLLSAI1.PLLSAI1Source = RCC_PLLSOURCE_HSI;
 8000dfe:	2302      	movs	r3, #2
 8000e00:	61bb      	str	r3, [r7, #24]
    PeriphClkInit.PLLSAI1.PLLSAI1M = 1;
 8000e02:	2301      	movs	r3, #1
 8000e04:	61fb      	str	r3, [r7, #28]
    PeriphClkInit.PLLSAI1.PLLSAI1N = 8;
 8000e06:	2308      	movs	r3, #8
 8000e08:	623b      	str	r3, [r7, #32]
    PeriphClkInit.PLLSAI1.PLLSAI1P = RCC_PLLP_DIV7;
 8000e0a:	2307      	movs	r3, #7
 8000e0c:	627b      	str	r3, [r7, #36]	; 0x24
    PeriphClkInit.PLLSAI1.PLLSAI1Q = RCC_PLLQ_DIV2;
 8000e0e:	2302      	movs	r3, #2
 8000e10:	62bb      	str	r3, [r7, #40]	; 0x28
    PeriphClkInit.PLLSAI1.PLLSAI1R = RCC_PLLR_DIV2;
 8000e12:	2302      	movs	r3, #2
 8000e14:	62fb      	str	r3, [r7, #44]	; 0x2c
    PeriphClkInit.PLLSAI1.PLLSAI1ClockOut = RCC_PLLSAI1_ADC1CLK;
 8000e16:	f04f 7380 	mov.w	r3, #16777216	; 0x1000000
 8000e1a:	633b      	str	r3, [r7, #48]	; 0x30
    if (HAL_RCCEx_PeriphCLKConfig(&PeriphClkInit) != HAL_OK)
 8000e1c:	f107 0314 	add.w	r3, r7, #20
 8000e20:	4618      	mov	r0, r3
 8000e22:	f003 fb7f 	bl	8004524 <HAL_RCCEx_PeriphCLKConfig>
 8000e26:	4603      	mov	r3, r0
 8000e28:	2b00      	cmp	r3, #0
 8000e2a:	d001      	beq.n	8000e30 <HAL_ADC_MspInit+0x70>
    {
      Error_Handler();
 8000e2c:	f7ff ff9e 	bl	8000d6c <Error_Handler>
    }

    /* Peripheral clock enable */
    __HAL_RCC_ADC_CLK_ENABLE();
 8000e30:	4b2b      	ldr	r3, [pc, #172]	; (8000ee0 <HAL_ADC_MspInit+0x120>)
 8000e32:	6cdb      	ldr	r3, [r3, #76]	; 0x4c
 8000e34:	4a2a      	ldr	r2, [pc, #168]	; (8000ee0 <HAL_ADC_MspInit+0x120>)
 8000e36:	f443 5300 	orr.w	r3, r3, #8192	; 0x2000
 8000e3a:	64d3      	str	r3, [r2, #76]	; 0x4c
 8000e3c:	4b28      	ldr	r3, [pc, #160]	; (8000ee0 <HAL_ADC_MspInit+0x120>)
 8000e3e:	6cdb      	ldr	r3, [r3, #76]	; 0x4c
 8000e40:	f403 5300 	and.w	r3, r3, #8192	; 0x2000
 8000e44:	613b      	str	r3, [r7, #16]
 8000e46:	693b      	ldr	r3, [r7, #16]

    __HAL_RCC_GPIOC_CLK_ENABLE();
 8000e48:	4b25      	ldr	r3, [pc, #148]	; (8000ee0 <HAL_ADC_MspInit+0x120>)
 8000e4a:	6cdb      	ldr	r3, [r3, #76]	; 0x4c
 8000e4c:	4a24      	ldr	r2, [pc, #144]	; (8000ee0 <HAL_ADC_MspInit+0x120>)
 8000e4e:	f043 0304 	orr.w	r3, r3, #4
 8000e52:	64d3      	str	r3, [r2, #76]	; 0x4c
 8000e54:	4b22      	ldr	r3, [pc, #136]	; (8000ee0 <HAL_ADC_MspInit+0x120>)
 8000e56:	6cdb      	ldr	r3, [r3, #76]	; 0x4c
 8000e58:	f003 0304 	and.w	r3, r3, #4
 8000e5c:	60fb      	str	r3, [r7, #12]
 8000e5e:	68fb      	ldr	r3, [r7, #12]
    /**ADC2 GPIO Configuration
    PC2     ------> ADC2_IN3
    */
    GPIO_InitStruct.Pin = GPIO_PIN_2;
 8000e60:	2304      	movs	r3, #4
 8000e62:	f8c7 309c 	str.w	r3, [r7, #156]	; 0x9c
    GPIO_InitStruct.Mode = GPIO_MODE_ANALOG_ADC_CONTROL;
 8000e66:	230b      	movs	r3, #11
 8000e68:	f8c7 30a0 	str.w	r3, [r7, #160]	; 0xa0
    GPIO_InitStruct.Pull = GPIO_NOPULL;
 8000e6c:	2300      	movs	r3, #0
 8000e6e:	f8c7 30a4 	str.w	r3, [r7, #164]	; 0xa4
    HAL_GPIO_Init(GPIOC, &GPIO_InitStruct);
 8000e72:	f107 039c 	add.w	r3, r7, #156	; 0x9c
 8000e76:	4619      	mov	r1, r3
 8000e78:	481a      	ldr	r0, [pc, #104]	; (8000ee4 <HAL_ADC_MspInit+0x124>)
 8000e7a:	f002 fb2d 	bl	80034d8 <HAL_GPIO_Init>

    /* ADC2 DMA Init */
    /* ADC2 Init */
    hdma_adc2.Instance = DMA1_Channel2;
 8000e7e:	4b1a      	ldr	r3, [pc, #104]	; (8000ee8 <HAL_ADC_MspInit+0x128>)
 8000e80:	4a1a      	ldr	r2, [pc, #104]	; (8000eec <HAL_ADC_MspInit+0x12c>)
 8000e82:	601a      	str	r2, [r3, #0]
    hdma_adc2.Init.Request = DMA_REQUEST_0;
 8000e84:	4b18      	ldr	r3, [pc, #96]	; (8000ee8 <HAL_ADC_MspInit+0x128>)
 8000e86:	2200      	movs	r2, #0
 8000e88:	605a      	str	r2, [r3, #4]
    hdma_adc2.Init.Direction = DMA_PERIPH_TO_MEMORY;
 8000e8a:	4b17      	ldr	r3, [pc, #92]	; (8000ee8 <HAL_ADC_MspInit+0x128>)
 8000e8c:	2200      	movs	r2, #0
 8000e8e:	609a      	str	r2, [r3, #8]
    hdma_adc2.Init.PeriphInc = DMA_PINC_DISABLE;
 8000e90:	4b15      	ldr	r3, [pc, #84]	; (8000ee8 <HAL_ADC_MspInit+0x128>)
 8000e92:	2200      	movs	r2, #0
 8000e94:	60da      	str	r2, [r3, #12]
    hdma_adc2.Init.MemInc = DMA_MINC_ENABLE;
 8000e96:	4b14      	ldr	r3, [pc, #80]	; (8000ee8 <HAL_ADC_MspInit+0x128>)
 8000e98:	2280      	movs	r2, #128	; 0x80
 8000e9a:	611a      	str	r2, [r3, #16]
    hdma_adc2.Init.PeriphDataAlignment = DMA_PDATAALIGN_HALFWORD;
 8000e9c:	4b12      	ldr	r3, [pc, #72]	; (8000ee8 <HAL_ADC_MspInit+0x128>)
 8000e9e:	f44f 7280 	mov.w	r2, #256	; 0x100
 8000ea2:	615a      	str	r2, [r3, #20]
    hdma_adc2.Init.MemDataAlignment = DMA_MDATAALIGN_HALFWORD;
 8000ea4:	4b10      	ldr	r3, [pc, #64]	; (8000ee8 <HAL_ADC_MspInit+0x128>)
 8000ea6:	f44f 6280 	mov.w	r2, #1024	; 0x400
 8000eaa:	619a      	str	r2, [r3, #24]
    hdma_adc2.Init.Mode = DMA_NORMAL;
 8000eac:	4b0e      	ldr	r3, [pc, #56]	; (8000ee8 <HAL_ADC_MspInit+0x128>)
 8000eae:	2200      	movs	r2, #0
 8000eb0:	61da      	str	r2, [r3, #28]
    hdma_adc2.Init.Priority = DMA_PRIORITY_LOW;
 8000eb2:	4b0d      	ldr	r3, [pc, #52]	; (8000ee8 <HAL_ADC_MspInit+0x128>)
 8000eb4:	2200      	movs	r2, #0
 8000eb6:	621a      	str	r2, [r3, #32]
    if (HAL_DMA_Init(&hdma_adc2) != HAL_OK)
 8000eb8:	480b      	ldr	r0, [pc, #44]	; (8000ee8 <HAL_ADC_MspInit+0x128>)
 8000eba:	f002 f915 	bl	80030e8 <HAL_DMA_Init>
 8000ebe:	4603      	mov	r3, r0
 8000ec0:	2b00      	cmp	r3, #0
 8000ec2:	d001      	beq.n	8000ec8 <HAL_ADC_MspInit+0x108>
    {
      Error_Handler();
 8000ec4:	f7ff ff52 	bl	8000d6c <Error_Handler>
    }

    __HAL_LINKDMA(hadc,DMA_Handle,hdma_adc2);
 8000ec8:	687b      	ldr	r3, [r7, #4]
 8000eca:	4a07      	ldr	r2, [pc, #28]	; (8000ee8 <HAL_ADC_MspInit+0x128>)
 8000ecc:	64da      	str	r2, [r3, #76]	; 0x4c
 8000ece:	4a06      	ldr	r2, [pc, #24]	; (8000ee8 <HAL_ADC_MspInit+0x128>)
 8000ed0:	687b      	ldr	r3, [r7, #4]
 8000ed2:	6293      	str	r3, [r2, #40]	; 0x28
  /* USER CODE BEGIN ADC2_MspInit 1 */

  /* USER CODE END ADC2_MspInit 1 */
  }

}
 8000ed4:	bf00      	nop
 8000ed6:	37b0      	adds	r7, #176	; 0xb0
 8000ed8:	46bd      	mov	sp, r7
 8000eda:	bd80      	pop	{r7, pc}
 8000edc:	50040100 	.word	0x50040100
 8000ee0:	40021000 	.word	0x40021000
 8000ee4:	48000800 	.word	0x48000800
 8000ee8:	20000224 	.word	0x20000224
 8000eec:	4002001c 	.word	0x4002001c

08000ef0 <HAL_DAC_MspInit>:
* This function configures the hardware resources used in this example
* @param hdac: DAC handle pointer
* @retval None
*/
void HAL_DAC_MspInit(DAC_HandleTypeDef* hdac)
{
 8000ef0:	b580      	push	{r7, lr}
 8000ef2:	b08a      	sub	sp, #40	; 0x28
 8000ef4:	af00      	add	r7, sp, #0
 8000ef6:	6078      	str	r0, [r7, #4]
  GPIO_InitTypeDef GPIO_InitStruct = {0};
 8000ef8:	f107 0314 	add.w	r3, r7, #20
 8000efc:	2200      	movs	r2, #0
 8000efe:	601a      	str	r2, [r3, #0]
 8000f00:	605a      	str	r2, [r3, #4]
 8000f02:	609a      	str	r2, [r3, #8]
 8000f04:	60da      	str	r2, [r3, #12]
 8000f06:	611a      	str	r2, [r3, #16]
  if(hdac->Instance==DAC1)
 8000f08:	687b      	ldr	r3, [r7, #4]
 8000f0a:	681b      	ldr	r3, [r3, #0]
 8000f0c:	4a2b      	ldr	r2, [pc, #172]	; (8000fbc <HAL_DAC_MspInit+0xcc>)
 8000f0e:	4293      	cmp	r3, r2
 8000f10:	d14f      	bne.n	8000fb2 <HAL_DAC_MspInit+0xc2>
  {
  /* USER CODE BEGIN DAC1_MspInit 0 */

  /* USER CODE END DAC1_MspInit 0 */
    /* Peripheral clock enable */
    __HAL_RCC_DAC1_CLK_ENABLE();
 8000f12:	4b2b      	ldr	r3, [pc, #172]	; (8000fc0 <HAL_DAC_MspInit+0xd0>)
 8000f14:	6d9b      	ldr	r3, [r3, #88]	; 0x58
 8000f16:	4a2a      	ldr	r2, [pc, #168]	; (8000fc0 <HAL_DAC_MspInit+0xd0>)
 8000f18:	f043 5300 	orr.w	r3, r3, #536870912	; 0x20000000
 8000f1c:	6593      	str	r3, [r2, #88]	; 0x58
 8000f1e:	4b28      	ldr	r3, [pc, #160]	; (8000fc0 <HAL_DAC_MspInit+0xd0>)
 8000f20:	6d9b      	ldr	r3, [r3, #88]	; 0x58
 8000f22:	f003 5300 	and.w	r3, r3, #536870912	; 0x20000000
 8000f26:	613b      	str	r3, [r7, #16]
 8000f28:	693b      	ldr	r3, [r7, #16]

    __HAL_RCC_GPIOA_CLK_ENABLE();
 8000f2a:	4b25      	ldr	r3, [pc, #148]	; (8000fc0 <HAL_DAC_MspInit+0xd0>)
 8000f2c:	6cdb      	ldr	r3, [r3, #76]	; 0x4c
 8000f2e:	4a24      	ldr	r2, [pc, #144]	; (8000fc0 <HAL_DAC_MspInit+0xd0>)
 8000f30:	f043 0301 	orr.w	r3, r3, #1
 8000f34:	64d3      	str	r3, [r2, #76]	; 0x4c
 8000f36:	4b22      	ldr	r3, [pc, #136]	; (8000fc0 <HAL_DAC_MspInit+0xd0>)
 8000f38:	6cdb      	ldr	r3, [r3, #76]	; 0x4c
 8000f3a:	f003 0301 	and.w	r3, r3, #1
 8000f3e:	60fb      	str	r3, [r7, #12]
 8000f40:	68fb      	ldr	r3, [r7, #12]
    /**DAC1 GPIO Configuration
    PA4     ------> DAC1_OUT1
    */
    GPIO_InitStruct.Pin = GPIO_PIN_4;
 8000f42:	2310      	movs	r3, #16
 8000f44:	617b      	str	r3, [r7, #20]
    GPIO_InitStruct.Mode = GPIO_MODE_ANALOG;
 8000f46:	2303      	movs	r3, #3
 8000f48:	61bb      	str	r3, [r7, #24]
    GPIO_InitStruct.Pull = GPIO_NOPULL;
 8000f4a:	2300      	movs	r3, #0
 8000f4c:	61fb      	str	r3, [r7, #28]
    HAL_GPIO_Init(GPIOA, &GPIO_InitStruct);
 8000f4e:	f107 0314 	add.w	r3, r7, #20
 8000f52:	4619      	mov	r1, r3
 8000f54:	f04f 4090 	mov.w	r0, #1207959552	; 0x48000000
 8000f58:	f002 fabe 	bl	80034d8 <HAL_GPIO_Init>

    /* DAC1 DMA Init */
    /* DAC_CH1 Init */
    hdma_dac_ch1.Instance = DMA1_Channel3;
 8000f5c:	4b19      	ldr	r3, [pc, #100]	; (8000fc4 <HAL_DAC_MspInit+0xd4>)
 8000f5e:	4a1a      	ldr	r2, [pc, #104]	; (8000fc8 <HAL_DAC_MspInit+0xd8>)
 8000f60:	601a      	str	r2, [r3, #0]
    hdma_dac_ch1.Init.Request = DMA_REQUEST_6;
 8000f62:	4b18      	ldr	r3, [pc, #96]	; (8000fc4 <HAL_DAC_MspInit+0xd4>)
 8000f64:	2206      	movs	r2, #6
 8000f66:	605a      	str	r2, [r3, #4]
    hdma_dac_ch1.Init.Direction = DMA_MEMORY_TO_PERIPH;
 8000f68:	4b16      	ldr	r3, [pc, #88]	; (8000fc4 <HAL_DAC_MspInit+0xd4>)
 8000f6a:	2210      	movs	r2, #16
 8000f6c:	609a      	str	r2, [r3, #8]
    hdma_dac_ch1.Init.PeriphInc = DMA_PINC_DISABLE;
 8000f6e:	4b15      	ldr	r3, [pc, #84]	; (8000fc4 <HAL_DAC_MspInit+0xd4>)
 8000f70:	2200      	movs	r2, #0
 8000f72:	60da      	str	r2, [r3, #12]
    hdma_dac_ch1.Init.MemInc = DMA_MINC_ENABLE;
 8000f74:	4b13      	ldr	r3, [pc, #76]	; (8000fc4 <HAL_DAC_MspInit+0xd4>)
 8000f76:	2280      	movs	r2, #128	; 0x80
 8000f78:	611a      	str	r2, [r3, #16]
    hdma_dac_ch1.Init.PeriphDataAlignment = DMA_PDATAALIGN_WORD;
 8000f7a:	4b12      	ldr	r3, [pc, #72]	; (8000fc4 <HAL_DAC_MspInit+0xd4>)
 8000f7c:	f44f 7200 	mov.w	r2, #512	; 0x200
 8000f80:	615a      	str	r2, [r3, #20]
    hdma_dac_ch1.Init.MemDataAlignment = DMA_MDATAALIGN_WORD;
 8000f82:	4b10      	ldr	r3, [pc, #64]	; (8000fc4 <HAL_DAC_MspInit+0xd4>)
 8000f84:	f44f 6200 	mov.w	r2, #2048	; 0x800
 8000f88:	619a      	str	r2, [r3, #24]
    hdma_dac_ch1.Init.Mode = DMA_CIRCULAR;
 8000f8a:	4b0e      	ldr	r3, [pc, #56]	; (8000fc4 <HAL_DAC_MspInit+0xd4>)
 8000f8c:	2220      	movs	r2, #32
 8000f8e:	61da      	str	r2, [r3, #28]
    hdma_dac_ch1.Init.Priority = DMA_PRIORITY_LOW;
 8000f90:	4b0c      	ldr	r3, [pc, #48]	; (8000fc4 <HAL_DAC_MspInit+0xd4>)
 8000f92:	2200      	movs	r2, #0
 8000f94:	621a      	str	r2, [r3, #32]
    if (HAL_DMA_Init(&hdma_dac_ch1) != HAL_OK)
 8000f96:	480b      	ldr	r0, [pc, #44]	; (8000fc4 <HAL_DAC_MspInit+0xd4>)
 8000f98:	f002 f8a6 	bl	80030e8 <HAL_DMA_Init>
 8000f9c:	4603      	mov	r3, r0
 8000f9e:	2b00      	cmp	r3, #0
 8000fa0:	d001      	beq.n	8000fa6 <HAL_DAC_MspInit+0xb6>
    {
      Error_Handler();
 8000fa2:	f7ff fee3 	bl	8000d6c <Error_Handler>
    }

    __HAL_LINKDMA(hdac,DMA_Handle1,hdma_dac_ch1);
 8000fa6:	687b      	ldr	r3, [r7, #4]
 8000fa8:	4a06      	ldr	r2, [pc, #24]	; (8000fc4 <HAL_DAC_MspInit+0xd4>)
 8000faa:	609a      	str	r2, [r3, #8]
 8000fac:	4a05      	ldr	r2, [pc, #20]	; (8000fc4 <HAL_DAC_MspInit+0xd4>)
 8000fae:	687b      	ldr	r3, [r7, #4]
 8000fb0:	6293      	str	r3, [r2, #40]	; 0x28
  /* USER CODE BEGIN DAC1_MspInit 1 */

  /* USER CODE END DAC1_MspInit 1 */
  }

}
 8000fb2:	bf00      	nop
 8000fb4:	3728      	adds	r7, #40	; 0x28
 8000fb6:	46bd      	mov	sp, r7
 8000fb8:	bd80      	pop	{r7, pc}
 8000fba:	bf00      	nop
 8000fbc:	40007400 	.word	0x40007400
 8000fc0:	40021000 	.word	0x40021000
 8000fc4:	20000280 	.word	0x20000280
 8000fc8:	40020030 	.word	0x40020030

08000fcc <HAL_TIM_PWM_MspInit>:
* This function configures the hardware resources used in this example
* @param htim_pwm: TIM_PWM handle pointer
* @retval None
*/
void HAL_TIM_PWM_MspInit(TIM_HandleTypeDef* htim_pwm)
{
 8000fcc:	b480      	push	{r7}
 8000fce:	b085      	sub	sp, #20
 8000fd0:	af00      	add	r7, sp, #0
 8000fd2:	6078      	str	r0, [r7, #4]
  if(htim_pwm->Instance==TIM2)
 8000fd4:	687b      	ldr	r3, [r7, #4]
 8000fd6:	681b      	ldr	r3, [r3, #0]
 8000fd8:	f1b3 4f80 	cmp.w	r3, #1073741824	; 0x40000000
 8000fdc:	d10b      	bne.n	8000ff6 <HAL_TIM_PWM_MspInit+0x2a>
  {
  /* USER CODE BEGIN TIM2_MspInit 0 */

  /* USER CODE END TIM2_MspInit 0 */
    /* Peripheral clock enable */
    __HAL_RCC_TIM2_CLK_ENABLE();
 8000fde:	4b09      	ldr	r3, [pc, #36]	; (8001004 <HAL_TIM_PWM_MspInit+0x38>)
 8000fe0:	6d9b      	ldr	r3, [r3, #88]	; 0x58
 8000fe2:	4a08      	ldr	r2, [pc, #32]	; (8001004 <HAL_TIM_PWM_MspInit+0x38>)
 8000fe4:	f043 0301 	orr.w	r3, r3, #1
 8000fe8:	6593      	str	r3, [r2, #88]	; 0x58
 8000fea:	4b06      	ldr	r3, [pc, #24]	; (8001004 <HAL_TIM_PWM_MspInit+0x38>)
 8000fec:	6d9b      	ldr	r3, [r3, #88]	; 0x58
 8000fee:	f003 0301 	and.w	r3, r3, #1
 8000ff2:	60fb      	str	r3, [r7, #12]
 8000ff4:	68fb      	ldr	r3, [r7, #12]
  /* USER CODE BEGIN TIM2_MspInit 1 */

  /* USER CODE END TIM2_MspInit 1 */
  }

}
 8000ff6:	bf00      	nop
 8000ff8:	3714      	adds	r7, #20
 8000ffa:	46bd      	mov	sp, r7
 8000ffc:	f85d 7b04 	ldr.w	r7, [sp], #4
 8001000:	4770      	bx	lr
 8001002:	bf00      	nop
 8001004:	40021000 	.word	0x40021000

08001008 <HAL_TIM_Base_MspInit>:
* This function configures the hardware resources used in this example
* @param htim_base: TIM_Base handle pointer
* @retval None
*/
void HAL_TIM_Base_MspInit(TIM_HandleTypeDef* htim_base)
{
 8001008:	b580      	push	{r7, lr}
 800100a:	b086      	sub	sp, #24
 800100c:	af00      	add	r7, sp, #0
 800100e:	6078      	str	r0, [r7, #4]
  if(htim_base->Instance==TIM3)
 8001010:	687b      	ldr	r3, [r7, #4]
 8001012:	681b      	ldr	r3, [r3, #0]
 8001014:	4a23      	ldr	r2, [pc, #140]	; (80010a4 <HAL_TIM_Base_MspInit+0x9c>)
 8001016:	4293      	cmp	r3, r2
 8001018:	d114      	bne.n	8001044 <HAL_TIM_Base_MspInit+0x3c>
  {
  /* USER CODE BEGIN TIM3_MspInit 0 */

  /* USER CODE END TIM3_MspInit 0 */
    /* Peripheral clock enable */
    __HAL_RCC_TIM3_CLK_ENABLE();
 800101a:	4b23      	ldr	r3, [pc, #140]	; (80010a8 <HAL_TIM_Base_MspInit+0xa0>)
 800101c:	6d9b      	ldr	r3, [r3, #88]	; 0x58
 800101e:	4a22      	ldr	r2, [pc, #136]	; (80010a8 <HAL_TIM_Base_MspInit+0xa0>)
 8001020:	f043 0302 	orr.w	r3, r3, #2
 8001024:	6593      	str	r3, [r2, #88]	; 0x58
 8001026:	4b20      	ldr	r3, [pc, #128]	; (80010a8 <HAL_TIM_Base_MspInit+0xa0>)
 8001028:	6d9b      	ldr	r3, [r3, #88]	; 0x58
 800102a:	f003 0302 	and.w	r3, r3, #2
 800102e:	617b      	str	r3, [r7, #20]
 8001030:	697b      	ldr	r3, [r7, #20]
    /* TIM3 interrupt Init */
    HAL_NVIC_SetPriority(TIM3_IRQn, 0, 0);
 8001032:	2200      	movs	r2, #0
 8001034:	2100      	movs	r1, #0
 8001036:	201d      	movs	r0, #29
 8001038:	f001 fd6f 	bl	8002b1a <HAL_NVIC_SetPriority>
    HAL_NVIC_EnableIRQ(TIM3_IRQn);
 800103c:	201d      	movs	r0, #29
 800103e:	f001 fd88 	bl	8002b52 <HAL_NVIC_EnableIRQ>
  /* USER CODE BEGIN TIM5_MspInit 1 */

  /* USER CODE END TIM5_MspInit 1 */
  }

}
 8001042:	e02a      	b.n	800109a <HAL_TIM_Base_MspInit+0x92>
  else if(htim_base->Instance==TIM4)
 8001044:	687b      	ldr	r3, [r7, #4]
 8001046:	681b      	ldr	r3, [r3, #0]
 8001048:	4a18      	ldr	r2, [pc, #96]	; (80010ac <HAL_TIM_Base_MspInit+0xa4>)
 800104a:	4293      	cmp	r3, r2
 800104c:	d10c      	bne.n	8001068 <HAL_TIM_Base_MspInit+0x60>
    __HAL_RCC_TIM4_CLK_ENABLE();
 800104e:	4b16      	ldr	r3, [pc, #88]	; (80010a8 <HAL_TIM_Base_MspInit+0xa0>)
 8001050:	6d9b      	ldr	r3, [r3, #88]	; 0x58
 8001052:	4a15      	ldr	r2, [pc, #84]	; (80010a8 <HAL_TIM_Base_MspInit+0xa0>)
 8001054:	f043 0304 	orr.w	r3, r3, #4
 8001058:	6593      	str	r3, [r2, #88]	; 0x58
 800105a:	4b13      	ldr	r3, [pc, #76]	; (80010a8 <HAL_TIM_Base_MspInit+0xa0>)
 800105c:	6d9b      	ldr	r3, [r3, #88]	; 0x58
 800105e:	f003 0304 	and.w	r3, r3, #4
 8001062:	613b      	str	r3, [r7, #16]
 8001064:	693b      	ldr	r3, [r7, #16]
}
 8001066:	e018      	b.n	800109a <HAL_TIM_Base_MspInit+0x92>
  else if(htim_base->Instance==TIM5)
 8001068:	687b      	ldr	r3, [r7, #4]
 800106a:	681b      	ldr	r3, [r3, #0]
 800106c:	4a10      	ldr	r2, [pc, #64]	; (80010b0 <HAL_TIM_Base_MspInit+0xa8>)
 800106e:	4293      	cmp	r3, r2
 8001070:	d113      	bne.n	800109a <HAL_TIM_Base_MspInit+0x92>
    __HAL_RCC_TIM5_CLK_ENABLE();
 8001072:	4b0d      	ldr	r3, [pc, #52]	; (80010a8 <HAL_TIM_Base_MspInit+0xa0>)
 8001074:	6d9b      	ldr	r3, [r3, #88]	; 0x58
 8001076:	4a0c      	ldr	r2, [pc, #48]	; (80010a8 <HAL_TIM_Base_MspInit+0xa0>)
 8001078:	f043 0308 	orr.w	r3, r3, #8
 800107c:	6593      	str	r3, [r2, #88]	; 0x58
 800107e:	4b0a      	ldr	r3, [pc, #40]	; (80010a8 <HAL_TIM_Base_MspInit+0xa0>)
 8001080:	6d9b      	ldr	r3, [r3, #88]	; 0x58
 8001082:	f003 0308 	and.w	r3, r3, #8
 8001086:	60fb      	str	r3, [r7, #12]
 8001088:	68fb      	ldr	r3, [r7, #12]
    HAL_NVIC_SetPriority(TIM5_IRQn, 0, 0);
 800108a:	2200      	movs	r2, #0
 800108c:	2100      	movs	r1, #0
 800108e:	2032      	movs	r0, #50	; 0x32
 8001090:	f001 fd43 	bl	8002b1a <HAL_NVIC_SetPriority>
    HAL_NVIC_EnableIRQ(TIM5_IRQn);
 8001094:	2032      	movs	r0, #50	; 0x32
 8001096:	f001 fd5c 	bl	8002b52 <HAL_NVIC_EnableIRQ>
}
 800109a:	bf00      	nop
 800109c:	3718      	adds	r7, #24
 800109e:	46bd      	mov	sp, r7
 80010a0:	bd80      	pop	{r7, pc}
 80010a2:	bf00      	nop
 80010a4:	40000400 	.word	0x40000400
 80010a8:	40021000 	.word	0x40021000
 80010ac:	40000800 	.word	0x40000800
 80010b0:	40000c00 	.word	0x40000c00

080010b4 <HAL_TIM_MspPostInit>:

void HAL_TIM_MspPostInit(TIM_HandleTypeDef* htim)
{
 80010b4:	b580      	push	{r7, lr}
 80010b6:	b08c      	sub	sp, #48	; 0x30
 80010b8:	af00      	add	r7, sp, #0
 80010ba:	6078      	str	r0, [r7, #4]
  GPIO_InitTypeDef GPIO_InitStruct = {0};
 80010bc:	f107 031c 	add.w	r3, r7, #28
 80010c0:	2200      	movs	r2, #0
 80010c2:	601a      	str	r2, [r3, #0]
 80010c4:	605a      	str	r2, [r3, #4]
 80010c6:	609a      	str	r2, [r3, #8]
 80010c8:	60da      	str	r2, [r3, #12]
 80010ca:	611a      	str	r2, [r3, #16]
  if(htim->Instance==TIM2)
 80010cc:	687b      	ldr	r3, [r7, #4]
 80010ce:	681b      	ldr	r3, [r3, #0]
 80010d0:	f1b3 4f80 	cmp.w	r3, #1073741824	; 0x40000000
 80010d4:	d11d      	bne.n	8001112 <HAL_TIM_MspPostInit+0x5e>
  {
  /* USER CODE BEGIN TIM2_MspPostInit 0 */

  /* USER CODE END TIM2_MspPostInit 0 */
    __HAL_RCC_GPIOA_CLK_ENABLE();
 80010d6:	4b44      	ldr	r3, [pc, #272]	; (80011e8 <HAL_TIM_MspPostInit+0x134>)
 80010d8:	6cdb      	ldr	r3, [r3, #76]	; 0x4c
 80010da:	4a43      	ldr	r2, [pc, #268]	; (80011e8 <HAL_TIM_MspPostInit+0x134>)
 80010dc:	f043 0301 	orr.w	r3, r3, #1
 80010e0:	64d3      	str	r3, [r2, #76]	; 0x4c
 80010e2:	4b41      	ldr	r3, [pc, #260]	; (80011e8 <HAL_TIM_MspPostInit+0x134>)
 80010e4:	6cdb      	ldr	r3, [r3, #76]	; 0x4c
 80010e6:	f003 0301 	and.w	r3, r3, #1
 80010ea:	61bb      	str	r3, [r7, #24]
 80010ec:	69bb      	ldr	r3, [r7, #24]
    /**TIM2 GPIO Configuration
    PA5     ------> TIM2_CH1
    */
    GPIO_InitStruct.Pin = GPIO_PIN_5;
 80010ee:	2320      	movs	r3, #32
 80010f0:	61fb      	str	r3, [r7, #28]
    GPIO_InitStruct.Mode = GPIO_MODE_AF_PP;
 80010f2:	2302      	movs	r3, #2
 80010f4:	623b      	str	r3, [r7, #32]
    GPIO_InitStruct.Pull = GPIO_NOPULL;
 80010f6:	2300      	movs	r3, #0
 80010f8:	627b      	str	r3, [r7, #36]	; 0x24
    GPIO_InitStruct.Speed = GPIO_SPEED_FREQ_LOW;
 80010fa:	2300      	movs	r3, #0
 80010fc:	62bb      	str	r3, [r7, #40]	; 0x28
    GPIO_InitStruct.Alternate = GPIO_AF1_TIM2;
 80010fe:	2301      	movs	r3, #1
 8001100:	62fb      	str	r3, [r7, #44]	; 0x2c
    HAL_GPIO_Init(GPIOA, &GPIO_InitStruct);
 8001102:	f107 031c 	add.w	r3, r7, #28
 8001106:	4619      	mov	r1, r3
 8001108:	f04f 4090 	mov.w	r0, #1207959552	; 0x48000000
 800110c:	f002 f9e4 	bl	80034d8 <HAL_GPIO_Init>
  /* USER CODE BEGIN TIM5_MspPostInit 1 */

  /* USER CODE END TIM5_MspPostInit 1 */
  }

}
 8001110:	e066      	b.n	80011e0 <HAL_TIM_MspPostInit+0x12c>
  else if(htim->Instance==TIM3)
 8001112:	687b      	ldr	r3, [r7, #4]
 8001114:	681b      	ldr	r3, [r3, #0]
 8001116:	4a35      	ldr	r2, [pc, #212]	; (80011ec <HAL_TIM_MspPostInit+0x138>)
 8001118:	4293      	cmp	r3, r2
 800111a:	d11d      	bne.n	8001158 <HAL_TIM_MspPostInit+0xa4>
    __HAL_RCC_GPIOA_CLK_ENABLE();
 800111c:	4b32      	ldr	r3, [pc, #200]	; (80011e8 <HAL_TIM_MspPostInit+0x134>)
 800111e:	6cdb      	ldr	r3, [r3, #76]	; 0x4c
 8001120:	4a31      	ldr	r2, [pc, #196]	; (80011e8 <HAL_TIM_MspPostInit+0x134>)
 8001122:	f043 0301 	orr.w	r3, r3, #1
 8001126:	64d3      	str	r3, [r2, #76]	; 0x4c
 8001128:	4b2f      	ldr	r3, [pc, #188]	; (80011e8 <HAL_TIM_MspPostInit+0x134>)
 800112a:	6cdb      	ldr	r3, [r3, #76]	; 0x4c
 800112c:	f003 0301 	and.w	r3, r3, #1
 8001130:	617b      	str	r3, [r7, #20]
 8001132:	697b      	ldr	r3, [r7, #20]
    GPIO_InitStruct.Pin = GPIO_PIN_6;
 8001134:	2340      	movs	r3, #64	; 0x40
 8001136:	61fb      	str	r3, [r7, #28]
    GPIO_InitStruct.Mode = GPIO_MODE_AF_PP;
 8001138:	2302      	movs	r3, #2
 800113a:	623b      	str	r3, [r7, #32]
    GPIO_InitStruct.Pull = GPIO_NOPULL;
 800113c:	2300      	movs	r3, #0
 800113e:	627b      	str	r3, [r7, #36]	; 0x24
    GPIO_InitStruct.Speed = GPIO_SPEED_FREQ_LOW;
 8001140:	2300      	movs	r3, #0
 8001142:	62bb      	str	r3, [r7, #40]	; 0x28
    GPIO_InitStruct.Alternate = GPIO_AF2_TIM3;
 8001144:	2302      	movs	r3, #2
 8001146:	62fb      	str	r3, [r7, #44]	; 0x2c
    HAL_GPIO_Init(GPIOA, &GPIO_InitStruct);
 8001148:	f107 031c 	add.w	r3, r7, #28
 800114c:	4619      	mov	r1, r3
 800114e:	f04f 4090 	mov.w	r0, #1207959552	; 0x48000000
 8001152:	f002 f9c1 	bl	80034d8 <HAL_GPIO_Init>
}
 8001156:	e043      	b.n	80011e0 <HAL_TIM_MspPostInit+0x12c>
  else if(htim->Instance==TIM4)
 8001158:	687b      	ldr	r3, [r7, #4]
 800115a:	681b      	ldr	r3, [r3, #0]
 800115c:	4a24      	ldr	r2, [pc, #144]	; (80011f0 <HAL_TIM_MspPostInit+0x13c>)
 800115e:	4293      	cmp	r3, r2
 8001160:	d11c      	bne.n	800119c <HAL_TIM_MspPostInit+0xe8>
    __HAL_RCC_GPIOB_CLK_ENABLE();
 8001162:	4b21      	ldr	r3, [pc, #132]	; (80011e8 <HAL_TIM_MspPostInit+0x134>)
 8001164:	6cdb      	ldr	r3, [r3, #76]	; 0x4c
 8001166:	4a20      	ldr	r2, [pc, #128]	; (80011e8 <HAL_TIM_MspPostInit+0x134>)
 8001168:	f043 0302 	orr.w	r3, r3, #2
 800116c:	64d3      	str	r3, [r2, #76]	; 0x4c
 800116e:	4b1e      	ldr	r3, [pc, #120]	; (80011e8 <HAL_TIM_MspPostInit+0x134>)
 8001170:	6cdb      	ldr	r3, [r3, #76]	; 0x4c
 8001172:	f003 0302 	and.w	r3, r3, #2
 8001176:	613b      	str	r3, [r7, #16]
 8001178:	693b      	ldr	r3, [r7, #16]
    GPIO_InitStruct.Pin = GPIO_PIN_6;
 800117a:	2340      	movs	r3, #64	; 0x40
 800117c:	61fb      	str	r3, [r7, #28]
    GPIO_InitStruct.Mode = GPIO_MODE_AF_PP;
 800117e:	2302      	movs	r3, #2
 8001180:	623b      	str	r3, [r7, #32]
    GPIO_InitStruct.Pull = GPIO_NOPULL;
 8001182:	2300      	movs	r3, #0
 8001184:	627b      	str	r3, [r7, #36]	; 0x24
    GPIO_InitStruct.Speed = GPIO_SPEED_FREQ_LOW;
 8001186:	2300      	movs	r3, #0
 8001188:	62bb      	str	r3, [r7, #40]	; 0x28
    GPIO_InitStruct.Alternate = GPIO_AF2_TIM4;
 800118a:	2302      	movs	r3, #2
 800118c:	62fb      	str	r3, [r7, #44]	; 0x2c
    HAL_GPIO_Init(GPIOB, &GPIO_InitStruct);
 800118e:	f107 031c 	add.w	r3, r7, #28
 8001192:	4619      	mov	r1, r3
 8001194:	4817      	ldr	r0, [pc, #92]	; (80011f4 <HAL_TIM_MspPostInit+0x140>)
 8001196:	f002 f99f 	bl	80034d8 <HAL_GPIO_Init>
}
 800119a:	e021      	b.n	80011e0 <HAL_TIM_MspPostInit+0x12c>
  else if(htim->Instance==TIM5)
 800119c:	687b      	ldr	r3, [r7, #4]
 800119e:	681b      	ldr	r3, [r3, #0]
 80011a0:	4a15      	ldr	r2, [pc, #84]	; (80011f8 <HAL_TIM_MspPostInit+0x144>)
 80011a2:	4293      	cmp	r3, r2
 80011a4:	d11c      	bne.n	80011e0 <HAL_TIM_MspPostInit+0x12c>
    __HAL_RCC_GPIOA_CLK_ENABLE();
 80011a6:	4b10      	ldr	r3, [pc, #64]	; (80011e8 <HAL_TIM_MspPostInit+0x134>)
 80011a8:	6cdb      	ldr	r3, [r3, #76]	; 0x4c
 80011aa:	4a0f      	ldr	r2, [pc, #60]	; (80011e8 <HAL_TIM_MspPostInit+0x134>)
 80011ac:	f043 0301 	orr.w	r3, r3, #1
 80011b0:	64d3      	str	r3, [r2, #76]	; 0x4c
 80011b2:	4b0d      	ldr	r3, [pc, #52]	; (80011e8 <HAL_TIM_MspPostInit+0x134>)
 80011b4:	6cdb      	ldr	r3, [r3, #76]	; 0x4c
 80011b6:	f003 0301 	and.w	r3, r3, #1
 80011ba:	60fb      	str	r3, [r7, #12]
 80011bc:	68fb      	ldr	r3, [r7, #12]
    GPIO_InitStruct.Pin = GPIO_PIN_0;
 80011be:	2301      	movs	r3, #1
 80011c0:	61fb      	str	r3, [r7, #28]
    GPIO_InitStruct.Mode = GPIO_MODE_AF_PP;
 80011c2:	2302      	movs	r3, #2
 80011c4:	623b      	str	r3, [r7, #32]
    GPIO_InitStruct.Pull = GPIO_NOPULL;
 80011c6:	2300      	movs	r3, #0
 80011c8:	627b      	str	r3, [r7, #36]	; 0x24
    GPIO_InitStruct.Speed = GPIO_SPEED_FREQ_LOW;
 80011ca:	2300      	movs	r3, #0
 80011cc:	62bb      	str	r3, [r7, #40]	; 0x28
    GPIO_InitStruct.Alternate = GPIO_AF2_TIM5;
 80011ce:	2302      	movs	r3, #2
 80011d0:	62fb      	str	r3, [r7, #44]	; 0x2c
    HAL_GPIO_Init(GPIOA, &GPIO_InitStruct);
 80011d2:	f107 031c 	add.w	r3, r7, #28
 80011d6:	4619      	mov	r1, r3
 80011d8:	f04f 4090 	mov.w	r0, #1207959552	; 0x48000000
 80011dc:	f002 f97c 	bl	80034d8 <HAL_GPIO_Init>
}
 80011e0:	bf00      	nop
 80011e2:	3730      	adds	r7, #48	; 0x30
 80011e4:	46bd      	mov	sp, r7
 80011e6:	bd80      	pop	{r7, pc}
 80011e8:	40021000 	.word	0x40021000
 80011ec:	40000400 	.word	0x40000400
 80011f0:	40000800 	.word	0x40000800
 80011f4:	48000400 	.word	0x48000400
 80011f8:	40000c00 	.word	0x40000c00

080011fc <HAL_UART_MspInit>:
* This function configures the hardware resources used in this example
* @param huart: UART handle pointer
* @retval None
*/
void HAL_UART_MspInit(UART_HandleTypeDef* huart)
{
 80011fc:	b580      	push	{r7, lr}
 80011fe:	b0ac      	sub	sp, #176	; 0xb0
 8001200:	af00      	add	r7, sp, #0
 8001202:	6078      	str	r0, [r7, #4]
  GPIO_InitTypeDef GPIO_InitStruct = {0};
 8001204:	f107 039c 	add.w	r3, r7, #156	; 0x9c
 8001208:	2200      	movs	r2, #0
 800120a:	601a      	str	r2, [r3, #0]
 800120c:	605a      	str	r2, [r3, #4]
 800120e:	609a      	str	r2, [r3, #8]
 8001210:	60da      	str	r2, [r3, #12]
 8001212:	611a      	str	r2, [r3, #16]
  RCC_PeriphCLKInitTypeDef PeriphClkInit = {0};
 8001214:	f107 0314 	add.w	r3, r7, #20
 8001218:	2288      	movs	r2, #136	; 0x88
 800121a:	2100      	movs	r1, #0
 800121c:	4618      	mov	r0, r3
 800121e:	f005 fe7b 	bl	8006f18 <memset>
  if(huart->Instance==USART2)
 8001222:	687b      	ldr	r3, [r7, #4]
 8001224:	681b      	ldr	r3, [r3, #0]
 8001226:	4a21      	ldr	r2, [pc, #132]	; (80012ac <HAL_UART_MspInit+0xb0>)
 8001228:	4293      	cmp	r3, r2
 800122a:	d13b      	bne.n	80012a4 <HAL_UART_MspInit+0xa8>

  /* USER CODE END USART2_MspInit 0 */

  /** Initializes the peripherals clock
  */
    PeriphClkInit.PeriphClockSelection = RCC_PERIPHCLK_USART2;
 800122c:	2302      	movs	r3, #2
 800122e:	617b      	str	r3, [r7, #20]
    PeriphClkInit.Usart2ClockSelection = RCC_USART2CLKSOURCE_PCLK1;
 8001230:	2300      	movs	r3, #0
 8001232:	653b      	str	r3, [r7, #80]	; 0x50
    if (HAL_RCCEx_PeriphCLKConfig(&PeriphClkInit) != HAL_OK)
 8001234:	f107 0314 	add.w	r3, r7, #20
 8001238:	4618      	mov	r0, r3
 800123a:	f003 f973 	bl	8004524 <HAL_RCCEx_PeriphCLKConfig>
 800123e:	4603      	mov	r3, r0
 8001240:	2b00      	cmp	r3, #0
 8001242:	d001      	beq.n	8001248 <HAL_UART_MspInit+0x4c>
    {
      Error_Handler();
 8001244:	f7ff fd92 	bl	8000d6c <Error_Handler>
    }

    /* Peripheral clock enable */
    __HAL_RCC_USART2_CLK_ENABLE();
 8001248:	4b19      	ldr	r3, [pc, #100]	; (80012b0 <HAL_UART_MspInit+0xb4>)
 800124a:	6d9b      	ldr	r3, [r3, #88]	; 0x58
 800124c:	4a18      	ldr	r2, [pc, #96]	; (80012b0 <HAL_UART_MspInit+0xb4>)
 800124e:	f443 3300 	orr.w	r3, r3, #131072	; 0x20000
 8001252:	6593      	str	r3, [r2, #88]	; 0x58
 8001254:	4b16      	ldr	r3, [pc, #88]	; (80012b0 <HAL_UART_MspInit+0xb4>)
 8001256:	6d9b      	ldr	r3, [r3, #88]	; 0x58
 8001258:	f403 3300 	and.w	r3, r3, #131072	; 0x20000
 800125c:	613b      	str	r3, [r7, #16]
 800125e:	693b      	ldr	r3, [r7, #16]

    __HAL_RCC_GPIOA_CLK_ENABLE();
 8001260:	4b13      	ldr	r3, [pc, #76]	; (80012b0 <HAL_UART_MspInit+0xb4>)
 8001262:	6cdb      	ldr	r3, [r3, #76]	; 0x4c
 8001264:	4a12      	ldr	r2, [pc, #72]	; (80012b0 <HAL_UART_MspInit+0xb4>)
 8001266:	f043 0301 	orr.w	r3, r3, #1
 800126a:	64d3      	str	r3, [r2, #76]	; 0x4c
 800126c:	4b10      	ldr	r3, [pc, #64]	; (80012b0 <HAL_UART_MspInit+0xb4>)
 800126e:	6cdb      	ldr	r3, [r3, #76]	; 0x4c
 8001270:	f003 0301 	and.w	r3, r3, #1
 8001274:	60fb      	str	r3, [r7, #12]
 8001276:	68fb      	ldr	r3, [r7, #12]
    /**USART2 GPIO Configuration
    PA2     ------> USART2_TX
    PA3     ------> USART2_RX
    */
    GPIO_InitStruct.Pin = USART_TX_Pin|USART_RX_Pin;
 8001278:	230c      	movs	r3, #12
 800127a:	f8c7 309c 	str.w	r3, [r7, #156]	; 0x9c
    GPIO_InitStruct.Mode = GPIO_MODE_AF_PP;
 800127e:	2302      	movs	r3, #2
 8001280:	f8c7 30a0 	str.w	r3, [r7, #160]	; 0xa0
    GPIO_InitStruct.Pull = GPIO_NOPULL;
 8001284:	2300      	movs	r3, #0
 8001286:	f8c7 30a4 	str.w	r3, [r7, #164]	; 0xa4
    GPIO_InitStruct.Speed = GPIO_SPEED_FREQ_VERY_HIGH;
 800128a:	2303      	movs	r3, #3
 800128c:	f8c7 30a8 	str.w	r3, [r7, #168]	; 0xa8
    GPIO_InitStruct.Alternate = GPIO_AF7_USART2;
 8001290:	2307      	movs	r3, #7
 8001292:	f8c7 30ac 	str.w	r3, [r7, #172]	; 0xac
    HAL_GPIO_Init(GPIOA, &GPIO_InitStruct);
 8001296:	f107 039c 	add.w	r3, r7, #156	; 0x9c
 800129a:	4619      	mov	r1, r3
 800129c:	f04f 4090 	mov.w	r0, #1207959552	; 0x48000000
 80012a0:	f002 f91a 	bl	80034d8 <HAL_GPIO_Init>
  /* USER CODE BEGIN USART2_MspInit 1 */

  /* USER CODE END USART2_MspInit 1 */
  }

}
 80012a4:	bf00      	nop
 80012a6:	37b0      	adds	r7, #176	; 0xb0
 80012a8:	46bd      	mov	sp, r7
 80012aa:	bd80      	pop	{r7, pc}
 80012ac:	40004400 	.word	0x40004400
 80012b0:	40021000 	.word	0x40021000

080012b4 <NMI_Handler>:
/******************************************************************************/
/**
  * @brief This function handles Non maskable interrupt.
  */
void NMI_Handler(void)
{
 80012b4:	b480      	push	{r7}
 80012b6:	af00      	add	r7, sp, #0
  /* USER CODE BEGIN NonMaskableInt_IRQn 0 */

  /* USER CODE END NonMaskableInt_IRQn 0 */
  /* USER CODE BEGIN NonMaskableInt_IRQn 1 */
  while (1)
 80012b8:	e7fe      	b.n	80012b8 <NMI_Handler+0x4>

080012ba <HardFault_Handler>:

/**
  * @brief This function handles Hard fault interrupt.
  */
void HardFault_Handler(void)
{
 80012ba:	b480      	push	{r7}
 80012bc:	af00      	add	r7, sp, #0
  /* USER CODE BEGIN HardFault_IRQn 0 */

  /* USER CODE END HardFault_IRQn 0 */
  while (1)
 80012be:	e7fe      	b.n	80012be <HardFault_Handler+0x4>

080012c0 <MemManage_Handler>:

/**
  * @brief This function handles Memory management fault.
  */
void MemManage_Handler(void)
{
 80012c0:	b480      	push	{r7}
 80012c2:	af00      	add	r7, sp, #0
  /* USER CODE BEGIN MemoryManagement_IRQn 0 */

  /* USER CODE END MemoryManagement_IRQn 0 */
  while (1)
 80012c4:	e7fe      	b.n	80012c4 <MemManage_Handler+0x4>

080012c6 <BusFault_Handler>:

/**
  * @brief This function handles Prefetch fault, memory access fault.
  */
void BusFault_Handler(void)
{
 80012c6:	b480      	push	{r7}
 80012c8:	af00      	add	r7, sp, #0
  /* USER CODE BEGIN BusFault_IRQn 0 */

  /* USER CODE END BusFault_IRQn 0 */
  while (1)
 80012ca:	e7fe      	b.n	80012ca <BusFault_Handler+0x4>

080012cc <UsageFault_Handler>:

/**
  * @brief This function handles Undefined instruction or illegal state.
  */
void UsageFault_Handler(void)
{
 80012cc:	b480      	push	{r7}
 80012ce:	af00      	add	r7, sp, #0
  /* USER CODE BEGIN UsageFault_IRQn 0 */

  /* USER CODE END UsageFault_IRQn 0 */
  while (1)
 80012d0:	e7fe      	b.n	80012d0 <UsageFault_Handler+0x4>

080012d2 <SVC_Handler>:

/**
  * @brief This function handles System service call via SWI instruction.
  */
void SVC_Handler(void)
{
 80012d2:	b480      	push	{r7}
 80012d4:	af00      	add	r7, sp, #0

  /* USER CODE END SVCall_IRQn 0 */
  /* USER CODE BEGIN SVCall_IRQn 1 */

  /* USER CODE END SVCall_IRQn 1 */
}
 80012d6:	bf00      	nop
 80012d8:	46bd      	mov	sp, r7
 80012da:	f85d 7b04 	ldr.w	r7, [sp], #4
 80012de:	4770      	bx	lr

080012e0 <DebugMon_Handler>:

/**
  * @brief This function handles Debug monitor.
  */
void DebugMon_Handler(void)
{
 80012e0:	b480      	push	{r7}
 80012e2:	af00      	add	r7, sp, #0

  /* USER CODE END DebugMonitor_IRQn 0 */
  /* USER CODE BEGIN DebugMonitor_IRQn 1 */

  /* USER CODE END DebugMonitor_IRQn 1 */
}
 80012e4:	bf00      	nop
 80012e6:	46bd      	mov	sp, r7
 80012e8:	f85d 7b04 	ldr.w	r7, [sp], #4
 80012ec:	4770      	bx	lr

080012ee <PendSV_Handler>:

/**
  * @brief This function handles Pendable request for system service.
  */
void PendSV_Handler(void)
{
 80012ee:	b480      	push	{r7}
 80012f0:	af00      	add	r7, sp, #0

  /* USER CODE END PendSV_IRQn 0 */
  /* USER CODE BEGIN PendSV_IRQn 1 */

  /* USER CODE END PendSV_IRQn 1 */
}
 80012f2:	bf00      	nop
 80012f4:	46bd      	mov	sp, r7
 80012f6:	f85d 7b04 	ldr.w	r7, [sp], #4
 80012fa:	4770      	bx	lr

080012fc <SysTick_Handler>:

/**
  * @brief This function handles System tick timer.
  */
void SysTick_Handler(void)
{
 80012fc:	b580      	push	{r7, lr}
 80012fe:	af00      	add	r7, sp, #0
  /* USER CODE BEGIN SysTick_IRQn 0 */

  /* USER CODE END SysTick_IRQn 0 */
  HAL_IncTick();
 8001300:	f000 f8ca 	bl	8001498 <HAL_IncTick>
  /* USER CODE BEGIN SysTick_IRQn 1 */

  /* USER CODE END SysTick_IRQn 1 */
}
 8001304:	bf00      	nop
 8001306:	bd80      	pop	{r7, pc}

08001308 <DMA1_Channel2_IRQHandler>:

/**
  * @brief This function handles DMA1 channel2 global interrupt.
  */
void DMA1_Channel2_IRQHandler(void)
{
 8001308:	b580      	push	{r7, lr}
 800130a:	af00      	add	r7, sp, #0
  /* USER CODE BEGIN DMA1_Channel2_IRQn 0 */

  /* USER CODE END DMA1_Channel2_IRQn 0 */
  HAL_DMA_IRQHandler(&hdma_adc2);
 800130c:	4802      	ldr	r0, [pc, #8]	; (8001318 <DMA1_Channel2_IRQHandler+0x10>)
 800130e:	f002 f803 	bl	8003318 <HAL_DMA_IRQHandler>
  /* USER CODE BEGIN DMA1_Channel2_IRQn 1 */

  /* USER CODE END DMA1_Channel2_IRQn 1 */
}
 8001312:	bf00      	nop
 8001314:	bd80      	pop	{r7, pc}
 8001316:	bf00      	nop
 8001318:	20000224 	.word	0x20000224

0800131c <DMA1_Channel3_IRQHandler>:

/**
  * @brief This function handles DMA1 channel3 global interrupt.
  */
void DMA1_Channel3_IRQHandler(void)
{
 800131c:	b580      	push	{r7, lr}
 800131e:	af00      	add	r7, sp, #0
  /* USER CODE BEGIN DMA1_Channel3_IRQn 0 */

  /* USER CODE END DMA1_Channel3_IRQn 0 */
  HAL_DMA_IRQHandler(&hdma_dac_ch1);
 8001320:	4802      	ldr	r0, [pc, #8]	; (800132c <DMA1_Channel3_IRQHandler+0x10>)
 8001322:	f001 fff9 	bl	8003318 <HAL_DMA_IRQHandler>
  /* USER CODE BEGIN DMA1_Channel3_IRQn 1 */

  /* USER CODE END DMA1_Channel3_IRQn 1 */
}
 8001326:	bf00      	nop
 8001328:	bd80      	pop	{r7, pc}
 800132a:	bf00      	nop
 800132c:	20000280 	.word	0x20000280

08001330 <TIM3_IRQHandler>:

/**
  * @brief This function handles TIM3 global interrupt.
  */
void TIM3_IRQHandler(void)
{
 8001330:	b580      	push	{r7, lr}
 8001332:	af00      	add	r7, sp, #0
  /* USER CODE BEGIN TIM3_IRQn 0 */

  /* USER CODE END TIM3_IRQn 0 */
  HAL_TIM_IRQHandler(&htim3);
 8001334:	4802      	ldr	r0, [pc, #8]	; (8001340 <TIM3_IRQHandler+0x10>)
 8001336:	f004 f89f 	bl	8005478 <HAL_TIM_IRQHandler>
  /* USER CODE BEGIN TIM3_IRQn 1 */

  /* USER CODE END TIM3_IRQn 1 */
}
 800133a:	bf00      	nop
 800133c:	bd80      	pop	{r7, pc}
 800133e:	bf00      	nop
 8001340:	20000314 	.word	0x20000314

08001344 <EXTI15_10_IRQHandler>:

/**
  * @brief This function handles EXTI line[15:10] interrupts.
  */
void EXTI15_10_IRQHandler(void)
{
 8001344:	b580      	push	{r7, lr}
 8001346:	af00      	add	r7, sp, #0
  /* USER CODE BEGIN EXTI15_10_IRQn 0 */

  /* USER CODE END EXTI15_10_IRQn 0 */
  HAL_GPIO_EXTI_IRQHandler(B1_Pin);
 8001348:	f44f 5000 	mov.w	r0, #8192	; 0x2000
 800134c:	f002 fa6e 	bl	800382c <HAL_GPIO_EXTI_IRQHandler>
  /* USER CODE BEGIN EXTI15_10_IRQn 1 */

  /* USER CODE END EXTI15_10_IRQn 1 */
}
 8001350:	bf00      	nop
 8001352:	bd80      	pop	{r7, pc}

08001354 <TIM5_IRQHandler>:

/**
  * @brief This function handles TIM5 global interrupt.
  */
void TIM5_IRQHandler(void)
{
 8001354:	b580      	push	{r7, lr}
 8001356:	af00      	add	r7, sp, #0
  /* USER CODE BEGIN TIM5_IRQn 0 */

  /* USER CODE END TIM5_IRQn 0 */
  HAL_TIM_IRQHandler(&htim5);
 8001358:	4802      	ldr	r0, [pc, #8]	; (8001364 <TIM5_IRQHandler+0x10>)
 800135a:	f004 f88d 	bl	8005478 <HAL_TIM_IRQHandler>
  /* USER CODE BEGIN TIM5_IRQn 1 */

  /* USER CODE END TIM5_IRQn 1 */
}
 800135e:	bf00      	nop
 8001360:	bd80      	pop	{r7, pc}
 8001362:	bf00      	nop
 8001364:	200003ac 	.word	0x200003ac

08001368 <SystemInit>:
  * @brief  Setup the microcontroller system.
  * @retval None
  */

void SystemInit(void)
{
 8001368:	b480      	push	{r7}
 800136a:	af00      	add	r7, sp, #0
  SCB->VTOR = VECT_TAB_BASE_ADDRESS | VECT_TAB_OFFSET;
#endif

  /* FPU settings ------------------------------------------------------------*/
#if (__FPU_PRESENT == 1) && (__FPU_USED == 1)
  SCB->CPACR |= ((3UL << 20U)|(3UL << 22U));  /* set CP10 and CP11 Full Access */
 800136c:	4b06      	ldr	r3, [pc, #24]	; (8001388 <SystemInit+0x20>)
 800136e:	f8d3 3088 	ldr.w	r3, [r3, #136]	; 0x88
 8001372:	4a05      	ldr	r2, [pc, #20]	; (8001388 <SystemInit+0x20>)
 8001374:	f443 0370 	orr.w	r3, r3, #15728640	; 0xf00000
 8001378:	f8c2 3088 	str.w	r3, [r2, #136]	; 0x88
#endif
}
 800137c:	bf00      	nop
 800137e:	46bd      	mov	sp, r7
 8001380:	f85d 7b04 	ldr.w	r7, [sp], #4
 8001384:	4770      	bx	lr
 8001386:	bf00      	nop
 8001388:	e000ed00 	.word	0xe000ed00

0800138c <Reset_Handler>:

    .section	.text.Reset_Handler
	.weak	Reset_Handler
	.type	Reset_Handler, %function
Reset_Handler:
  ldr   sp, =_estack    /* Set stack pointer */
 800138c:	f8df d034 	ldr.w	sp, [pc, #52]	; 80013c4 <LoopForever+0x2>

/* Call the clock system initialization function.*/
    bl  SystemInit
 8001390:	f7ff ffea 	bl	8001368 <SystemInit>

/* Copy the data segment initializers from flash to SRAM */
  ldr r0, =_sdata
 8001394:	480c      	ldr	r0, [pc, #48]	; (80013c8 <LoopForever+0x6>)
  ldr r1, =_edata
 8001396:	490d      	ldr	r1, [pc, #52]	; (80013cc <LoopForever+0xa>)
  ldr r2, =_sidata
 8001398:	4a0d      	ldr	r2, [pc, #52]	; (80013d0 <LoopForever+0xe>)
  movs r3, #0
 800139a:	2300      	movs	r3, #0
  b LoopCopyDataInit
 800139c:	e002      	b.n	80013a4 <LoopCopyDataInit>

0800139e <CopyDataInit>:

CopyDataInit:
  ldr r4, [r2, r3]
 800139e:	58d4      	ldr	r4, [r2, r3]
  str r4, [r0, r3]
 80013a0:	50c4      	str	r4, [r0, r3]
  adds r3, r3, #4
 80013a2:	3304      	adds	r3, #4

080013a4 <LoopCopyDataInit>:

LoopCopyDataInit:
  adds r4, r0, r3
 80013a4:	18c4      	adds	r4, r0, r3
  cmp r4, r1
 80013a6:	428c      	cmp	r4, r1
  bcc CopyDataInit
 80013a8:	d3f9      	bcc.n	800139e <CopyDataInit>
  
/* Zero fill the bss segment. */
  ldr r2, =_sbss
 80013aa:	4a0a      	ldr	r2, [pc, #40]	; (80013d4 <LoopForever+0x12>)
  ldr r4, =_ebss
 80013ac:	4c0a      	ldr	r4, [pc, #40]	; (80013d8 <LoopForever+0x16>)
  movs r3, #0
 80013ae:	2300      	movs	r3, #0
  b LoopFillZerobss
 80013b0:	e001      	b.n	80013b6 <LoopFillZerobss>

080013b2 <FillZerobss>:

FillZerobss:
  str  r3, [r2]
 80013b2:	6013      	str	r3, [r2, #0]
  adds r2, r2, #4
 80013b4:	3204      	adds	r2, #4

080013b6 <LoopFillZerobss>:

LoopFillZerobss:
  cmp r2, r4
 80013b6:	42a2      	cmp	r2, r4
  bcc FillZerobss
 80013b8:	d3fb      	bcc.n	80013b2 <FillZerobss>

/* Call static constructors */
    bl __libc_init_array
 80013ba:	f005 fd89 	bl	8006ed0 <__libc_init_array>
/* Call the application's entry point.*/
	bl	main
 80013be:	f7ff f8a5 	bl	800050c <main>

080013c2 <LoopForever>:

LoopForever:
    b LoopForever
 80013c2:	e7fe      	b.n	80013c2 <LoopForever>
  ldr   sp, =_estack    /* Set stack pointer */
 80013c4:	20018000 	.word	0x20018000
  ldr r0, =_sdata
 80013c8:	20000000 	.word	0x20000000
  ldr r1, =_edata
 80013cc:	200001a4 	.word	0x200001a4
  ldr r2, =_sidata
 80013d0:	08006f98 	.word	0x08006f98
  ldr r2, =_sbss
 80013d4:	200001a4 	.word	0x200001a4
  ldr r4, =_ebss
 80013d8:	2000048c 	.word	0x2000048c

080013dc <ADC1_2_IRQHandler>:
 * @retval : None
*/
    .section	.text.Default_Handler,"ax",%progbits
Default_Handler:
Infinite_Loop:
	b	Infinite_Loop
 80013dc:	e7fe      	b.n	80013dc <ADC1_2_IRQHandler>
	...

080013e0 <HAL_Init>:
  *         each 1ms in the SysTick_Handler() interrupt handler.
  *
  * @retval HAL status
  */
HAL_StatusTypeDef HAL_Init(void)
{
 80013e0:	b580      	push	{r7, lr}
 80013e2:	b082      	sub	sp, #8
 80013e4:	af00      	add	r7, sp, #0
  HAL_StatusTypeDef  status = HAL_OK;
 80013e6:	2300      	movs	r3, #0
 80013e8:	71fb      	strb	r3, [r7, #7]
#if (DATA_CACHE_ENABLE == 0)
   __HAL_FLASH_DATA_CACHE_DISABLE();
#endif /* DATA_CACHE_ENABLE */

#if (PREFETCH_ENABLE != 0)
  __HAL_FLASH_PREFETCH_BUFFER_ENABLE();
 80013ea:	4b0c      	ldr	r3, [pc, #48]	; (800141c <HAL_Init+0x3c>)
 80013ec:	681b      	ldr	r3, [r3, #0]
 80013ee:	4a0b      	ldr	r2, [pc, #44]	; (800141c <HAL_Init+0x3c>)
 80013f0:	f443 7380 	orr.w	r3, r3, #256	; 0x100
 80013f4:	6013      	str	r3, [r2, #0]
#endif /* PREFETCH_ENABLE */

  /* Set Interrupt Group Priority */
  HAL_NVIC_SetPriorityGrouping(NVIC_PRIORITYGROUP_4);
 80013f6:	2003      	movs	r0, #3
 80013f8:	f001 fb84 	bl	8002b04 <HAL_NVIC_SetPriorityGrouping>

  /* Use SysTick as time base source and configure 1ms tick (default clock after Reset is MSI) */
  if (HAL_InitTick(TICK_INT_PRIORITY) != HAL_OK)
 80013fc:	2000      	movs	r0, #0
 80013fe:	f000 f80f 	bl	8001420 <HAL_InitTick>
 8001402:	4603      	mov	r3, r0
 8001404:	2b00      	cmp	r3, #0
 8001406:	d002      	beq.n	800140e <HAL_Init+0x2e>
  {
    status = HAL_ERROR;
 8001408:	2301      	movs	r3, #1
 800140a:	71fb      	strb	r3, [r7, #7]
 800140c:	e001      	b.n	8001412 <HAL_Init+0x32>
  }
  else
  {
    /* Init the low level hardware */
    HAL_MspInit();
 800140e:	f7ff fcb3 	bl	8000d78 <HAL_MspInit>
  }

  /* Return function status */
  return status;
 8001412:	79fb      	ldrb	r3, [r7, #7]
}
 8001414:	4618      	mov	r0, r3
 8001416:	3708      	adds	r7, #8
 8001418:	46bd      	mov	sp, r7
 800141a:	bd80      	pop	{r7, pc}
 800141c:	40022000 	.word	0x40022000

08001420 <HAL_InitTick>:
  *       implementation  in user file.
  * @param TickPriority  Tick interrupt priority.
  * @retval HAL status
  */
__weak HAL_StatusTypeDef HAL_InitTick(uint32_t TickPriority)
{
 8001420:	b580      	push	{r7, lr}
 8001422:	b084      	sub	sp, #16
 8001424:	af00      	add	r7, sp, #0
 8001426:	6078      	str	r0, [r7, #4]
  HAL_StatusTypeDef  status = HAL_OK;
 8001428:	2300      	movs	r3, #0
 800142a:	73fb      	strb	r3, [r7, #15]

  /* Check uwTickFreq for MisraC 2012 (even if uwTickFreq is a enum type that doesn't take the value zero)*/
  if ((uint32_t)uwTickFreq != 0U)
 800142c:	4b17      	ldr	r3, [pc, #92]	; (800148c <HAL_InitTick+0x6c>)
 800142e:	781b      	ldrb	r3, [r3, #0]
 8001430:	2b00      	cmp	r3, #0
 8001432:	d023      	beq.n	800147c <HAL_InitTick+0x5c>
  {
    /*Configure the SysTick to have interrupt in 1ms time basis*/
    if (HAL_SYSTICK_Config(SystemCoreClock / (1000U / (uint32_t)uwTickFreq)) == 0U)
 8001434:	4b16      	ldr	r3, [pc, #88]	; (8001490 <HAL_InitTick+0x70>)
 8001436:	681a      	ldr	r2, [r3, #0]
 8001438:	4b14      	ldr	r3, [pc, #80]	; (800148c <HAL_InitTick+0x6c>)
 800143a:	781b      	ldrb	r3, [r3, #0]
 800143c:	4619      	mov	r1, r3
 800143e:	f44f 737a 	mov.w	r3, #1000	; 0x3e8
 8001442:	fbb3 f3f1 	udiv	r3, r3, r1
 8001446:	fbb2 f3f3 	udiv	r3, r2, r3
 800144a:	4618      	mov	r0, r3
 800144c:	f001 fb8f 	bl	8002b6e <HAL_SYSTICK_Config>
 8001450:	4603      	mov	r3, r0
 8001452:	2b00      	cmp	r3, #0
 8001454:	d10f      	bne.n	8001476 <HAL_InitTick+0x56>
    {
      /* Configure the SysTick IRQ priority */
      if (TickPriority < (1UL << __NVIC_PRIO_BITS))
 8001456:	687b      	ldr	r3, [r7, #4]
 8001458:	2b0f      	cmp	r3, #15
 800145a:	d809      	bhi.n	8001470 <HAL_InitTick+0x50>
      {
        HAL_NVIC_SetPriority(SysTick_IRQn, TickPriority, 0U);
 800145c:	2200      	movs	r2, #0
 800145e:	6879      	ldr	r1, [r7, #4]
 8001460:	f04f 30ff 	mov.w	r0, #4294967295
 8001464:	f001 fb59 	bl	8002b1a <HAL_NVIC_SetPriority>
        uwTickPrio = TickPriority;
 8001468:	4a0a      	ldr	r2, [pc, #40]	; (8001494 <HAL_InitTick+0x74>)
 800146a:	687b      	ldr	r3, [r7, #4]
 800146c:	6013      	str	r3, [r2, #0]
 800146e:	e007      	b.n	8001480 <HAL_InitTick+0x60>
      }
      else
      {
        status = HAL_ERROR;
 8001470:	2301      	movs	r3, #1
 8001472:	73fb      	strb	r3, [r7, #15]
 8001474:	e004      	b.n	8001480 <HAL_InitTick+0x60>
      }
    }
    else
    {
      status = HAL_ERROR;
 8001476:	2301      	movs	r3, #1
 8001478:	73fb      	strb	r3, [r7, #15]
 800147a:	e001      	b.n	8001480 <HAL_InitTick+0x60>
    }
  }
  else
  {
    status = HAL_ERROR;
 800147c:	2301      	movs	r3, #1
 800147e:	73fb      	strb	r3, [r7, #15]
  }

  /* Return function status */
  return status;
 8001480:	7bfb      	ldrb	r3, [r7, #15]
}
 8001482:	4618      	mov	r0, r3
 8001484:	3710      	adds	r7, #16
 8001486:	46bd      	mov	sp, r7
 8001488:	bd80      	pop	{r7, pc}
 800148a:	bf00      	nop
 800148c:	200001a0 	.word	0x200001a0
 8001490:	20000198 	.word	0x20000198
 8001494:	2000019c 	.word	0x2000019c

08001498 <HAL_IncTick>:
 * @note This function is declared as __weak to be overwritten in case of other
  *      implementations in user file.
  * @retval None
  */
__weak void HAL_IncTick(void)
{
 8001498:	b480      	push	{r7}
 800149a:	af00      	add	r7, sp, #0
  uwTick += (uint32_t)uwTickFreq;
 800149c:	4b06      	ldr	r3, [pc, #24]	; (80014b8 <HAL_IncTick+0x20>)
 800149e:	781b      	ldrb	r3, [r3, #0]
 80014a0:	461a      	mov	r2, r3
 80014a2:	4b06      	ldr	r3, [pc, #24]	; (80014bc <HAL_IncTick+0x24>)
 80014a4:	681b      	ldr	r3, [r3, #0]
 80014a6:	4413      	add	r3, r2
 80014a8:	4a04      	ldr	r2, [pc, #16]	; (80014bc <HAL_IncTick+0x24>)
 80014aa:	6013      	str	r3, [r2, #0]
}
 80014ac:	bf00      	nop
 80014ae:	46bd      	mov	sp, r7
 80014b0:	f85d 7b04 	ldr.w	r7, [sp], #4
 80014b4:	4770      	bx	lr
 80014b6:	bf00      	nop
 80014b8:	200001a0 	.word	0x200001a0
 80014bc:	20000488 	.word	0x20000488

080014c0 <HAL_GetTick>:
  * @note This function is declared as __weak to be overwritten in case of other
  *       implementations in user file.
  * @retval tick value
  */
__weak uint32_t HAL_GetTick(void)
{
 80014c0:	b480      	push	{r7}
 80014c2:	af00      	add	r7, sp, #0
  return uwTick;
 80014c4:	4b03      	ldr	r3, [pc, #12]	; (80014d4 <HAL_GetTick+0x14>)
 80014c6:	681b      	ldr	r3, [r3, #0]
}
 80014c8:	4618      	mov	r0, r3
 80014ca:	46bd      	mov	sp, r7
 80014cc:	f85d 7b04 	ldr.w	r7, [sp], #4
 80014d0:	4770      	bx	lr
 80014d2:	bf00      	nop
 80014d4:	20000488 	.word	0x20000488

080014d8 <HAL_Delay>:
  *       implementations in user file.
  * @param Delay  specifies the delay time length, in milliseconds.
  * @retval None
  */
__weak void HAL_Delay(uint32_t Delay)
{
 80014d8:	b580      	push	{r7, lr}
 80014da:	b084      	sub	sp, #16
 80014dc:	af00      	add	r7, sp, #0
 80014de:	6078      	str	r0, [r7, #4]
  uint32_t tickstart = HAL_GetTick();
 80014e0:	f7ff ffee 	bl	80014c0 <HAL_GetTick>
 80014e4:	60b8      	str	r0, [r7, #8]
  uint32_t wait = Delay;
 80014e6:	687b      	ldr	r3, [r7, #4]
 80014e8:	60fb      	str	r3, [r7, #12]

  /* Add a period to guaranty minimum wait */
  if (wait < HAL_MAX_DELAY)
 80014ea:	68fb      	ldr	r3, [r7, #12]
 80014ec:	f1b3 3fff 	cmp.w	r3, #4294967295
 80014f0:	d005      	beq.n	80014fe <HAL_Delay+0x26>
  {
    wait += (uint32_t)uwTickFreq;
 80014f2:	4b0a      	ldr	r3, [pc, #40]	; (800151c <HAL_Delay+0x44>)
 80014f4:	781b      	ldrb	r3, [r3, #0]
 80014f6:	461a      	mov	r2, r3
 80014f8:	68fb      	ldr	r3, [r7, #12]
 80014fa:	4413      	add	r3, r2
 80014fc:	60fb      	str	r3, [r7, #12]
  }

  while ((HAL_GetTick() - tickstart) < wait)
 80014fe:	bf00      	nop
 8001500:	f7ff ffde 	bl	80014c0 <HAL_GetTick>
 8001504:	4602      	mov	r2, r0
 8001506:	68bb      	ldr	r3, [r7, #8]
 8001508:	1ad3      	subs	r3, r2, r3
 800150a:	68fa      	ldr	r2, [r7, #12]
 800150c:	429a      	cmp	r2, r3
 800150e:	d8f7      	bhi.n	8001500 <HAL_Delay+0x28>
  {
  }
}
 8001510:	bf00      	nop
 8001512:	bf00      	nop
 8001514:	3710      	adds	r7, #16
 8001516:	46bd      	mov	sp, r7
 8001518:	bd80      	pop	{r7, pc}
 800151a:	bf00      	nop
 800151c:	200001a0 	.word	0x200001a0

08001520 <LL_ADC_SetCommonClock>:
  *         @arg @ref LL_ADC_CLOCK_ASYNC_DIV128
  *         @arg @ref LL_ADC_CLOCK_ASYNC_DIV256
  * @retval None
  */
__STATIC_INLINE void LL_ADC_SetCommonClock(ADC_Common_TypeDef *ADCxy_COMMON, uint32_t CommonClock)
{
 8001520:	b480      	push	{r7}
 8001522:	b083      	sub	sp, #12
 8001524:	af00      	add	r7, sp, #0
 8001526:	6078      	str	r0, [r7, #4]
 8001528:	6039      	str	r1, [r7, #0]
  MODIFY_REG(ADCxy_COMMON->CCR, ADC_CCR_CKMODE | ADC_CCR_PRESC, CommonClock);
 800152a:	687b      	ldr	r3, [r7, #4]
 800152c:	689b      	ldr	r3, [r3, #8]
 800152e:	f423 127c 	bic.w	r2, r3, #4128768	; 0x3f0000
 8001532:	683b      	ldr	r3, [r7, #0]
 8001534:	431a      	orrs	r2, r3
 8001536:	687b      	ldr	r3, [r7, #4]
 8001538:	609a      	str	r2, [r3, #8]
}
 800153a:	bf00      	nop
 800153c:	370c      	adds	r7, #12
 800153e:	46bd      	mov	sp, r7
 8001540:	f85d 7b04 	ldr.w	r7, [sp], #4
 8001544:	4770      	bx	lr

08001546 <LL_ADC_SetCommonPathInternalCh>:
  *         @arg @ref LL_ADC_PATH_INTERNAL_TEMPSENSOR
  *         @arg @ref LL_ADC_PATH_INTERNAL_VBAT
  * @retval None
  */
__STATIC_INLINE void LL_ADC_SetCommonPathInternalCh(ADC_Common_TypeDef *ADCxy_COMMON, uint32_t PathInternal)
{
 8001546:	b480      	push	{r7}
 8001548:	b083      	sub	sp, #12
 800154a:	af00      	add	r7, sp, #0
 800154c:	6078      	str	r0, [r7, #4]
 800154e:	6039      	str	r1, [r7, #0]
  MODIFY_REG(ADCxy_COMMON->CCR, ADC_CCR_VREFEN | ADC_CCR_TSEN | ADC_CCR_VBATEN, PathInternal);
 8001550:	687b      	ldr	r3, [r7, #4]
 8001552:	689b      	ldr	r3, [r3, #8]
 8001554:	f023 72e0 	bic.w	r2, r3, #29360128	; 0x1c00000
 8001558:	683b      	ldr	r3, [r7, #0]
 800155a:	431a      	orrs	r2, r3
 800155c:	687b      	ldr	r3, [r7, #4]
 800155e:	609a      	str	r2, [r3, #8]
}
 8001560:	bf00      	nop
 8001562:	370c      	adds	r7, #12
 8001564:	46bd      	mov	sp, r7
 8001566:	f85d 7b04 	ldr.w	r7, [sp], #4
 800156a:	4770      	bx	lr

0800156c <LL_ADC_GetCommonPathInternalCh>:
  *         @arg @ref LL_ADC_PATH_INTERNAL_VREFINT
  *         @arg @ref LL_ADC_PATH_INTERNAL_TEMPSENSOR
  *         @arg @ref LL_ADC_PATH_INTERNAL_VBAT
  */
__STATIC_INLINE uint32_t LL_ADC_GetCommonPathInternalCh(ADC_Common_TypeDef *ADCxy_COMMON)
{
 800156c:	b480      	push	{r7}
 800156e:	b083      	sub	sp, #12
 8001570:	af00      	add	r7, sp, #0
 8001572:	6078      	str	r0, [r7, #4]
  return (uint32_t)(READ_BIT(ADCxy_COMMON->CCR, ADC_CCR_VREFEN | ADC_CCR_TSEN | ADC_CCR_VBATEN));
 8001574:	687b      	ldr	r3, [r7, #4]
 8001576:	689b      	ldr	r3, [r3, #8]
 8001578:	f003 73e0 	and.w	r3, r3, #29360128	; 0x1c00000
}
 800157c:	4618      	mov	r0, r3
 800157e:	370c      	adds	r7, #12
 8001580:	46bd      	mov	sp, r7
 8001582:	f85d 7b04 	ldr.w	r7, [sp], #4
 8001586:	4770      	bx	lr

08001588 <LL_ADC_SetOffset>:
  *             Other channels are slow channels (0.238 us for 12-bit resolution (ADC conversion rate up to 4.21 Ms/s)).
  * @param  OffsetLevel Value between Min_Data=0x000 and Max_Data=0xFFF
  * @retval None
  */
__STATIC_INLINE void LL_ADC_SetOffset(ADC_TypeDef *ADCx, uint32_t Offsety, uint32_t Channel, uint32_t OffsetLevel)
{
 8001588:	b480      	push	{r7}
 800158a:	b087      	sub	sp, #28
 800158c:	af00      	add	r7, sp, #0
 800158e:	60f8      	str	r0, [r7, #12]
 8001590:	60b9      	str	r1, [r7, #8]
 8001592:	607a      	str	r2, [r7, #4]
 8001594:	603b      	str	r3, [r7, #0]
  __IO uint32_t *preg = __ADC_PTR_REG_OFFSET(ADCx->OFR1, Offsety);
 8001596:	68fb      	ldr	r3, [r7, #12]
 8001598:	3360      	adds	r3, #96	; 0x60
 800159a:	461a      	mov	r2, r3
 800159c:	68bb      	ldr	r3, [r7, #8]
 800159e:	009b      	lsls	r3, r3, #2
 80015a0:	4413      	add	r3, r2
 80015a2:	617b      	str	r3, [r7, #20]

  MODIFY_REG(*preg,
 80015a4:	697b      	ldr	r3, [r7, #20]
 80015a6:	681a      	ldr	r2, [r3, #0]
 80015a8:	4b08      	ldr	r3, [pc, #32]	; (80015cc <LL_ADC_SetOffset+0x44>)
 80015aa:	4013      	ands	r3, r2
 80015ac:	687a      	ldr	r2, [r7, #4]
 80015ae:	f002 41f8 	and.w	r1, r2, #2080374784	; 0x7c000000
 80015b2:	683a      	ldr	r2, [r7, #0]
 80015b4:	430a      	orrs	r2, r1
 80015b6:	4313      	orrs	r3, r2
 80015b8:	f043 4200 	orr.w	r2, r3, #2147483648	; 0x80000000
 80015bc:	697b      	ldr	r3, [r7, #20]
 80015be:	601a      	str	r2, [r3, #0]
             ADC_OFR1_OFFSET1_EN | ADC_OFR1_OFFSET1_CH | ADC_OFR1_OFFSET1,
             ADC_OFR1_OFFSET1_EN | (Channel & ADC_CHANNEL_ID_NUMBER_MASK) | OffsetLevel);
}
 80015c0:	bf00      	nop
 80015c2:	371c      	adds	r7, #28
 80015c4:	46bd      	mov	sp, r7
 80015c6:	f85d 7b04 	ldr.w	r7, [sp], #4
 80015ca:	4770      	bx	lr
 80015cc:	03fff000 	.word	0x03fff000

080015d0 <LL_ADC_GetOffsetChannel>:
  *         (1, 2, 3, 4) For ADC channel read back from ADC register,
  *                      comparison with internal channel parameter to be done
  *                      using helper macro @ref __LL_ADC_CHANNEL_INTERNAL_TO_EXTERNAL().
  */
__STATIC_INLINE uint32_t LL_ADC_GetOffsetChannel(ADC_TypeDef *ADCx, uint32_t Offsety)
{
 80015d0:	b480      	push	{r7}
 80015d2:	b085      	sub	sp, #20
 80015d4:	af00      	add	r7, sp, #0
 80015d6:	6078      	str	r0, [r7, #4]
 80015d8:	6039      	str	r1, [r7, #0]
  const __IO uint32_t *preg = __ADC_PTR_REG_OFFSET(ADCx->OFR1, Offsety);
 80015da:	687b      	ldr	r3, [r7, #4]
 80015dc:	3360      	adds	r3, #96	; 0x60
 80015de:	461a      	mov	r2, r3
 80015e0:	683b      	ldr	r3, [r7, #0]
 80015e2:	009b      	lsls	r3, r3, #2
 80015e4:	4413      	add	r3, r2
 80015e6:	60fb      	str	r3, [r7, #12]

  return (uint32_t) READ_BIT(*preg, ADC_OFR1_OFFSET1_CH);
 80015e8:	68fb      	ldr	r3, [r7, #12]
 80015ea:	681b      	ldr	r3, [r3, #0]
 80015ec:	f003 43f8 	and.w	r3, r3, #2080374784	; 0x7c000000
}
 80015f0:	4618      	mov	r0, r3
 80015f2:	3714      	adds	r7, #20
 80015f4:	46bd      	mov	sp, r7
 80015f6:	f85d 7b04 	ldr.w	r7, [sp], #4
 80015fa:	4770      	bx	lr

080015fc <LL_ADC_SetOffsetState>:
  *         @arg @ref LL_ADC_OFFSET_DISABLE
  *         @arg @ref LL_ADC_OFFSET_ENABLE
  * @retval None
  */
__STATIC_INLINE void LL_ADC_SetOffsetState(ADC_TypeDef *ADCx, uint32_t Offsety, uint32_t OffsetState)
{
 80015fc:	b480      	push	{r7}
 80015fe:	b087      	sub	sp, #28
 8001600:	af00      	add	r7, sp, #0
 8001602:	60f8      	str	r0, [r7, #12]
 8001604:	60b9      	str	r1, [r7, #8]
 8001606:	607a      	str	r2, [r7, #4]
  __IO uint32_t *preg = __ADC_PTR_REG_OFFSET(ADCx->OFR1, Offsety);
 8001608:	68fb      	ldr	r3, [r7, #12]
 800160a:	3360      	adds	r3, #96	; 0x60
 800160c:	461a      	mov	r2, r3
 800160e:	68bb      	ldr	r3, [r7, #8]
 8001610:	009b      	lsls	r3, r3, #2
 8001612:	4413      	add	r3, r2
 8001614:	617b      	str	r3, [r7, #20]

  MODIFY_REG(*preg,
 8001616:	697b      	ldr	r3, [r7, #20]
 8001618:	681b      	ldr	r3, [r3, #0]
 800161a:	f023 4200 	bic.w	r2, r3, #2147483648	; 0x80000000
 800161e:	687b      	ldr	r3, [r7, #4]
 8001620:	431a      	orrs	r2, r3
 8001622:	697b      	ldr	r3, [r7, #20]
 8001624:	601a      	str	r2, [r3, #0]
             ADC_OFR1_OFFSET1_EN,
             OffsetState);
}
 8001626:	bf00      	nop
 8001628:	371c      	adds	r7, #28
 800162a:	46bd      	mov	sp, r7
 800162c:	f85d 7b04 	ldr.w	r7, [sp], #4
 8001630:	4770      	bx	lr

08001632 <LL_ADC_REG_IsTriggerSourceSWStart>:
  * @param  ADCx ADC instance
  * @retval Value "0" if trigger source external trigger
  *         Value "1" if trigger source SW start.
  */
__STATIC_INLINE uint32_t LL_ADC_REG_IsTriggerSourceSWStart(ADC_TypeDef *ADCx)
{
 8001632:	b480      	push	{r7}
 8001634:	b083      	sub	sp, #12
 8001636:	af00      	add	r7, sp, #0
 8001638:	6078      	str	r0, [r7, #4]
  return ((READ_BIT(ADCx->CFGR, ADC_CFGR_EXTEN) == (LL_ADC_REG_TRIG_SOFTWARE & ADC_CFGR_EXTEN)) ? 1UL : 0UL);
 800163a:	687b      	ldr	r3, [r7, #4]
 800163c:	68db      	ldr	r3, [r3, #12]
 800163e:	f403 6340 	and.w	r3, r3, #3072	; 0xc00
 8001642:	2b00      	cmp	r3, #0
 8001644:	d101      	bne.n	800164a <LL_ADC_REG_IsTriggerSourceSWStart+0x18>
 8001646:	2301      	movs	r3, #1
 8001648:	e000      	b.n	800164c <LL_ADC_REG_IsTriggerSourceSWStart+0x1a>
 800164a:	2300      	movs	r3, #0
}
 800164c:	4618      	mov	r0, r3
 800164e:	370c      	adds	r7, #12
 8001650:	46bd      	mov	sp, r7
 8001652:	f85d 7b04 	ldr.w	r7, [sp], #4
 8001656:	4770      	bx	lr

08001658 <LL_ADC_REG_SetSequencerRanks>:
  *         (7) On STM32L4, fast channel (0.188 us for 12-bit resolution (ADC conversion rate up to 5.33 Ms/s)).
  *             Other channels are slow channels (0.238 us for 12-bit resolution (ADC conversion rate up to 4.21 Ms/s)).
  * @retval None
  */
__STATIC_INLINE void LL_ADC_REG_SetSequencerRanks(ADC_TypeDef *ADCx, uint32_t Rank, uint32_t Channel)
{
 8001658:	b480      	push	{r7}
 800165a:	b087      	sub	sp, #28
 800165c:	af00      	add	r7, sp, #0
 800165e:	60f8      	str	r0, [r7, #12]
 8001660:	60b9      	str	r1, [r7, #8]
 8001662:	607a      	str	r2, [r7, #4]
  /* Set bits with content of parameter "Channel" with bits position          */
  /* in register and register position depending on parameter "Rank".         */
  /* Parameters "Rank" and "Channel" are used with masks because containing   */
  /* other bits reserved for other purpose.                                   */
  __IO uint32_t *preg = __ADC_PTR_REG_OFFSET(ADCx->SQR1, ((Rank & ADC_REG_SQRX_REGOFFSET_MASK) >> ADC_SQRX_REGOFFSET_POS));
 8001664:	68fb      	ldr	r3, [r7, #12]
 8001666:	3330      	adds	r3, #48	; 0x30
 8001668:	461a      	mov	r2, r3
 800166a:	68bb      	ldr	r3, [r7, #8]
 800166c:	0a1b      	lsrs	r3, r3, #8
 800166e:	009b      	lsls	r3, r3, #2
 8001670:	f003 030c 	and.w	r3, r3, #12
 8001674:	4413      	add	r3, r2
 8001676:	617b      	str	r3, [r7, #20]

  MODIFY_REG(*preg,
 8001678:	697b      	ldr	r3, [r7, #20]
 800167a:	681a      	ldr	r2, [r3, #0]
 800167c:	68bb      	ldr	r3, [r7, #8]
 800167e:	f003 031f 	and.w	r3, r3, #31
 8001682:	211f      	movs	r1, #31
 8001684:	fa01 f303 	lsl.w	r3, r1, r3
 8001688:	43db      	mvns	r3, r3
 800168a:	401a      	ands	r2, r3
 800168c:	687b      	ldr	r3, [r7, #4]
 800168e:	0e9b      	lsrs	r3, r3, #26
 8001690:	f003 011f 	and.w	r1, r3, #31
 8001694:	68bb      	ldr	r3, [r7, #8]
 8001696:	f003 031f 	and.w	r3, r3, #31
 800169a:	fa01 f303 	lsl.w	r3, r1, r3
 800169e:	431a      	orrs	r2, r3
 80016a0:	697b      	ldr	r3, [r7, #20]
 80016a2:	601a      	str	r2, [r3, #0]
             ADC_CHANNEL_ID_NUMBER_MASK_POSBIT0 << (Rank & ADC_REG_RANK_ID_SQRX_MASK),
             ((Channel & ADC_CHANNEL_ID_NUMBER_MASK) >> ADC_CHANNEL_ID_NUMBER_BITOFFSET_POS) << (Rank & ADC_REG_RANK_ID_SQRX_MASK));
}
 80016a4:	bf00      	nop
 80016a6:	371c      	adds	r7, #28
 80016a8:	46bd      	mov	sp, r7
 80016aa:	f85d 7b04 	ldr.w	r7, [sp], #4
 80016ae:	4770      	bx	lr

080016b0 <LL_ADC_SetChannelSamplingTime>:
  *             can be replaced by 3.5 ADC clock cycles.
  *             Refer to function @ref LL_ADC_SetSamplingTimeCommonConfig().
  * @retval None
  */
__STATIC_INLINE void LL_ADC_SetChannelSamplingTime(ADC_TypeDef *ADCx, uint32_t Channel, uint32_t SamplingTime)
{
 80016b0:	b480      	push	{r7}
 80016b2:	b087      	sub	sp, #28
 80016b4:	af00      	add	r7, sp, #0
 80016b6:	60f8      	str	r0, [r7, #12]
 80016b8:	60b9      	str	r1, [r7, #8]
 80016ba:	607a      	str	r2, [r7, #4]
  /* Set bits with content of parameter "SamplingTime" with bits position     */
  /* in register and register position depending on parameter "Channel".      */
  /* Parameter "Channel" is used with masks because containing                */
  /* other bits reserved for other purpose.                                   */
  __IO uint32_t *preg = __ADC_PTR_REG_OFFSET(ADCx->SMPR1, ((Channel & ADC_CHANNEL_SMPRX_REGOFFSET_MASK) >> ADC_SMPRX_REGOFFSET_POS));
 80016bc:	68fb      	ldr	r3, [r7, #12]
 80016be:	3314      	adds	r3, #20
 80016c0:	461a      	mov	r2, r3
 80016c2:	68bb      	ldr	r3, [r7, #8]
 80016c4:	0e5b      	lsrs	r3, r3, #25
 80016c6:	009b      	lsls	r3, r3, #2
 80016c8:	f003 0304 	and.w	r3, r3, #4
 80016cc:	4413      	add	r3, r2
 80016ce:	617b      	str	r3, [r7, #20]

  MODIFY_REG(*preg,
 80016d0:	697b      	ldr	r3, [r7, #20]
 80016d2:	681a      	ldr	r2, [r3, #0]
 80016d4:	68bb      	ldr	r3, [r7, #8]
 80016d6:	0d1b      	lsrs	r3, r3, #20
 80016d8:	f003 031f 	and.w	r3, r3, #31
 80016dc:	2107      	movs	r1, #7
 80016de:	fa01 f303 	lsl.w	r3, r1, r3
 80016e2:	43db      	mvns	r3, r3
 80016e4:	401a      	ands	r2, r3
 80016e6:	68bb      	ldr	r3, [r7, #8]
 80016e8:	0d1b      	lsrs	r3, r3, #20
 80016ea:	f003 031f 	and.w	r3, r3, #31
 80016ee:	6879      	ldr	r1, [r7, #4]
 80016f0:	fa01 f303 	lsl.w	r3, r1, r3
 80016f4:	431a      	orrs	r2, r3
 80016f6:	697b      	ldr	r3, [r7, #20]
 80016f8:	601a      	str	r2, [r3, #0]
             ADC_SMPR1_SMP0 << ((Channel & ADC_CHANNEL_SMPx_BITOFFSET_MASK) >> ADC_CHANNEL_SMPx_BITOFFSET_POS),
             SamplingTime   << ((Channel & ADC_CHANNEL_SMPx_BITOFFSET_MASK) >> ADC_CHANNEL_SMPx_BITOFFSET_POS));
}
 80016fa:	bf00      	nop
 80016fc:	371c      	adds	r7, #28
 80016fe:	46bd      	mov	sp, r7
 8001700:	f85d 7b04 	ldr.w	r7, [sp], #4
 8001704:	4770      	bx	lr
	...

08001708 <LL_ADC_SetChannelSingleDiff>:
  *         @arg @ref LL_ADC_SINGLE_ENDED
  *         @arg @ref LL_ADC_DIFFERENTIAL_ENDED
  * @retval None
  */
__STATIC_INLINE void LL_ADC_SetChannelSingleDiff(ADC_TypeDef *ADCx, uint32_t Channel, uint32_t SingleDiff)
{
 8001708:	b480      	push	{r7}
 800170a:	b085      	sub	sp, #20
 800170c:	af00      	add	r7, sp, #0
 800170e:	60f8      	str	r0, [r7, #12]
 8001710:	60b9      	str	r1, [r7, #8]
 8001712:	607a      	str	r2, [r7, #4]
  /* Bits of channels in single or differential mode are set only for         */
  /* differential mode (for single mode, mask of bits allowed to be set is    */
  /* shifted out of range of bits of channels in single or differential mode. */
  MODIFY_REG(ADCx->DIFSEL,
 8001714:	68fb      	ldr	r3, [r7, #12]
 8001716:	f8d3 20b0 	ldr.w	r2, [r3, #176]	; 0xb0
 800171a:	68bb      	ldr	r3, [r7, #8]
 800171c:	f3c3 0312 	ubfx	r3, r3, #0, #19
 8001720:	43db      	mvns	r3, r3
 8001722:	401a      	ands	r2, r3
 8001724:	687b      	ldr	r3, [r7, #4]
 8001726:	f003 0318 	and.w	r3, r3, #24
 800172a:	4908      	ldr	r1, [pc, #32]	; (800174c <LL_ADC_SetChannelSingleDiff+0x44>)
 800172c:	40d9      	lsrs	r1, r3
 800172e:	68bb      	ldr	r3, [r7, #8]
 8001730:	400b      	ands	r3, r1
 8001732:	f3c3 0312 	ubfx	r3, r3, #0, #19
 8001736:	431a      	orrs	r2, r3
 8001738:	68fb      	ldr	r3, [r7, #12]
 800173a:	f8c3 20b0 	str.w	r2, [r3, #176]	; 0xb0
             Channel & ADC_SINGLEDIFF_CHANNEL_MASK,
             (Channel & ADC_SINGLEDIFF_CHANNEL_MASK) & (ADC_DIFSEL_DIFSEL >> (SingleDiff & ADC_SINGLEDIFF_CHANNEL_SHIFT_MASK)));
}
 800173e:	bf00      	nop
 8001740:	3714      	adds	r7, #20
 8001742:	46bd      	mov	sp, r7
 8001744:	f85d 7b04 	ldr.w	r7, [sp], #4
 8001748:	4770      	bx	lr
 800174a:	bf00      	nop
 800174c:	0007ffff 	.word	0x0007ffff

08001750 <LL_ADC_GetMultimode>:
  *         @arg @ref LL_ADC_MULTI_DUAL_REG_SIM_INJ_SIM
  *         @arg @ref LL_ADC_MULTI_DUAL_REG_SIM_INJ_ALT
  *         @arg @ref LL_ADC_MULTI_DUAL_REG_INT_INJ_SIM
  */
__STATIC_INLINE uint32_t LL_ADC_GetMultimode(ADC_Common_TypeDef *ADCxy_COMMON)
{
 8001750:	b480      	push	{r7}
 8001752:	b083      	sub	sp, #12
 8001754:	af00      	add	r7, sp, #0
 8001756:	6078      	str	r0, [r7, #4]
  return (uint32_t)(READ_BIT(ADCxy_COMMON->CCR, ADC_CCR_DUAL));
 8001758:	687b      	ldr	r3, [r7, #4]
 800175a:	689b      	ldr	r3, [r3, #8]
 800175c:	f003 031f 	and.w	r3, r3, #31
}
 8001760:	4618      	mov	r0, r3
 8001762:	370c      	adds	r7, #12
 8001764:	46bd      	mov	sp, r7
 8001766:	f85d 7b04 	ldr.w	r7, [sp], #4
 800176a:	4770      	bx	lr

0800176c <LL_ADC_DisableDeepPowerDown>:
  * @rmtoll CR       DEEPPWD        LL_ADC_DisableDeepPowerDown
  * @param  ADCx ADC instance
  * @retval None
  */
__STATIC_INLINE void LL_ADC_DisableDeepPowerDown(ADC_TypeDef *ADCx)
{
 800176c:	b480      	push	{r7}
 800176e:	b083      	sub	sp, #12
 8001770:	af00      	add	r7, sp, #0
 8001772:	6078      	str	r0, [r7, #4]
  /* Note: Write register with some additional bits forced to state reset     */
  /*       instead of modifying only the selected bit for this function,      */
  /*       to not interfere with bits with HW property "rs".                  */
  CLEAR_BIT(ADCx->CR, (ADC_CR_DEEPPWD | ADC_CR_BITS_PROPERTY_RS));
 8001774:	687b      	ldr	r3, [r7, #4]
 8001776:	689b      	ldr	r3, [r3, #8]
 8001778:	f023 4320 	bic.w	r3, r3, #2684354560	; 0xa0000000
 800177c:	f023 033f 	bic.w	r3, r3, #63	; 0x3f
 8001780:	687a      	ldr	r2, [r7, #4]
 8001782:	6093      	str	r3, [r2, #8]
}
 8001784:	bf00      	nop
 8001786:	370c      	adds	r7, #12
 8001788:	46bd      	mov	sp, r7
 800178a:	f85d 7b04 	ldr.w	r7, [sp], #4
 800178e:	4770      	bx	lr

08001790 <LL_ADC_IsDeepPowerDownEnabled>:
  * @rmtoll CR       DEEPPWD        LL_ADC_IsDeepPowerDownEnabled
  * @param  ADCx ADC instance
  * @retval 0: deep power down is disabled, 1: deep power down is enabled.
  */
__STATIC_INLINE uint32_t LL_ADC_IsDeepPowerDownEnabled(ADC_TypeDef *ADCx)
{
 8001790:	b480      	push	{r7}
 8001792:	b083      	sub	sp, #12
 8001794:	af00      	add	r7, sp, #0
 8001796:	6078      	str	r0, [r7, #4]
  return ((READ_BIT(ADCx->CR, ADC_CR_DEEPPWD) == (ADC_CR_DEEPPWD)) ? 1UL : 0UL);
 8001798:	687b      	ldr	r3, [r7, #4]
 800179a:	689b      	ldr	r3, [r3, #8]
 800179c:	f003 5300 	and.w	r3, r3, #536870912	; 0x20000000
 80017a0:	f1b3 5f00 	cmp.w	r3, #536870912	; 0x20000000
 80017a4:	d101      	bne.n	80017aa <LL_ADC_IsDeepPowerDownEnabled+0x1a>
 80017a6:	2301      	movs	r3, #1
 80017a8:	e000      	b.n	80017ac <LL_ADC_IsDeepPowerDownEnabled+0x1c>
 80017aa:	2300      	movs	r3, #0
}
 80017ac:	4618      	mov	r0, r3
 80017ae:	370c      	adds	r7, #12
 80017b0:	46bd      	mov	sp, r7
 80017b2:	f85d 7b04 	ldr.w	r7, [sp], #4
 80017b6:	4770      	bx	lr

080017b8 <LL_ADC_EnableInternalRegulator>:
  * @rmtoll CR       ADVREGEN       LL_ADC_EnableInternalRegulator
  * @param  ADCx ADC instance
  * @retval None
  */
__STATIC_INLINE void LL_ADC_EnableInternalRegulator(ADC_TypeDef *ADCx)
{
 80017b8:	b480      	push	{r7}
 80017ba:	b083      	sub	sp, #12
 80017bc:	af00      	add	r7, sp, #0
 80017be:	6078      	str	r0, [r7, #4]
  /* Note: Write register with some additional bits forced to state reset     */
  /*       instead of modifying only the selected bit for this function,      */
  /*       to not interfere with bits with HW property "rs".                  */
  MODIFY_REG(ADCx->CR,
 80017c0:	687b      	ldr	r3, [r7, #4]
 80017c2:	689b      	ldr	r3, [r3, #8]
 80017c4:	f023 4310 	bic.w	r3, r3, #2415919104	; 0x90000000
 80017c8:	f023 033f 	bic.w	r3, r3, #63	; 0x3f
 80017cc:	f043 5280 	orr.w	r2, r3, #268435456	; 0x10000000
 80017d0:	687b      	ldr	r3, [r7, #4]
 80017d2:	609a      	str	r2, [r3, #8]
             ADC_CR_BITS_PROPERTY_RS,
             ADC_CR_ADVREGEN);
}
 80017d4:	bf00      	nop
 80017d6:	370c      	adds	r7, #12
 80017d8:	46bd      	mov	sp, r7
 80017da:	f85d 7b04 	ldr.w	r7, [sp], #4
 80017de:	4770      	bx	lr

080017e0 <LL_ADC_IsInternalRegulatorEnabled>:
  * @rmtoll CR       ADVREGEN       LL_ADC_IsInternalRegulatorEnabled
  * @param  ADCx ADC instance
  * @retval 0: internal regulator is disabled, 1: internal regulator is enabled.
  */
__STATIC_INLINE uint32_t LL_ADC_IsInternalRegulatorEnabled(ADC_TypeDef *ADCx)
{
 80017e0:	b480      	push	{r7}
 80017e2:	b083      	sub	sp, #12
 80017e4:	af00      	add	r7, sp, #0
 80017e6:	6078      	str	r0, [r7, #4]
  return ((READ_BIT(ADCx->CR, ADC_CR_ADVREGEN) == (ADC_CR_ADVREGEN)) ? 1UL : 0UL);
 80017e8:	687b      	ldr	r3, [r7, #4]
 80017ea:	689b      	ldr	r3, [r3, #8]
 80017ec:	f003 5380 	and.w	r3, r3, #268435456	; 0x10000000
 80017f0:	f1b3 5f80 	cmp.w	r3, #268435456	; 0x10000000
 80017f4:	d101      	bne.n	80017fa <LL_ADC_IsInternalRegulatorEnabled+0x1a>
 80017f6:	2301      	movs	r3, #1
 80017f8:	e000      	b.n	80017fc <LL_ADC_IsInternalRegulatorEnabled+0x1c>
 80017fa:	2300      	movs	r3, #0
}
 80017fc:	4618      	mov	r0, r3
 80017fe:	370c      	adds	r7, #12
 8001800:	46bd      	mov	sp, r7
 8001802:	f85d 7b04 	ldr.w	r7, [sp], #4
 8001806:	4770      	bx	lr

08001808 <LL_ADC_Enable>:
  * @rmtoll CR       ADEN           LL_ADC_Enable
  * @param  ADCx ADC instance
  * @retval None
  */
__STATIC_INLINE void LL_ADC_Enable(ADC_TypeDef *ADCx)
{
 8001808:	b480      	push	{r7}
 800180a:	b083      	sub	sp, #12
 800180c:	af00      	add	r7, sp, #0
 800180e:	6078      	str	r0, [r7, #4]
  /* Note: Write register with some additional bits forced to state reset     */
  /*       instead of modifying only the selected bit for this function,      */
  /*       to not interfere with bits with HW property "rs".                  */
  MODIFY_REG(ADCx->CR,
 8001810:	687b      	ldr	r3, [r7, #4]
 8001812:	689b      	ldr	r3, [r3, #8]
 8001814:	f023 4300 	bic.w	r3, r3, #2147483648	; 0x80000000
 8001818:	f023 033f 	bic.w	r3, r3, #63	; 0x3f
 800181c:	f043 0201 	orr.w	r2, r3, #1
 8001820:	687b      	ldr	r3, [r7, #4]
 8001822:	609a      	str	r2, [r3, #8]
             ADC_CR_BITS_PROPERTY_RS,
             ADC_CR_ADEN);
}
 8001824:	bf00      	nop
 8001826:	370c      	adds	r7, #12
 8001828:	46bd      	mov	sp, r7
 800182a:	f85d 7b04 	ldr.w	r7, [sp], #4
 800182e:	4770      	bx	lr

08001830 <LL_ADC_Disable>:
  * @rmtoll CR       ADDIS          LL_ADC_Disable
  * @param  ADCx ADC instance
  * @retval None
  */
__STATIC_INLINE void LL_ADC_Disable(ADC_TypeDef *ADCx)
{
 8001830:	b480      	push	{r7}
 8001832:	b083      	sub	sp, #12
 8001834:	af00      	add	r7, sp, #0
 8001836:	6078      	str	r0, [r7, #4]
  /* Note: Write register with some additional bits forced to state reset     */
  /*       instead of modifying only the selected bit for this function,      */
  /*       to not interfere with bits with HW property "rs".                  */
  MODIFY_REG(ADCx->CR,
 8001838:	687b      	ldr	r3, [r7, #4]
 800183a:	689b      	ldr	r3, [r3, #8]
 800183c:	f023 4300 	bic.w	r3, r3, #2147483648	; 0x80000000
 8001840:	f023 033f 	bic.w	r3, r3, #63	; 0x3f
 8001844:	f043 0202 	orr.w	r2, r3, #2
 8001848:	687b      	ldr	r3, [r7, #4]
 800184a:	609a      	str	r2, [r3, #8]
             ADC_CR_BITS_PROPERTY_RS,
             ADC_CR_ADDIS);
}
 800184c:	bf00      	nop
 800184e:	370c      	adds	r7, #12
 8001850:	46bd      	mov	sp, r7
 8001852:	f85d 7b04 	ldr.w	r7, [sp], #4
 8001856:	4770      	bx	lr

08001858 <LL_ADC_IsEnabled>:
  * @rmtoll CR       ADEN           LL_ADC_IsEnabled
  * @param  ADCx ADC instance
  * @retval 0: ADC is disabled, 1: ADC is enabled.
  */
__STATIC_INLINE uint32_t LL_ADC_IsEnabled(ADC_TypeDef *ADCx)
{
 8001858:	b480      	push	{r7}
 800185a:	b083      	sub	sp, #12
 800185c:	af00      	add	r7, sp, #0
 800185e:	6078      	str	r0, [r7, #4]
  return ((READ_BIT(ADCx->CR, ADC_CR_ADEN) == (ADC_CR_ADEN)) ? 1UL : 0UL);
 8001860:	687b      	ldr	r3, [r7, #4]
 8001862:	689b      	ldr	r3, [r3, #8]
 8001864:	f003 0301 	and.w	r3, r3, #1
 8001868:	2b01      	cmp	r3, #1
 800186a:	d101      	bne.n	8001870 <LL_ADC_IsEnabled+0x18>
 800186c:	2301      	movs	r3, #1
 800186e:	e000      	b.n	8001872 <LL_ADC_IsEnabled+0x1a>
 8001870:	2300      	movs	r3, #0
}
 8001872:	4618      	mov	r0, r3
 8001874:	370c      	adds	r7, #12
 8001876:	46bd      	mov	sp, r7
 8001878:	f85d 7b04 	ldr.w	r7, [sp], #4
 800187c:	4770      	bx	lr

0800187e <LL_ADC_IsDisableOngoing>:
  * @rmtoll CR       ADDIS          LL_ADC_IsDisableOngoing
  * @param  ADCx ADC instance
  * @retval 0: no ADC disable command on going.
  */
__STATIC_INLINE uint32_t LL_ADC_IsDisableOngoing(ADC_TypeDef *ADCx)
{
 800187e:	b480      	push	{r7}
 8001880:	b083      	sub	sp, #12
 8001882:	af00      	add	r7, sp, #0
 8001884:	6078      	str	r0, [r7, #4]
  return ((READ_BIT(ADCx->CR, ADC_CR_ADDIS) == (ADC_CR_ADDIS)) ? 1UL : 0UL);
 8001886:	687b      	ldr	r3, [r7, #4]
 8001888:	689b      	ldr	r3, [r3, #8]
 800188a:	f003 0302 	and.w	r3, r3, #2
 800188e:	2b02      	cmp	r3, #2
 8001890:	d101      	bne.n	8001896 <LL_ADC_IsDisableOngoing+0x18>
 8001892:	2301      	movs	r3, #1
 8001894:	e000      	b.n	8001898 <LL_ADC_IsDisableOngoing+0x1a>
 8001896:	2300      	movs	r3, #0
}
 8001898:	4618      	mov	r0, r3
 800189a:	370c      	adds	r7, #12
 800189c:	46bd      	mov	sp, r7
 800189e:	f85d 7b04 	ldr.w	r7, [sp], #4
 80018a2:	4770      	bx	lr

080018a4 <LL_ADC_REG_StartConversion>:
  * @rmtoll CR       ADSTART        LL_ADC_REG_StartConversion
  * @param  ADCx ADC instance
  * @retval None
  */
__STATIC_INLINE void LL_ADC_REG_StartConversion(ADC_TypeDef *ADCx)
{
 80018a4:	b480      	push	{r7}
 80018a6:	b083      	sub	sp, #12
 80018a8:	af00      	add	r7, sp, #0
 80018aa:	6078      	str	r0, [r7, #4]
  /* Note: Write register with some additional bits forced to state reset     */
  /*       instead of modifying only the selected bit for this function,      */
  /*       to not interfere with bits with HW property "rs".                  */
  MODIFY_REG(ADCx->CR,
 80018ac:	687b      	ldr	r3, [r7, #4]
 80018ae:	689b      	ldr	r3, [r3, #8]
 80018b0:	f023 4300 	bic.w	r3, r3, #2147483648	; 0x80000000
 80018b4:	f023 033f 	bic.w	r3, r3, #63	; 0x3f
 80018b8:	f043 0204 	orr.w	r2, r3, #4
 80018bc:	687b      	ldr	r3, [r7, #4]
 80018be:	609a      	str	r2, [r3, #8]
             ADC_CR_BITS_PROPERTY_RS,
             ADC_CR_ADSTART);
}
 80018c0:	bf00      	nop
 80018c2:	370c      	adds	r7, #12
 80018c4:	46bd      	mov	sp, r7
 80018c6:	f85d 7b04 	ldr.w	r7, [sp], #4
 80018ca:	4770      	bx	lr

080018cc <LL_ADC_REG_IsConversionOngoing>:
  * @rmtoll CR       ADSTART        LL_ADC_REG_IsConversionOngoing
  * @param  ADCx ADC instance
  * @retval 0: no conversion is on going on ADC group regular.
  */
__STATIC_INLINE uint32_t LL_ADC_REG_IsConversionOngoing(ADC_TypeDef *ADCx)
{
 80018cc:	b480      	push	{r7}
 80018ce:	b083      	sub	sp, #12
 80018d0:	af00      	add	r7, sp, #0
 80018d2:	6078      	str	r0, [r7, #4]
  return ((READ_BIT(ADCx->CR, ADC_CR_ADSTART) == (ADC_CR_ADSTART)) ? 1UL : 0UL);
 80018d4:	687b      	ldr	r3, [r7, #4]
 80018d6:	689b      	ldr	r3, [r3, #8]
 80018d8:	f003 0304 	and.w	r3, r3, #4
 80018dc:	2b04      	cmp	r3, #4
 80018de:	d101      	bne.n	80018e4 <LL_ADC_REG_IsConversionOngoing+0x18>
 80018e0:	2301      	movs	r3, #1
 80018e2:	e000      	b.n	80018e6 <LL_ADC_REG_IsConversionOngoing+0x1a>
 80018e4:	2300      	movs	r3, #0
}
 80018e6:	4618      	mov	r0, r3
 80018e8:	370c      	adds	r7, #12
 80018ea:	46bd      	mov	sp, r7
 80018ec:	f85d 7b04 	ldr.w	r7, [sp], #4
 80018f0:	4770      	bx	lr

080018f2 <LL_ADC_INJ_IsConversionOngoing>:
  * @rmtoll CR       JADSTART       LL_ADC_INJ_IsConversionOngoing
  * @param  ADCx ADC instance
  * @retval 0: no conversion is on going on ADC group injected.
  */
__STATIC_INLINE uint32_t LL_ADC_INJ_IsConversionOngoing(ADC_TypeDef *ADCx)
{
 80018f2:	b480      	push	{r7}
 80018f4:	b083      	sub	sp, #12
 80018f6:	af00      	add	r7, sp, #0
 80018f8:	6078      	str	r0, [r7, #4]
  return ((READ_BIT(ADCx->CR, ADC_CR_JADSTART) == (ADC_CR_JADSTART)) ? 1UL : 0UL);
 80018fa:	687b      	ldr	r3, [r7, #4]
 80018fc:	689b      	ldr	r3, [r3, #8]
 80018fe:	f003 0308 	and.w	r3, r3, #8
 8001902:	2b08      	cmp	r3, #8
 8001904:	d101      	bne.n	800190a <LL_ADC_INJ_IsConversionOngoing+0x18>
 8001906:	2301      	movs	r3, #1
 8001908:	e000      	b.n	800190c <LL_ADC_INJ_IsConversionOngoing+0x1a>
 800190a:	2300      	movs	r3, #0
}
 800190c:	4618      	mov	r0, r3
 800190e:	370c      	adds	r7, #12
 8001910:	46bd      	mov	sp, r7
 8001912:	f85d 7b04 	ldr.w	r7, [sp], #4
 8001916:	4770      	bx	lr

08001918 <HAL_ADC_Init>:
  *         without  disabling the other ADCs.
  * @param hadc ADC handle
  * @retval HAL status
  */
HAL_StatusTypeDef HAL_ADC_Init(ADC_HandleTypeDef *hadc)
{
 8001918:	b590      	push	{r4, r7, lr}
 800191a:	b089      	sub	sp, #36	; 0x24
 800191c:	af00      	add	r7, sp, #0
 800191e:	6078      	str	r0, [r7, #4]
  HAL_StatusTypeDef tmp_hal_status = HAL_OK;
 8001920:	2300      	movs	r3, #0
 8001922:	77fb      	strb	r3, [r7, #31]
  uint32_t tmpCFGR;
  uint32_t tmp_adc_reg_is_conversion_on_going;
  __IO uint32_t wait_loop_index = 0UL;
 8001924:	2300      	movs	r3, #0
 8001926:	60bb      	str	r3, [r7, #8]
  uint32_t tmp_adc_is_conversion_on_going_regular;
  uint32_t tmp_adc_is_conversion_on_going_injected;

  /* Check ADC handle */
  if (hadc == NULL)
 8001928:	687b      	ldr	r3, [r7, #4]
 800192a:	2b00      	cmp	r3, #0
 800192c:	d101      	bne.n	8001932 <HAL_ADC_Init+0x1a>
  {
    return HAL_ERROR;
 800192e:	2301      	movs	r3, #1
 8001930:	e136      	b.n	8001ba0 <HAL_ADC_Init+0x288>
  assert_param(IS_ADC_EOC_SELECTION(hadc->Init.EOCSelection));
  assert_param(IS_ADC_OVERRUN(hadc->Init.Overrun));
  assert_param(IS_FUNCTIONAL_STATE(hadc->Init.LowPowerAutoWait));
  assert_param(IS_FUNCTIONAL_STATE(hadc->Init.OversamplingMode));

  if (hadc->Init.ScanConvMode != ADC_SCAN_DISABLE)
 8001932:	687b      	ldr	r3, [r7, #4]
 8001934:	691b      	ldr	r3, [r3, #16]
 8001936:	2b00      	cmp	r3, #0
  /* DISCEN and CONT bits cannot be set at the same time */
  assert_param(!((hadc->Init.DiscontinuousConvMode == ENABLE) && (hadc->Init.ContinuousConvMode == ENABLE)));

  /* Actions performed only if ADC is coming from state reset:                */
  /* - Initialization of ADC MSP                                              */
  if (hadc->State == HAL_ADC_STATE_RESET)
 8001938:	687b      	ldr	r3, [r7, #4]
 800193a:	6d5b      	ldr	r3, [r3, #84]	; 0x54
 800193c:	2b00      	cmp	r3, #0
 800193e:	d109      	bne.n	8001954 <HAL_ADC_Init+0x3c>

    /* Init the low level hardware */
    hadc->MspInitCallback(hadc);
#else
    /* Init the low level hardware */
    HAL_ADC_MspInit(hadc);
 8001940:	6878      	ldr	r0, [r7, #4]
 8001942:	f7ff fa3d 	bl	8000dc0 <HAL_ADC_MspInit>
#endif /* USE_HAL_ADC_REGISTER_CALLBACKS */

    /* Set ADC error code to none */
    ADC_CLEAR_ERRORCODE(hadc);
 8001946:	687b      	ldr	r3, [r7, #4]
 8001948:	2200      	movs	r2, #0
 800194a:	659a      	str	r2, [r3, #88]	; 0x58

    /* Initialize Lock */
    hadc->Lock = HAL_UNLOCKED;
 800194c:	687b      	ldr	r3, [r7, #4]
 800194e:	2200      	movs	r2, #0
 8001950:	f883 2050 	strb.w	r2, [r3, #80]	; 0x50
  }

  /* - Exit from deep-power-down mode and ADC voltage regulator enable        */
  if (LL_ADC_IsDeepPowerDownEnabled(hadc->Instance) != 0UL)
 8001954:	687b      	ldr	r3, [r7, #4]
 8001956:	681b      	ldr	r3, [r3, #0]
 8001958:	4618      	mov	r0, r3
 800195a:	f7ff ff19 	bl	8001790 <LL_ADC_IsDeepPowerDownEnabled>
 800195e:	4603      	mov	r3, r0
 8001960:	2b00      	cmp	r3, #0
 8001962:	d004      	beq.n	800196e <HAL_ADC_Init+0x56>
  {
    /* Disable ADC deep power down mode */
    LL_ADC_DisableDeepPowerDown(hadc->Instance);
 8001964:	687b      	ldr	r3, [r7, #4]
 8001966:	681b      	ldr	r3, [r3, #0]
 8001968:	4618      	mov	r0, r3
 800196a:	f7ff feff 	bl	800176c <LL_ADC_DisableDeepPowerDown>
    /* System was in deep power down mode, calibration must
     be relaunched or a previously saved calibration factor
     re-applied once the ADC voltage regulator is enabled */
  }

  if (LL_ADC_IsInternalRegulatorEnabled(hadc->Instance) == 0UL)
 800196e:	687b      	ldr	r3, [r7, #4]
 8001970:	681b      	ldr	r3, [r3, #0]
 8001972:	4618      	mov	r0, r3
 8001974:	f7ff ff34 	bl	80017e0 <LL_ADC_IsInternalRegulatorEnabled>
 8001978:	4603      	mov	r3, r0
 800197a:	2b00      	cmp	r3, #0
 800197c:	d115      	bne.n	80019aa <HAL_ADC_Init+0x92>
  {
    /* Enable ADC internal voltage regulator */
    LL_ADC_EnableInternalRegulator(hadc->Instance);
 800197e:	687b      	ldr	r3, [r7, #4]
 8001980:	681b      	ldr	r3, [r3, #0]
 8001982:	4618      	mov	r0, r3
 8001984:	f7ff ff18 	bl	80017b8 <LL_ADC_EnableInternalRegulator>

    /* Note: Variable divided by 2 to compensate partially              */
    /*       CPU processing cycles, scaling in us split to not          */
    /*       exceed 32 bits register capacity and handle low frequency. */
    wait_loop_index = ((LL_ADC_DELAY_INTERNAL_REGUL_STAB_US / 10UL) * ((SystemCoreClock / (100000UL * 2UL)) + 1UL));
 8001988:	4b87      	ldr	r3, [pc, #540]	; (8001ba8 <HAL_ADC_Init+0x290>)
 800198a:	681b      	ldr	r3, [r3, #0]
 800198c:	099b      	lsrs	r3, r3, #6
 800198e:	4a87      	ldr	r2, [pc, #540]	; (8001bac <HAL_ADC_Init+0x294>)
 8001990:	fba2 2303 	umull	r2, r3, r2, r3
 8001994:	099b      	lsrs	r3, r3, #6
 8001996:	3301      	adds	r3, #1
 8001998:	005b      	lsls	r3, r3, #1
 800199a:	60bb      	str	r3, [r7, #8]
    while (wait_loop_index != 0UL)
 800199c:	e002      	b.n	80019a4 <HAL_ADC_Init+0x8c>
    {
      wait_loop_index--;
 800199e:	68bb      	ldr	r3, [r7, #8]
 80019a0:	3b01      	subs	r3, #1
 80019a2:	60bb      	str	r3, [r7, #8]
    while (wait_loop_index != 0UL)
 80019a4:	68bb      	ldr	r3, [r7, #8]
 80019a6:	2b00      	cmp	r3, #0
 80019a8:	d1f9      	bne.n	800199e <HAL_ADC_Init+0x86>
  }

  /* Verification that ADC voltage regulator is correctly enabled, whether    */
  /* or not ADC is coming from state reset (if any potential problem of       */
  /* clocking, voltage regulator would not be enabled).                       */
  if (LL_ADC_IsInternalRegulatorEnabled(hadc->Instance) == 0UL)
 80019aa:	687b      	ldr	r3, [r7, #4]
 80019ac:	681b      	ldr	r3, [r3, #0]
 80019ae:	4618      	mov	r0, r3
 80019b0:	f7ff ff16 	bl	80017e0 <LL_ADC_IsInternalRegulatorEnabled>
 80019b4:	4603      	mov	r3, r0
 80019b6:	2b00      	cmp	r3, #0
 80019b8:	d10d      	bne.n	80019d6 <HAL_ADC_Init+0xbe>
  {
    /* Update ADC state machine to error */
    SET_BIT(hadc->State, HAL_ADC_STATE_ERROR_INTERNAL);
 80019ba:	687b      	ldr	r3, [r7, #4]
 80019bc:	6d5b      	ldr	r3, [r3, #84]	; 0x54
 80019be:	f043 0210 	orr.w	r2, r3, #16
 80019c2:	687b      	ldr	r3, [r7, #4]
 80019c4:	655a      	str	r2, [r3, #84]	; 0x54

    /* Set ADC error code to ADC peripheral internal error */
    SET_BIT(hadc->ErrorCode, HAL_ADC_ERROR_INTERNAL);
 80019c6:	687b      	ldr	r3, [r7, #4]
 80019c8:	6d9b      	ldr	r3, [r3, #88]	; 0x58
 80019ca:	f043 0201 	orr.w	r2, r3, #1
 80019ce:	687b      	ldr	r3, [r7, #4]
 80019d0:	659a      	str	r2, [r3, #88]	; 0x58

    tmp_hal_status = HAL_ERROR;
 80019d2:	2301      	movs	r3, #1
 80019d4:	77fb      	strb	r3, [r7, #31]

  /* Configuration of ADC parameters if previous preliminary actions are      */
  /* correctly completed and if there is no conversion on going on regular    */
  /* group (ADC may already be enabled at this point if HAL_ADC_Init() is     */
  /* called to update a parameter on the fly).                                */
  tmp_adc_reg_is_conversion_on_going = LL_ADC_REG_IsConversionOngoing(hadc->Instance);
 80019d6:	687b      	ldr	r3, [r7, #4]
 80019d8:	681b      	ldr	r3, [r3, #0]
 80019da:	4618      	mov	r0, r3
 80019dc:	f7ff ff76 	bl	80018cc <LL_ADC_REG_IsConversionOngoing>
 80019e0:	6178      	str	r0, [r7, #20]

  if (((hadc->State & HAL_ADC_STATE_ERROR_INTERNAL) == 0UL)
 80019e2:	687b      	ldr	r3, [r7, #4]
 80019e4:	6d5b      	ldr	r3, [r3, #84]	; 0x54
 80019e6:	f003 0310 	and.w	r3, r3, #16
 80019ea:	2b00      	cmp	r3, #0
 80019ec:	f040 80cf 	bne.w	8001b8e <HAL_ADC_Init+0x276>
      && (tmp_adc_reg_is_conversion_on_going == 0UL)
 80019f0:	697b      	ldr	r3, [r7, #20]
 80019f2:	2b00      	cmp	r3, #0
 80019f4:	f040 80cb 	bne.w	8001b8e <HAL_ADC_Init+0x276>
     )
  {
    /* Set ADC state */
    ADC_STATE_CLR_SET(hadc->State,
 80019f8:	687b      	ldr	r3, [r7, #4]
 80019fa:	6d5b      	ldr	r3, [r3, #84]	; 0x54
 80019fc:	f423 7381 	bic.w	r3, r3, #258	; 0x102
 8001a00:	f043 0202 	orr.w	r2, r3, #2
 8001a04:	687b      	ldr	r3, [r7, #4]
 8001a06:	655a      	str	r2, [r3, #84]	; 0x54
    /* Configuration of common ADC parameters                                 */

    /* Parameters update conditioned to ADC state:                            */
    /* Parameters that can be updated only when ADC is disabled:              */
    /*  - clock configuration                                                 */
    if (LL_ADC_IsEnabled(hadc->Instance) == 0UL)
 8001a08:	687b      	ldr	r3, [r7, #4]
 8001a0a:	681b      	ldr	r3, [r3, #0]
 8001a0c:	4618      	mov	r0, r3
 8001a0e:	f7ff ff23 	bl	8001858 <LL_ADC_IsEnabled>
 8001a12:	4603      	mov	r3, r0
 8001a14:	2b00      	cmp	r3, #0
 8001a16:	d115      	bne.n	8001a44 <HAL_ADC_Init+0x12c>
    {
      if (__LL_ADC_IS_ENABLED_ALL_COMMON_INSTANCE(__LL_ADC_COMMON_INSTANCE(hadc->Instance)) == 0UL)
 8001a18:	4865      	ldr	r0, [pc, #404]	; (8001bb0 <HAL_ADC_Init+0x298>)
 8001a1a:	f7ff ff1d 	bl	8001858 <LL_ADC_IsEnabled>
 8001a1e:	4604      	mov	r4, r0
 8001a20:	4864      	ldr	r0, [pc, #400]	; (8001bb4 <HAL_ADC_Init+0x29c>)
 8001a22:	f7ff ff19 	bl	8001858 <LL_ADC_IsEnabled>
 8001a26:	4603      	mov	r3, r0
 8001a28:	431c      	orrs	r4, r3
 8001a2a:	4863      	ldr	r0, [pc, #396]	; (8001bb8 <HAL_ADC_Init+0x2a0>)
 8001a2c:	f7ff ff14 	bl	8001858 <LL_ADC_IsEnabled>
 8001a30:	4603      	mov	r3, r0
 8001a32:	4323      	orrs	r3, r4
 8001a34:	2b00      	cmp	r3, #0
 8001a36:	d105      	bne.n	8001a44 <HAL_ADC_Init+0x12c>
        /*     parameters: MDMA, DMACFG, DELAY, DUAL (set by API                */
        /*     HAL_ADCEx_MultiModeConfigChannel() )                             */
        /*   - internal measurement paths: Vbat, temperature sensor, Vref       */
        /*     (set into HAL_ADC_ConfigChannel() or                             */
        /*     HAL_ADCEx_InjectedConfigChannel() )                              */
        LL_ADC_SetCommonClock(__LL_ADC_COMMON_INSTANCE(hadc->Instance), hadc->Init.ClockPrescaler);
 8001a38:	687b      	ldr	r3, [r7, #4]
 8001a3a:	685b      	ldr	r3, [r3, #4]
 8001a3c:	4619      	mov	r1, r3
 8001a3e:	485f      	ldr	r0, [pc, #380]	; (8001bbc <HAL_ADC_Init+0x2a4>)
 8001a40:	f7ff fd6e 	bl	8001520 <LL_ADC_SetCommonClock>
    /*  - external trigger polarity                Init.ExternalTrigConvEdge  */
    /*  - continuous conversion mode               Init.ContinuousConvMode    */
    /*  - overrun                                  Init.Overrun               */
    /*  - discontinuous mode                       Init.DiscontinuousConvMode */
    /*  - discontinuous mode channel count         Init.NbrOfDiscConversion   */
    tmpCFGR  = (ADC_CFGR_CONTINUOUS((uint32_t)hadc->Init.ContinuousConvMode)           |
 8001a44:	687b      	ldr	r3, [r7, #4]
 8001a46:	7e5b      	ldrb	r3, [r3, #25]
 8001a48:	035a      	lsls	r2, r3, #13
                hadc->Init.Overrun                                                     |
 8001a4a:	687b      	ldr	r3, [r7, #4]
 8001a4c:	6b5b      	ldr	r3, [r3, #52]	; 0x34
    tmpCFGR  = (ADC_CFGR_CONTINUOUS((uint32_t)hadc->Init.ContinuousConvMode)           |
 8001a4e:	431a      	orrs	r2, r3
                hadc->Init.DataAlign                                                   |
 8001a50:	687b      	ldr	r3, [r7, #4]
 8001a52:	68db      	ldr	r3, [r3, #12]
                hadc->Init.Overrun                                                     |
 8001a54:	431a      	orrs	r2, r3
                hadc->Init.Resolution                                                  |
 8001a56:	687b      	ldr	r3, [r7, #4]
 8001a58:	689b      	ldr	r3, [r3, #8]
                hadc->Init.DataAlign                                                   |
 8001a5a:	431a      	orrs	r2, r3
                ADC_CFGR_REG_DISCONTINUOUS((uint32_t)hadc->Init.DiscontinuousConvMode));
 8001a5c:	687b      	ldr	r3, [r7, #4]
 8001a5e:	f893 3020 	ldrb.w	r3, [r3, #32]
 8001a62:	041b      	lsls	r3, r3, #16
    tmpCFGR  = (ADC_CFGR_CONTINUOUS((uint32_t)hadc->Init.ContinuousConvMode)           |
 8001a64:	4313      	orrs	r3, r2
 8001a66:	61bb      	str	r3, [r7, #24]

    if (hadc->Init.DiscontinuousConvMode == ENABLE)
 8001a68:	687b      	ldr	r3, [r7, #4]
 8001a6a:	f893 3020 	ldrb.w	r3, [r3, #32]
 8001a6e:	2b01      	cmp	r3, #1
 8001a70:	d106      	bne.n	8001a80 <HAL_ADC_Init+0x168>
    {
      tmpCFGR |= ADC_CFGR_DISCONTINUOUS_NUM(hadc->Init.NbrOfDiscConversion);
 8001a72:	687b      	ldr	r3, [r7, #4]
 8001a74:	6a5b      	ldr	r3, [r3, #36]	; 0x24
 8001a76:	3b01      	subs	r3, #1
 8001a78:	045b      	lsls	r3, r3, #17
 8001a7a:	69ba      	ldr	r2, [r7, #24]
 8001a7c:	4313      	orrs	r3, r2
 8001a7e:	61bb      	str	r3, [r7, #24]
    /* Enable external trigger if trigger selection is different of software  */
    /* start.                                                                 */
    /* Note: This configuration keeps the hardware feature of parameter       */
    /*       ExternalTrigConvEdge "trigger edge none" equivalent to           */
    /*       software start.                                                  */
    if (hadc->Init.ExternalTrigConv != ADC_SOFTWARE_START)
 8001a80:	687b      	ldr	r3, [r7, #4]
 8001a82:	6a9b      	ldr	r3, [r3, #40]	; 0x28
 8001a84:	2b00      	cmp	r3, #0
 8001a86:	d009      	beq.n	8001a9c <HAL_ADC_Init+0x184>
    {
      tmpCFGR |= ((hadc->Init.ExternalTrigConv & ADC_CFGR_EXTSEL)
 8001a88:	687b      	ldr	r3, [r7, #4]
 8001a8a:	6a9b      	ldr	r3, [r3, #40]	; 0x28
 8001a8c:	f403 7270 	and.w	r2, r3, #960	; 0x3c0
                  | hadc->Init.ExternalTrigConvEdge
 8001a90:	687b      	ldr	r3, [r7, #4]
 8001a92:	6adb      	ldr	r3, [r3, #44]	; 0x2c
 8001a94:	4313      	orrs	r3, r2
      tmpCFGR |= ((hadc->Init.ExternalTrigConv & ADC_CFGR_EXTSEL)
 8001a96:	69ba      	ldr	r2, [r7, #24]
 8001a98:	4313      	orrs	r3, r2
 8001a9a:	61bb      	str	r3, [r7, #24]
                 );
    }

    /* Update Configuration Register CFGR */
    MODIFY_REG(hadc->Instance->CFGR, ADC_CFGR_FIELDS_1, tmpCFGR);
 8001a9c:	687b      	ldr	r3, [r7, #4]
 8001a9e:	681b      	ldr	r3, [r3, #0]
 8001aa0:	68da      	ldr	r2, [r3, #12]
 8001aa2:	4b47      	ldr	r3, [pc, #284]	; (8001bc0 <HAL_ADC_Init+0x2a8>)
 8001aa4:	4013      	ands	r3, r2
 8001aa6:	687a      	ldr	r2, [r7, #4]
 8001aa8:	6812      	ldr	r2, [r2, #0]
 8001aaa:	69b9      	ldr	r1, [r7, #24]
 8001aac:	430b      	orrs	r3, r1
 8001aae:	60d3      	str	r3, [r2, #12]
    /* Parameters that can be updated when ADC is disabled or enabled without */
    /* conversion on going on regular and injected groups:                    */
    /*  - DMA continuous request          Init.DMAContinuousRequests          */
    /*  - LowPowerAutoWait feature        Init.LowPowerAutoWait               */
    /*  - Oversampling parameters         Init.Oversampling                   */
    tmp_adc_is_conversion_on_going_regular = LL_ADC_REG_IsConversionOngoing(hadc->Instance);
 8001ab0:	687b      	ldr	r3, [r7, #4]
 8001ab2:	681b      	ldr	r3, [r3, #0]
 8001ab4:	4618      	mov	r0, r3
 8001ab6:	f7ff ff09 	bl	80018cc <LL_ADC_REG_IsConversionOngoing>
 8001aba:	6138      	str	r0, [r7, #16]
    tmp_adc_is_conversion_on_going_injected = LL_ADC_INJ_IsConversionOngoing(hadc->Instance);
 8001abc:	687b      	ldr	r3, [r7, #4]
 8001abe:	681b      	ldr	r3, [r3, #0]
 8001ac0:	4618      	mov	r0, r3
 8001ac2:	f7ff ff16 	bl	80018f2 <LL_ADC_INJ_IsConversionOngoing>
 8001ac6:	60f8      	str	r0, [r7, #12]
    if ((tmp_adc_is_conversion_on_going_regular == 0UL)
 8001ac8:	693b      	ldr	r3, [r7, #16]
 8001aca:	2b00      	cmp	r3, #0
 8001acc:	d13d      	bne.n	8001b4a <HAL_ADC_Init+0x232>
        && (tmp_adc_is_conversion_on_going_injected == 0UL)
 8001ace:	68fb      	ldr	r3, [r7, #12]
 8001ad0:	2b00      	cmp	r3, #0
 8001ad2:	d13a      	bne.n	8001b4a <HAL_ADC_Init+0x232>
       )
    {
      tmpCFGR = (ADC_CFGR_DFSDM(hadc)                                            |
                 ADC_CFGR_AUTOWAIT((uint32_t)hadc->Init.LowPowerAutoWait)        |
 8001ad4:	687b      	ldr	r3, [r7, #4]
 8001ad6:	7e1b      	ldrb	r3, [r3, #24]
      tmpCFGR = (ADC_CFGR_DFSDM(hadc)                                            |
 8001ad8:	039a      	lsls	r2, r3, #14
                 ADC_CFGR_DMACONTREQ((uint32_t)hadc->Init.DMAContinuousRequests));
 8001ada:	687b      	ldr	r3, [r7, #4]
 8001adc:	f893 3030 	ldrb.w	r3, [r3, #48]	; 0x30
 8001ae0:	005b      	lsls	r3, r3, #1
      tmpCFGR = (ADC_CFGR_DFSDM(hadc)                                            |
 8001ae2:	4313      	orrs	r3, r2
 8001ae4:	61bb      	str	r3, [r7, #24]

      MODIFY_REG(hadc->Instance->CFGR, ADC_CFGR_FIELDS_2, tmpCFGR);
 8001ae6:	687b      	ldr	r3, [r7, #4]
 8001ae8:	681b      	ldr	r3, [r3, #0]
 8001aea:	68db      	ldr	r3, [r3, #12]
 8001aec:	f423 4380 	bic.w	r3, r3, #16384	; 0x4000
 8001af0:	f023 0302 	bic.w	r3, r3, #2
 8001af4:	687a      	ldr	r2, [r7, #4]
 8001af6:	6812      	ldr	r2, [r2, #0]
 8001af8:	69b9      	ldr	r1, [r7, #24]
 8001afa:	430b      	orrs	r3, r1
 8001afc:	60d3      	str	r3, [r2, #12]

      if (hadc->Init.OversamplingMode == ENABLE)
 8001afe:	687b      	ldr	r3, [r7, #4]
 8001b00:	f893 3038 	ldrb.w	r3, [r3, #56]	; 0x38
 8001b04:	2b01      	cmp	r3, #1
 8001b06:	d118      	bne.n	8001b3a <HAL_ADC_Init+0x222>
        /* Configuration of Oversampler:                                      */
        /*  - Oversampling Ratio                                              */
        /*  - Right bit shift                                                 */
        /*  - Triggered mode                                                  */
        /*  - Oversampling mode (continued/resumed)                           */
        MODIFY_REG(hadc->Instance->CFGR2,
 8001b08:	687b      	ldr	r3, [r7, #4]
 8001b0a:	681b      	ldr	r3, [r3, #0]
 8001b0c:	691b      	ldr	r3, [r3, #16]
 8001b0e:	f423 63ff 	bic.w	r3, r3, #2040	; 0x7f8
 8001b12:	f023 0304 	bic.w	r3, r3, #4
 8001b16:	687a      	ldr	r2, [r7, #4]
 8001b18:	6bd1      	ldr	r1, [r2, #60]	; 0x3c
 8001b1a:	687a      	ldr	r2, [r7, #4]
 8001b1c:	6c12      	ldr	r2, [r2, #64]	; 0x40
 8001b1e:	4311      	orrs	r1, r2
 8001b20:	687a      	ldr	r2, [r7, #4]
 8001b22:	6c52      	ldr	r2, [r2, #68]	; 0x44
 8001b24:	4311      	orrs	r1, r2
 8001b26:	687a      	ldr	r2, [r7, #4]
 8001b28:	6c92      	ldr	r2, [r2, #72]	; 0x48
 8001b2a:	430a      	orrs	r2, r1
 8001b2c:	431a      	orrs	r2, r3
 8001b2e:	687b      	ldr	r3, [r7, #4]
 8001b30:	681b      	ldr	r3, [r3, #0]
 8001b32:	f042 0201 	orr.w	r2, r2, #1
 8001b36:	611a      	str	r2, [r3, #16]
 8001b38:	e007      	b.n	8001b4a <HAL_ADC_Init+0x232>
                  );
      }
      else
      {
        /* Disable ADC oversampling scope on ADC group regular */
        CLEAR_BIT(hadc->Instance->CFGR2, ADC_CFGR2_ROVSE);
 8001b3a:	687b      	ldr	r3, [r7, #4]
 8001b3c:	681b      	ldr	r3, [r3, #0]
 8001b3e:	691a      	ldr	r2, [r3, #16]
 8001b40:	687b      	ldr	r3, [r7, #4]
 8001b42:	681b      	ldr	r3, [r3, #0]
 8001b44:	f022 0201 	bic.w	r2, r2, #1
 8001b48:	611a      	str	r2, [r3, #16]
    /*   Note: Scan mode is not present by hardware on this device, but       */
    /*   emulated by software for alignment over all STM32 devices.           */
    /* - if scan mode is enabled, regular channels sequence length is set to  */
    /*   parameter "NbrOfConversion".                                         */

    if (hadc->Init.ScanConvMode == ADC_SCAN_ENABLE)
 8001b4a:	687b      	ldr	r3, [r7, #4]
 8001b4c:	691b      	ldr	r3, [r3, #16]
 8001b4e:	2b01      	cmp	r3, #1
 8001b50:	d10c      	bne.n	8001b6c <HAL_ADC_Init+0x254>
    {
      /* Set number of ranks in regular group sequencer */
      MODIFY_REG(hadc->Instance->SQR1, ADC_SQR1_L, (hadc->Init.NbrOfConversion - (uint8_t)1));
 8001b52:	687b      	ldr	r3, [r7, #4]
 8001b54:	681b      	ldr	r3, [r3, #0]
 8001b56:	6b1b      	ldr	r3, [r3, #48]	; 0x30
 8001b58:	f023 010f 	bic.w	r1, r3, #15
 8001b5c:	687b      	ldr	r3, [r7, #4]
 8001b5e:	69db      	ldr	r3, [r3, #28]
 8001b60:	1e5a      	subs	r2, r3, #1
 8001b62:	687b      	ldr	r3, [r7, #4]
 8001b64:	681b      	ldr	r3, [r3, #0]
 8001b66:	430a      	orrs	r2, r1
 8001b68:	631a      	str	r2, [r3, #48]	; 0x30
 8001b6a:	e007      	b.n	8001b7c <HAL_ADC_Init+0x264>
    }
    else
    {
      CLEAR_BIT(hadc->Instance->SQR1, ADC_SQR1_L);
 8001b6c:	687b      	ldr	r3, [r7, #4]
 8001b6e:	681b      	ldr	r3, [r3, #0]
 8001b70:	6b1a      	ldr	r2, [r3, #48]	; 0x30
 8001b72:	687b      	ldr	r3, [r7, #4]
 8001b74:	681b      	ldr	r3, [r3, #0]
 8001b76:	f022 020f 	bic.w	r2, r2, #15
 8001b7a:	631a      	str	r2, [r3, #48]	; 0x30
    }

    /* Initialize the ADC state */
    /* Clear HAL_ADC_STATE_BUSY_INTERNAL bit, set HAL_ADC_STATE_READY bit */
    ADC_STATE_CLR_SET(hadc->State, HAL_ADC_STATE_BUSY_INTERNAL, HAL_ADC_STATE_READY);
 8001b7c:	687b      	ldr	r3, [r7, #4]
 8001b7e:	6d5b      	ldr	r3, [r3, #84]	; 0x54
 8001b80:	f023 0303 	bic.w	r3, r3, #3
 8001b84:	f043 0201 	orr.w	r2, r3, #1
 8001b88:	687b      	ldr	r3, [r7, #4]
 8001b8a:	655a      	str	r2, [r3, #84]	; 0x54
 8001b8c:	e007      	b.n	8001b9e <HAL_ADC_Init+0x286>
  }
  else
  {
    /* Update ADC state machine to error */
    SET_BIT(hadc->State, HAL_ADC_STATE_ERROR_INTERNAL);
 8001b8e:	687b      	ldr	r3, [r7, #4]
 8001b90:	6d5b      	ldr	r3, [r3, #84]	; 0x54
 8001b92:	f043 0210 	orr.w	r2, r3, #16
 8001b96:	687b      	ldr	r3, [r7, #4]
 8001b98:	655a      	str	r2, [r3, #84]	; 0x54

    tmp_hal_status = HAL_ERROR;
 8001b9a:	2301      	movs	r3, #1
 8001b9c:	77fb      	strb	r3, [r7, #31]
  }

  /* Return function status */
  return tmp_hal_status;
 8001b9e:	7ffb      	ldrb	r3, [r7, #31]
}
 8001ba0:	4618      	mov	r0, r3
 8001ba2:	3724      	adds	r7, #36	; 0x24
 8001ba4:	46bd      	mov	sp, r7
 8001ba6:	bd90      	pop	{r4, r7, pc}
 8001ba8:	20000198 	.word	0x20000198
 8001bac:	053e2d63 	.word	0x053e2d63
 8001bb0:	50040000 	.word	0x50040000
 8001bb4:	50040100 	.word	0x50040100
 8001bb8:	50040200 	.word	0x50040200
 8001bbc:	50040300 	.word	0x50040300
 8001bc0:	fff0c007 	.word	0xfff0c007

08001bc4 <HAL_ADC_Start_DMA>:
  * @param pData Destination Buffer address.
  * @param Length Number of data to be transferred from ADC peripheral to memory
  * @retval HAL status.
  */
HAL_StatusTypeDef HAL_ADC_Start_DMA(ADC_HandleTypeDef *hadc, uint32_t *pData, uint32_t Length)
{
 8001bc4:	b580      	push	{r7, lr}
 8001bc6:	b086      	sub	sp, #24
 8001bc8:	af00      	add	r7, sp, #0
 8001bca:	60f8      	str	r0, [r7, #12]
 8001bcc:	60b9      	str	r1, [r7, #8]
 8001bce:	607a      	str	r2, [r7, #4]
  HAL_StatusTypeDef tmp_hal_status;
#if defined(ADC_MULTIMODE_SUPPORT)
  uint32_t tmp_multimode_config = LL_ADC_GetMultimode(__LL_ADC_COMMON_INSTANCE(hadc->Instance));
 8001bd0:	4853      	ldr	r0, [pc, #332]	; (8001d20 <HAL_ADC_Start_DMA+0x15c>)
 8001bd2:	f7ff fdbd 	bl	8001750 <LL_ADC_GetMultimode>
 8001bd6:	6138      	str	r0, [r7, #16]

  /* Check the parameters */
  assert_param(IS_ADC_ALL_INSTANCE(hadc->Instance));

  /* Perform ADC enable and conversion start if no conversion is on going */
  if (LL_ADC_REG_IsConversionOngoing(hadc->Instance) == 0UL)
 8001bd8:	68fb      	ldr	r3, [r7, #12]
 8001bda:	681b      	ldr	r3, [r3, #0]
 8001bdc:	4618      	mov	r0, r3
 8001bde:	f7ff fe75 	bl	80018cc <LL_ADC_REG_IsConversionOngoing>
 8001be2:	4603      	mov	r3, r0
 8001be4:	2b00      	cmp	r3, #0
 8001be6:	f040 8093 	bne.w	8001d10 <HAL_ADC_Start_DMA+0x14c>
  {
    /* Process locked */
    __HAL_LOCK(hadc);
 8001bea:	68fb      	ldr	r3, [r7, #12]
 8001bec:	f893 3050 	ldrb.w	r3, [r3, #80]	; 0x50
 8001bf0:	2b01      	cmp	r3, #1
 8001bf2:	d101      	bne.n	8001bf8 <HAL_ADC_Start_DMA+0x34>
 8001bf4:	2302      	movs	r3, #2
 8001bf6:	e08e      	b.n	8001d16 <HAL_ADC_Start_DMA+0x152>
 8001bf8:	68fb      	ldr	r3, [r7, #12]
 8001bfa:	2201      	movs	r2, #1
 8001bfc:	f883 2050 	strb.w	r2, [r3, #80]	; 0x50

#if defined(ADC_MULTIMODE_SUPPORT)
    /* Ensure that multimode regular conversions are not enabled.   */
    /* Otherwise, dedicated API HAL_ADCEx_MultiModeStart_DMA() must be used.  */
    if ((ADC_IS_INDEPENDENT(hadc) != RESET)
 8001c00:	68fb      	ldr	r3, [r7, #12]
 8001c02:	681b      	ldr	r3, [r3, #0]
 8001c04:	4a47      	ldr	r2, [pc, #284]	; (8001d24 <HAL_ADC_Start_DMA+0x160>)
 8001c06:	4293      	cmp	r3, r2
 8001c08:	d008      	beq.n	8001c1c <HAL_ADC_Start_DMA+0x58>
        || (tmp_multimode_config == LL_ADC_MULTI_INDEPENDENT)
 8001c0a:	693b      	ldr	r3, [r7, #16]
 8001c0c:	2b00      	cmp	r3, #0
 8001c0e:	d005      	beq.n	8001c1c <HAL_ADC_Start_DMA+0x58>
        || (tmp_multimode_config == LL_ADC_MULTI_DUAL_INJ_SIMULT)
 8001c10:	693b      	ldr	r3, [r7, #16]
 8001c12:	2b05      	cmp	r3, #5
 8001c14:	d002      	beq.n	8001c1c <HAL_ADC_Start_DMA+0x58>
        || (tmp_multimode_config == LL_ADC_MULTI_DUAL_INJ_ALTERN)
 8001c16:	693b      	ldr	r3, [r7, #16]
 8001c18:	2b09      	cmp	r3, #9
 8001c1a:	d172      	bne.n	8001d02 <HAL_ADC_Start_DMA+0x13e>
       )
#endif /* ADC_MULTIMODE_SUPPORT */
    {
      /* Enable the ADC peripheral */
      tmp_hal_status = ADC_Enable(hadc);
 8001c1c:	68f8      	ldr	r0, [r7, #12]
 8001c1e:	f000 fc9b 	bl	8002558 <ADC_Enable>
 8001c22:	4603      	mov	r3, r0
 8001c24:	75fb      	strb	r3, [r7, #23]

      /* Start conversion if ADC is effectively enabled */
      if (tmp_hal_status == HAL_OK)
 8001c26:	7dfb      	ldrb	r3, [r7, #23]
 8001c28:	2b00      	cmp	r3, #0
 8001c2a:	d165      	bne.n	8001cf8 <HAL_ADC_Start_DMA+0x134>
      {
        /* Set ADC state                                                        */
        /* - Clear state bitfield related to regular group conversion results   */
        /* - Set state bitfield related to regular operation                    */
        ADC_STATE_CLR_SET(hadc->State,
 8001c2c:	68fb      	ldr	r3, [r7, #12]
 8001c2e:	6d5b      	ldr	r3, [r3, #84]	; 0x54
 8001c30:	f423 6370 	bic.w	r3, r3, #3840	; 0xf00
 8001c34:	f023 0301 	bic.w	r3, r3, #1
 8001c38:	f443 7280 	orr.w	r2, r3, #256	; 0x100
 8001c3c:	68fb      	ldr	r3, [r7, #12]
 8001c3e:	655a      	str	r2, [r3, #84]	; 0x54

#if defined(ADC_MULTIMODE_SUPPORT)
        /* Reset HAL_ADC_STATE_MULTIMODE_SLAVE bit
          - if ADC instance is master or if multimode feature is not available
          - if multimode setting is disabled (ADC instance slave in independent mode) */
        if ((__LL_ADC_MULTI_INSTANCE_MASTER(hadc->Instance) == hadc->Instance)
 8001c40:	68fb      	ldr	r3, [r7, #12]
 8001c42:	681b      	ldr	r3, [r3, #0]
 8001c44:	4a38      	ldr	r2, [pc, #224]	; (8001d28 <HAL_ADC_Start_DMA+0x164>)
 8001c46:	4293      	cmp	r3, r2
 8001c48:	d002      	beq.n	8001c50 <HAL_ADC_Start_DMA+0x8c>
 8001c4a:	68fb      	ldr	r3, [r7, #12]
 8001c4c:	681b      	ldr	r3, [r3, #0]
 8001c4e:	e000      	b.n	8001c52 <HAL_ADC_Start_DMA+0x8e>
 8001c50:	4b36      	ldr	r3, [pc, #216]	; (8001d2c <HAL_ADC_Start_DMA+0x168>)
 8001c52:	68fa      	ldr	r2, [r7, #12]
 8001c54:	6812      	ldr	r2, [r2, #0]
 8001c56:	4293      	cmp	r3, r2
 8001c58:	d002      	beq.n	8001c60 <HAL_ADC_Start_DMA+0x9c>
            || (tmp_multimode_config == LL_ADC_MULTI_INDEPENDENT)
 8001c5a:	693b      	ldr	r3, [r7, #16]
 8001c5c:	2b00      	cmp	r3, #0
 8001c5e:	d105      	bne.n	8001c6c <HAL_ADC_Start_DMA+0xa8>
           )
        {
          CLEAR_BIT(hadc->State, HAL_ADC_STATE_MULTIMODE_SLAVE);
 8001c60:	68fb      	ldr	r3, [r7, #12]
 8001c62:	6d5b      	ldr	r3, [r3, #84]	; 0x54
 8001c64:	f423 1280 	bic.w	r2, r3, #1048576	; 0x100000
 8001c68:	68fb      	ldr	r3, [r7, #12]
 8001c6a:	655a      	str	r2, [r3, #84]	; 0x54
        }
#endif

        /* Check if a conversion is on going on ADC group injected */
        if ((hadc->State & HAL_ADC_STATE_INJ_BUSY) != 0UL)
 8001c6c:	68fb      	ldr	r3, [r7, #12]
 8001c6e:	6d5b      	ldr	r3, [r3, #84]	; 0x54
 8001c70:	f403 5380 	and.w	r3, r3, #4096	; 0x1000
 8001c74:	2b00      	cmp	r3, #0
 8001c76:	d006      	beq.n	8001c86 <HAL_ADC_Start_DMA+0xc2>
        {
          /* Reset ADC error code fields related to regular conversions only */
          CLEAR_BIT(hadc->ErrorCode, (HAL_ADC_ERROR_OVR | HAL_ADC_ERROR_DMA));
 8001c78:	68fb      	ldr	r3, [r7, #12]
 8001c7a:	6d9b      	ldr	r3, [r3, #88]	; 0x58
 8001c7c:	f023 0206 	bic.w	r2, r3, #6
 8001c80:	68fb      	ldr	r3, [r7, #12]
 8001c82:	659a      	str	r2, [r3, #88]	; 0x58
 8001c84:	e002      	b.n	8001c8c <HAL_ADC_Start_DMA+0xc8>
        }
        else
        {
          /* Reset all ADC error code fields */
          ADC_CLEAR_ERRORCODE(hadc);
 8001c86:	68fb      	ldr	r3, [r7, #12]
 8001c88:	2200      	movs	r2, #0
 8001c8a:	659a      	str	r2, [r3, #88]	; 0x58
        }

        /* Set the DMA transfer complete callback */
        hadc->DMA_Handle->XferCpltCallback = ADC_DMAConvCplt;
 8001c8c:	68fb      	ldr	r3, [r7, #12]
 8001c8e:	6cdb      	ldr	r3, [r3, #76]	; 0x4c
 8001c90:	4a27      	ldr	r2, [pc, #156]	; (8001d30 <HAL_ADC_Start_DMA+0x16c>)
 8001c92:	62da      	str	r2, [r3, #44]	; 0x2c

        /* Set the DMA half transfer complete callback */
        hadc->DMA_Handle->XferHalfCpltCallback = ADC_DMAHalfConvCplt;
 8001c94:	68fb      	ldr	r3, [r7, #12]
 8001c96:	6cdb      	ldr	r3, [r3, #76]	; 0x4c
 8001c98:	4a26      	ldr	r2, [pc, #152]	; (8001d34 <HAL_ADC_Start_DMA+0x170>)
 8001c9a:	631a      	str	r2, [r3, #48]	; 0x30

        /* Set the DMA error callback */
        hadc->DMA_Handle->XferErrorCallback = ADC_DMAError;
 8001c9c:	68fb      	ldr	r3, [r7, #12]
 8001c9e:	6cdb      	ldr	r3, [r3, #76]	; 0x4c
 8001ca0:	4a25      	ldr	r2, [pc, #148]	; (8001d38 <HAL_ADC_Start_DMA+0x174>)
 8001ca2:	635a      	str	r2, [r3, #52]	; 0x34
        /* ADC start (in case of SW start):                                   */

        /* Clear regular group conversion flag and overrun flag               */
        /* (To ensure of no unknown state from potential previous ADC         */
        /* operations)                                                        */
        __HAL_ADC_CLEAR_FLAG(hadc, (ADC_FLAG_EOC | ADC_FLAG_EOS | ADC_FLAG_OVR));
 8001ca4:	68fb      	ldr	r3, [r7, #12]
 8001ca6:	681b      	ldr	r3, [r3, #0]
 8001ca8:	221c      	movs	r2, #28
 8001caa:	601a      	str	r2, [r3, #0]

        /* Process unlocked */
        /* Unlock before starting ADC conversions: in case of potential         */
        /* interruption, to let the process to ADC IRQ Handler.                 */
        __HAL_UNLOCK(hadc);
 8001cac:	68fb      	ldr	r3, [r7, #12]
 8001cae:	2200      	movs	r2, #0
 8001cb0:	f883 2050 	strb.w	r2, [r3, #80]	; 0x50

        /* With DMA, overrun event is always considered as an error even if
           hadc->Init.Overrun is set to ADC_OVR_DATA_OVERWRITTEN. Therefore,
           ADC_IT_OVR is enabled. */
        __HAL_ADC_ENABLE_IT(hadc, ADC_IT_OVR);
 8001cb4:	68fb      	ldr	r3, [r7, #12]
 8001cb6:	681b      	ldr	r3, [r3, #0]
 8001cb8:	685a      	ldr	r2, [r3, #4]
 8001cba:	68fb      	ldr	r3, [r7, #12]
 8001cbc:	681b      	ldr	r3, [r3, #0]
 8001cbe:	f042 0210 	orr.w	r2, r2, #16
 8001cc2:	605a      	str	r2, [r3, #4]

        /* Enable ADC DMA mode */
        SET_BIT(hadc->Instance->CFGR, ADC_CFGR_DMAEN);
 8001cc4:	68fb      	ldr	r3, [r7, #12]
 8001cc6:	681b      	ldr	r3, [r3, #0]
 8001cc8:	68da      	ldr	r2, [r3, #12]
 8001cca:	68fb      	ldr	r3, [r7, #12]
 8001ccc:	681b      	ldr	r3, [r3, #0]
 8001cce:	f042 0201 	orr.w	r2, r2, #1
 8001cd2:	60da      	str	r2, [r3, #12]

        /* Start the DMA channel */
        tmp_hal_status = HAL_DMA_Start_IT(hadc->DMA_Handle, (uint32_t)&hadc->Instance->DR, (uint32_t)pData, Length);
 8001cd4:	68fb      	ldr	r3, [r7, #12]
 8001cd6:	6cd8      	ldr	r0, [r3, #76]	; 0x4c
 8001cd8:	68fb      	ldr	r3, [r7, #12]
 8001cda:	681b      	ldr	r3, [r3, #0]
 8001cdc:	3340      	adds	r3, #64	; 0x40
 8001cde:	4619      	mov	r1, r3
 8001ce0:	68ba      	ldr	r2, [r7, #8]
 8001ce2:	687b      	ldr	r3, [r7, #4]
 8001ce4:	f001 fab8 	bl	8003258 <HAL_DMA_Start_IT>
 8001ce8:	4603      	mov	r3, r0
 8001cea:	75fb      	strb	r3, [r7, #23]
        /* Enable conversion of regular group.                                  */
        /* If software start has been selected, conversion starts immediately.  */
        /* If external trigger has been selected, conversion will start at next */
        /* trigger event.                                                       */
        /* Start ADC group regular conversion */
        LL_ADC_REG_StartConversion(hadc->Instance);
 8001cec:	68fb      	ldr	r3, [r7, #12]
 8001cee:	681b      	ldr	r3, [r3, #0]
 8001cf0:	4618      	mov	r0, r3
 8001cf2:	f7ff fdd7 	bl	80018a4 <LL_ADC_REG_StartConversion>
      if (tmp_hal_status == HAL_OK)
 8001cf6:	e00d      	b.n	8001d14 <HAL_ADC_Start_DMA+0x150>
      }
      else
      {
        /* Process unlocked */
        __HAL_UNLOCK(hadc);
 8001cf8:	68fb      	ldr	r3, [r7, #12]
 8001cfa:	2200      	movs	r2, #0
 8001cfc:	f883 2050 	strb.w	r2, [r3, #80]	; 0x50
      if (tmp_hal_status == HAL_OK)
 8001d00:	e008      	b.n	8001d14 <HAL_ADC_Start_DMA+0x150>

    }
#if defined(ADC_MULTIMODE_SUPPORT)
    else
    {
      tmp_hal_status = HAL_ERROR;
 8001d02:	2301      	movs	r3, #1
 8001d04:	75fb      	strb	r3, [r7, #23]
      /* Process unlocked */
      __HAL_UNLOCK(hadc);
 8001d06:	68fb      	ldr	r3, [r7, #12]
 8001d08:	2200      	movs	r2, #0
 8001d0a:	f883 2050 	strb.w	r2, [r3, #80]	; 0x50
 8001d0e:	e001      	b.n	8001d14 <HAL_ADC_Start_DMA+0x150>
    }
#endif
  }
  else
  {
    tmp_hal_status = HAL_BUSY;
 8001d10:	2302      	movs	r3, #2
 8001d12:	75fb      	strb	r3, [r7, #23]
  }

  /* Return function status */
  return tmp_hal_status;
 8001d14:	7dfb      	ldrb	r3, [r7, #23]
}
 8001d16:	4618      	mov	r0, r3
 8001d18:	3718      	adds	r7, #24
 8001d1a:	46bd      	mov	sp, r7
 8001d1c:	bd80      	pop	{r7, pc}
 8001d1e:	bf00      	nop
 8001d20:	50040300 	.word	0x50040300
 8001d24:	50040200 	.word	0x50040200
 8001d28:	50040100 	.word	0x50040100
 8001d2c:	50040000 	.word	0x50040000
 8001d30:	08002723 	.word	0x08002723
 8001d34:	080027fb 	.word	0x080027fb
 8001d38:	08002817 	.word	0x08002817

08001d3c <HAL_ADC_ConvCpltCallback>:
  * @brief  Conversion complete callback in non-blocking mode.
  * @param hadc ADC handle
  * @retval None
  */
__weak void HAL_ADC_ConvCpltCallback(ADC_HandleTypeDef *hadc)
{
 8001d3c:	b480      	push	{r7}
 8001d3e:	b083      	sub	sp, #12
 8001d40:	af00      	add	r7, sp, #0
 8001d42:	6078      	str	r0, [r7, #4]
  UNUSED(hadc);

  /* NOTE : This function should not be modified. When the callback is needed,
            function HAL_ADC_ConvCpltCallback must be implemented in the user file.
   */
}
 8001d44:	bf00      	nop
 8001d46:	370c      	adds	r7, #12
 8001d48:	46bd      	mov	sp, r7
 8001d4a:	f85d 7b04 	ldr.w	r7, [sp], #4
 8001d4e:	4770      	bx	lr

08001d50 <HAL_ADC_ConvHalfCpltCallback>:
  * @brief  Conversion DMA half-transfer callback in non-blocking mode.
  * @param hadc ADC handle
  * @retval None
  */
__weak void HAL_ADC_ConvHalfCpltCallback(ADC_HandleTypeDef *hadc)
{
 8001d50:	b480      	push	{r7}
 8001d52:	b083      	sub	sp, #12
 8001d54:	af00      	add	r7, sp, #0
 8001d56:	6078      	str	r0, [r7, #4]
  UNUSED(hadc);

  /* NOTE : This function should not be modified. When the callback is needed,
            function HAL_ADC_ConvHalfCpltCallback must be implemented in the user file.
  */
}
 8001d58:	bf00      	nop
 8001d5a:	370c      	adds	r7, #12
 8001d5c:	46bd      	mov	sp, r7
 8001d5e:	f85d 7b04 	ldr.w	r7, [sp], #4
 8001d62:	4770      	bx	lr

08001d64 <HAL_ADC_ErrorCallback>:
  *           (this function is also clearing overrun flag)
  * @param hadc ADC handle
  * @retval None
  */
__weak void HAL_ADC_ErrorCallback(ADC_HandleTypeDef *hadc)
{
 8001d64:	b480      	push	{r7}
 8001d66:	b083      	sub	sp, #12
 8001d68:	af00      	add	r7, sp, #0
 8001d6a:	6078      	str	r0, [r7, #4]
  UNUSED(hadc);

  /* NOTE : This function should not be modified. When the callback is needed,
            function HAL_ADC_ErrorCallback must be implemented in the user file.
  */
}
 8001d6c:	bf00      	nop
 8001d6e:	370c      	adds	r7, #12
 8001d70:	46bd      	mov	sp, r7
 8001d72:	f85d 7b04 	ldr.w	r7, [sp], #4
 8001d76:	4770      	bx	lr

08001d78 <HAL_ADC_ConfigChannel>:
  * @param hadc ADC handle
  * @param sConfig Structure of ADC channel assigned to ADC group regular.
  * @retval HAL status
  */
HAL_StatusTypeDef HAL_ADC_ConfigChannel(ADC_HandleTypeDef *hadc, ADC_ChannelConfTypeDef *sConfig)
{
 8001d78:	b580      	push	{r7, lr}
 8001d7a:	b0b6      	sub	sp, #216	; 0xd8
 8001d7c:	af00      	add	r7, sp, #0
 8001d7e:	6078      	str	r0, [r7, #4]
 8001d80:	6039      	str	r1, [r7, #0]
  HAL_StatusTypeDef tmp_hal_status = HAL_OK;
 8001d82:	2300      	movs	r3, #0
 8001d84:	f887 30d7 	strb.w	r3, [r7, #215]	; 0xd7
  uint32_t tmpOffsetShifted;
  uint32_t tmp_config_internal_channel;
  __IO uint32_t wait_loop_index = 0UL;
 8001d88:	2300      	movs	r3, #0
 8001d8a:	60fb      	str	r3, [r7, #12]
  {
    assert_param(IS_ADC_DIFF_CHANNEL(hadc, sConfig->Channel));
  }

  /* Process locked */
  __HAL_LOCK(hadc);
 8001d8c:	687b      	ldr	r3, [r7, #4]
 8001d8e:	f893 3050 	ldrb.w	r3, [r3, #80]	; 0x50
 8001d92:	2b01      	cmp	r3, #1
 8001d94:	d101      	bne.n	8001d9a <HAL_ADC_ConfigChannel+0x22>
 8001d96:	2302      	movs	r3, #2
 8001d98:	e3c7      	b.n	800252a <HAL_ADC_ConfigChannel+0x7b2>
 8001d9a:	687b      	ldr	r3, [r7, #4]
 8001d9c:	2201      	movs	r2, #1
 8001d9e:	f883 2050 	strb.w	r2, [r3, #80]	; 0x50
  /* Parameters update conditioned to ADC state:                              */
  /* Parameters that can be updated when ADC is disabled or enabled without   */
  /* conversion on going on regular group:                                    */
  /*  - Channel number                                                        */
  /*  - Channel rank                                                          */
  if (LL_ADC_REG_IsConversionOngoing(hadc->Instance) == 0UL)
 8001da2:	687b      	ldr	r3, [r7, #4]
 8001da4:	681b      	ldr	r3, [r3, #0]
 8001da6:	4618      	mov	r0, r3
 8001da8:	f7ff fd90 	bl	80018cc <LL_ADC_REG_IsConversionOngoing>
 8001dac:	4603      	mov	r3, r0
 8001dae:	2b00      	cmp	r3, #0
 8001db0:	f040 83a8 	bne.w	8002504 <HAL_ADC_ConfigChannel+0x78c>
    /* Correspondence for compatibility with legacy definition of             */
    /* sequencer ranks in direct number format. This correspondence can       */
    /* be done only on ranks 1 to 5 due to literal values.                    */
    /* Note: Sequencer ranks in direct number format are no more used         */
    /*       and are detected by activating USE_FULL_ASSERT feature.          */
    if (sConfig->Rank <= 5U)
 8001db4:	683b      	ldr	r3, [r7, #0]
 8001db6:	685b      	ldr	r3, [r3, #4]
 8001db8:	2b05      	cmp	r3, #5
 8001dba:	d824      	bhi.n	8001e06 <HAL_ADC_ConfigChannel+0x8e>
    {
      switch (sConfig->Rank)
 8001dbc:	683b      	ldr	r3, [r7, #0]
 8001dbe:	685b      	ldr	r3, [r3, #4]
 8001dc0:	3b02      	subs	r3, #2
 8001dc2:	2b03      	cmp	r3, #3
 8001dc4:	d81b      	bhi.n	8001dfe <HAL_ADC_ConfigChannel+0x86>
 8001dc6:	a201      	add	r2, pc, #4	; (adr r2, 8001dcc <HAL_ADC_ConfigChannel+0x54>)
 8001dc8:	f852 f023 	ldr.w	pc, [r2, r3, lsl #2]
 8001dcc:	08001ddd 	.word	0x08001ddd
 8001dd0:	08001de5 	.word	0x08001de5
 8001dd4:	08001ded 	.word	0x08001ded
 8001dd8:	08001df5 	.word	0x08001df5
      {
        case 2U:
          sConfig->Rank = ADC_REGULAR_RANK_2;
 8001ddc:	683b      	ldr	r3, [r7, #0]
 8001dde:	220c      	movs	r2, #12
 8001de0:	605a      	str	r2, [r3, #4]
          break;
 8001de2:	e011      	b.n	8001e08 <HAL_ADC_ConfigChannel+0x90>
        case 3U:
          sConfig->Rank = ADC_REGULAR_RANK_3;
 8001de4:	683b      	ldr	r3, [r7, #0]
 8001de6:	2212      	movs	r2, #18
 8001de8:	605a      	str	r2, [r3, #4]
          break;
 8001dea:	e00d      	b.n	8001e08 <HAL_ADC_ConfigChannel+0x90>
        case 4U:
          sConfig->Rank = ADC_REGULAR_RANK_4;
 8001dec:	683b      	ldr	r3, [r7, #0]
 8001dee:	2218      	movs	r2, #24
 8001df0:	605a      	str	r2, [r3, #4]
          break;
 8001df2:	e009      	b.n	8001e08 <HAL_ADC_ConfigChannel+0x90>
        case 5U:
          sConfig->Rank = ADC_REGULAR_RANK_5;
 8001df4:	683b      	ldr	r3, [r7, #0]
 8001df6:	f44f 7280 	mov.w	r2, #256	; 0x100
 8001dfa:	605a      	str	r2, [r3, #4]
          break;
 8001dfc:	e004      	b.n	8001e08 <HAL_ADC_ConfigChannel+0x90>
        /* case 1U */
        default:
          sConfig->Rank = ADC_REGULAR_RANK_1;
 8001dfe:	683b      	ldr	r3, [r7, #0]
 8001e00:	2206      	movs	r2, #6
 8001e02:	605a      	str	r2, [r3, #4]
          break;
 8001e04:	e000      	b.n	8001e08 <HAL_ADC_ConfigChannel+0x90>
      }
    }
 8001e06:	bf00      	nop
#endif

    /* Set ADC group regular sequence: channel on the selected scan sequence rank */
    LL_ADC_REG_SetSequencerRanks(hadc->Instance, sConfig->Rank, sConfig->Channel);
 8001e08:	687b      	ldr	r3, [r7, #4]
 8001e0a:	6818      	ldr	r0, [r3, #0]
 8001e0c:	683b      	ldr	r3, [r7, #0]
 8001e0e:	6859      	ldr	r1, [r3, #4]
 8001e10:	683b      	ldr	r3, [r7, #0]
 8001e12:	681b      	ldr	r3, [r3, #0]
 8001e14:	461a      	mov	r2, r3
 8001e16:	f7ff fc1f 	bl	8001658 <LL_ADC_REG_SetSequencerRanks>
    /* Parameters update conditioned to ADC state:                              */
    /* Parameters that can be updated when ADC is disabled or enabled without   */
    /* conversion on going on regular group:                                    */
    /*  - Channel sampling time                                                 */
    /*  - Channel offset                                                        */
    tmp_adc_is_conversion_on_going_regular = LL_ADC_REG_IsConversionOngoing(hadc->Instance);
 8001e1a:	687b      	ldr	r3, [r7, #4]
 8001e1c:	681b      	ldr	r3, [r3, #0]
 8001e1e:	4618      	mov	r0, r3
 8001e20:	f7ff fd54 	bl	80018cc <LL_ADC_REG_IsConversionOngoing>
 8001e24:	f8c7 00d0 	str.w	r0, [r7, #208]	; 0xd0
    tmp_adc_is_conversion_on_going_injected = LL_ADC_INJ_IsConversionOngoing(hadc->Instance);
 8001e28:	687b      	ldr	r3, [r7, #4]
 8001e2a:	681b      	ldr	r3, [r3, #0]
 8001e2c:	4618      	mov	r0, r3
 8001e2e:	f7ff fd60 	bl	80018f2 <LL_ADC_INJ_IsConversionOngoing>
 8001e32:	f8c7 00cc 	str.w	r0, [r7, #204]	; 0xcc
    if ((tmp_adc_is_conversion_on_going_regular == 0UL)
 8001e36:	f8d7 30d0 	ldr.w	r3, [r7, #208]	; 0xd0
 8001e3a:	2b00      	cmp	r3, #0
 8001e3c:	f040 81a6 	bne.w	800218c <HAL_ADC_ConfigChannel+0x414>
        && (tmp_adc_is_conversion_on_going_injected == 0UL)
 8001e40:	f8d7 30cc 	ldr.w	r3, [r7, #204]	; 0xcc
 8001e44:	2b00      	cmp	r3, #0
 8001e46:	f040 81a1 	bne.w	800218c <HAL_ADC_ConfigChannel+0x414>
        /* Set ADC sampling time common configuration */
        LL_ADC_SetSamplingTimeCommonConfig(hadc->Instance, LL_ADC_SAMPLINGTIME_COMMON_DEFAULT);
      }
#else
      /* Set sampling time of the selected ADC channel */
      LL_ADC_SetChannelSamplingTime(hadc->Instance, sConfig->Channel, sConfig->SamplingTime);
 8001e4a:	687b      	ldr	r3, [r7, #4]
 8001e4c:	6818      	ldr	r0, [r3, #0]
 8001e4e:	683b      	ldr	r3, [r7, #0]
 8001e50:	6819      	ldr	r1, [r3, #0]
 8001e52:	683b      	ldr	r3, [r7, #0]
 8001e54:	689b      	ldr	r3, [r3, #8]
 8001e56:	461a      	mov	r2, r3
 8001e58:	f7ff fc2a 	bl	80016b0 <LL_ADC_SetChannelSamplingTime>

      /* Configure the offset: offset enable/disable, channel, offset value */

      /* Shift the offset with respect to the selected ADC resolution. */
      /* Offset has to be left-aligned on bit 11, the LSB (right bits) are set to 0 */
      tmpOffsetShifted = ADC_OFFSET_SHIFT_RESOLUTION(hadc, (uint32_t)sConfig->Offset);
 8001e5c:	683b      	ldr	r3, [r7, #0]
 8001e5e:	695a      	ldr	r2, [r3, #20]
 8001e60:	687b      	ldr	r3, [r7, #4]
 8001e62:	681b      	ldr	r3, [r3, #0]
 8001e64:	68db      	ldr	r3, [r3, #12]
 8001e66:	08db      	lsrs	r3, r3, #3
 8001e68:	f003 0303 	and.w	r3, r3, #3
 8001e6c:	005b      	lsls	r3, r3, #1
 8001e6e:	fa02 f303 	lsl.w	r3, r2, r3
 8001e72:	f8c7 30c8 	str.w	r3, [r7, #200]	; 0xc8

      if (sConfig->OffsetNumber != ADC_OFFSET_NONE)
 8001e76:	683b      	ldr	r3, [r7, #0]
 8001e78:	691b      	ldr	r3, [r3, #16]
 8001e7a:	2b04      	cmp	r3, #4
 8001e7c:	d00a      	beq.n	8001e94 <HAL_ADC_ConfigChannel+0x11c>
      {
        /* Set ADC selected offset number */
        LL_ADC_SetOffset(hadc->Instance, sConfig->OffsetNumber, sConfig->Channel, tmpOffsetShifted);
 8001e7e:	687b      	ldr	r3, [r7, #4]
 8001e80:	6818      	ldr	r0, [r3, #0]
 8001e82:	683b      	ldr	r3, [r7, #0]
 8001e84:	6919      	ldr	r1, [r3, #16]
 8001e86:	683b      	ldr	r3, [r7, #0]
 8001e88:	681a      	ldr	r2, [r3, #0]
 8001e8a:	f8d7 30c8 	ldr.w	r3, [r7, #200]	; 0xc8
 8001e8e:	f7ff fb7b 	bl	8001588 <LL_ADC_SetOffset>
 8001e92:	e17b      	b.n	800218c <HAL_ADC_ConfigChannel+0x414>
      }
      else
      {
        /* Scan each offset register to check if the selected channel is targeted. */
        /* If this is the case, the corresponding offset number is disabled.       */
        if (__LL_ADC_CHANNEL_TO_DECIMAL_NB(LL_ADC_GetOffsetChannel(hadc->Instance, LL_ADC_OFFSET_1))
 8001e94:	687b      	ldr	r3, [r7, #4]
 8001e96:	681b      	ldr	r3, [r3, #0]
 8001e98:	2100      	movs	r1, #0
 8001e9a:	4618      	mov	r0, r3
 8001e9c:	f7ff fb98 	bl	80015d0 <LL_ADC_GetOffsetChannel>
 8001ea0:	4603      	mov	r3, r0
 8001ea2:	f3c3 0312 	ubfx	r3, r3, #0, #19
 8001ea6:	2b00      	cmp	r3, #0
 8001ea8:	d10a      	bne.n	8001ec0 <HAL_ADC_ConfigChannel+0x148>
 8001eaa:	687b      	ldr	r3, [r7, #4]
 8001eac:	681b      	ldr	r3, [r3, #0]
 8001eae:	2100      	movs	r1, #0
 8001eb0:	4618      	mov	r0, r3
 8001eb2:	f7ff fb8d 	bl	80015d0 <LL_ADC_GetOffsetChannel>
 8001eb6:	4603      	mov	r3, r0
 8001eb8:	0e9b      	lsrs	r3, r3, #26
 8001eba:	f003 021f 	and.w	r2, r3, #31
 8001ebe:	e01e      	b.n	8001efe <HAL_ADC_ConfigChannel+0x186>
 8001ec0:	687b      	ldr	r3, [r7, #4]
 8001ec2:	681b      	ldr	r3, [r3, #0]
 8001ec4:	2100      	movs	r1, #0
 8001ec6:	4618      	mov	r0, r3
 8001ec8:	f7ff fb82 	bl	80015d0 <LL_ADC_GetOffsetChannel>
 8001ecc:	4603      	mov	r3, r0
 8001ece:	f8c7 30bc 	str.w	r3, [r7, #188]	; 0xbc
  uint32_t result;

#if ((defined (__ARM_ARCH_7M__      ) && (__ARM_ARCH_7M__      == 1)) || \
     (defined (__ARM_ARCH_7EM__     ) && (__ARM_ARCH_7EM__     == 1)) || \
     (defined (__ARM_ARCH_8M_MAIN__ ) && (__ARM_ARCH_8M_MAIN__ == 1))    )
   __ASM volatile ("rbit %0, %1" : "=r" (result) : "r" (value) );
 8001ed2:	f8d7 30bc 	ldr.w	r3, [r7, #188]	; 0xbc
 8001ed6:	fa93 f3a3 	rbit	r3, r3
 8001eda:	f8c7 30b8 	str.w	r3, [r7, #184]	; 0xb8
    result |= value & 1U;
    s--;
  }
  result <<= s;                        /* shift when v's highest bits are zero */
#endif
  return result;
 8001ede:	f8d7 30b8 	ldr.w	r3, [r7, #184]	; 0xb8
 8001ee2:	f8c7 30c0 	str.w	r3, [r7, #192]	; 0xc0
     optimisations using the logic "value was passed to __builtin_clz, so it
     is non-zero".
     ARM GCC 7.3 and possibly earlier will optimise this test away, leaving a
     single CLZ instruction.
   */
  if (value == 0U)
 8001ee6:	f8d7 30c0 	ldr.w	r3, [r7, #192]	; 0xc0
 8001eea:	2b00      	cmp	r3, #0
 8001eec:	d101      	bne.n	8001ef2 <HAL_ADC_ConfigChannel+0x17a>
  {
    return 32U;
 8001eee:	2320      	movs	r3, #32
 8001ef0:	e004      	b.n	8001efc <HAL_ADC_ConfigChannel+0x184>
  }
  return __builtin_clz(value);
 8001ef2:	f8d7 30c0 	ldr.w	r3, [r7, #192]	; 0xc0
 8001ef6:	fab3 f383 	clz	r3, r3
 8001efa:	b2db      	uxtb	r3, r3
 8001efc:	461a      	mov	r2, r3
            == __LL_ADC_CHANNEL_TO_DECIMAL_NB(sConfig->Channel))
 8001efe:	683b      	ldr	r3, [r7, #0]
 8001f00:	681b      	ldr	r3, [r3, #0]
 8001f02:	f3c3 0312 	ubfx	r3, r3, #0, #19
 8001f06:	2b00      	cmp	r3, #0
 8001f08:	d105      	bne.n	8001f16 <HAL_ADC_ConfigChannel+0x19e>
 8001f0a:	683b      	ldr	r3, [r7, #0]
 8001f0c:	681b      	ldr	r3, [r3, #0]
 8001f0e:	0e9b      	lsrs	r3, r3, #26
 8001f10:	f003 031f 	and.w	r3, r3, #31
 8001f14:	e018      	b.n	8001f48 <HAL_ADC_ConfigChannel+0x1d0>
 8001f16:	683b      	ldr	r3, [r7, #0]
 8001f18:	681b      	ldr	r3, [r3, #0]
 8001f1a:	f8c7 30b0 	str.w	r3, [r7, #176]	; 0xb0
   __ASM volatile ("rbit %0, %1" : "=r" (result) : "r" (value) );
 8001f1e:	f8d7 30b0 	ldr.w	r3, [r7, #176]	; 0xb0
 8001f22:	fa93 f3a3 	rbit	r3, r3
 8001f26:	f8c7 30ac 	str.w	r3, [r7, #172]	; 0xac
  return result;
 8001f2a:	f8d7 30ac 	ldr.w	r3, [r7, #172]	; 0xac
 8001f2e:	f8c7 30b4 	str.w	r3, [r7, #180]	; 0xb4
  if (value == 0U)
 8001f32:	f8d7 30b4 	ldr.w	r3, [r7, #180]	; 0xb4
 8001f36:	2b00      	cmp	r3, #0
 8001f38:	d101      	bne.n	8001f3e <HAL_ADC_ConfigChannel+0x1c6>
    return 32U;
 8001f3a:	2320      	movs	r3, #32
 8001f3c:	e004      	b.n	8001f48 <HAL_ADC_ConfigChannel+0x1d0>
  return __builtin_clz(value);
 8001f3e:	f8d7 30b4 	ldr.w	r3, [r7, #180]	; 0xb4
 8001f42:	fab3 f383 	clz	r3, r3
 8001f46:	b2db      	uxtb	r3, r3
        if (__LL_ADC_CHANNEL_TO_DECIMAL_NB(LL_ADC_GetOffsetChannel(hadc->Instance, LL_ADC_OFFSET_1))
 8001f48:	429a      	cmp	r2, r3
 8001f4a:	d106      	bne.n	8001f5a <HAL_ADC_ConfigChannel+0x1e2>
        {
          LL_ADC_SetOffsetState(hadc->Instance, LL_ADC_OFFSET_1, LL_ADC_OFFSET_DISABLE);
 8001f4c:	687b      	ldr	r3, [r7, #4]
 8001f4e:	681b      	ldr	r3, [r3, #0]
 8001f50:	2200      	movs	r2, #0
 8001f52:	2100      	movs	r1, #0
 8001f54:	4618      	mov	r0, r3
 8001f56:	f7ff fb51 	bl	80015fc <LL_ADC_SetOffsetState>
        }
        if (__LL_ADC_CHANNEL_TO_DECIMAL_NB(LL_ADC_GetOffsetChannel(hadc->Instance, LL_ADC_OFFSET_2))
 8001f5a:	687b      	ldr	r3, [r7, #4]
 8001f5c:	681b      	ldr	r3, [r3, #0]
 8001f5e:	2101      	movs	r1, #1
 8001f60:	4618      	mov	r0, r3
 8001f62:	f7ff fb35 	bl	80015d0 <LL_ADC_GetOffsetChannel>
 8001f66:	4603      	mov	r3, r0
 8001f68:	f3c3 0312 	ubfx	r3, r3, #0, #19
 8001f6c:	2b00      	cmp	r3, #0
 8001f6e:	d10a      	bne.n	8001f86 <HAL_ADC_ConfigChannel+0x20e>
 8001f70:	687b      	ldr	r3, [r7, #4]
 8001f72:	681b      	ldr	r3, [r3, #0]
 8001f74:	2101      	movs	r1, #1
 8001f76:	4618      	mov	r0, r3
 8001f78:	f7ff fb2a 	bl	80015d0 <LL_ADC_GetOffsetChannel>
 8001f7c:	4603      	mov	r3, r0
 8001f7e:	0e9b      	lsrs	r3, r3, #26
 8001f80:	f003 021f 	and.w	r2, r3, #31
 8001f84:	e01e      	b.n	8001fc4 <HAL_ADC_ConfigChannel+0x24c>
 8001f86:	687b      	ldr	r3, [r7, #4]
 8001f88:	681b      	ldr	r3, [r3, #0]
 8001f8a:	2101      	movs	r1, #1
 8001f8c:	4618      	mov	r0, r3
 8001f8e:	f7ff fb1f 	bl	80015d0 <LL_ADC_GetOffsetChannel>
 8001f92:	4603      	mov	r3, r0
 8001f94:	f8c7 30a4 	str.w	r3, [r7, #164]	; 0xa4
   __ASM volatile ("rbit %0, %1" : "=r" (result) : "r" (value) );
